:020000040800F2
:100000000000032095050008ED1B0008EF1B000809
:10001000F11B0008F31B0008F51B0008000000009E
:10002000000000000000000000000000515800081F
:10003000F71B000800000000E158000845590008BF
:10004000E5050008E5050008E5050008E5050008E8
:10005000E5050008E5050008E5050008E5050008D8
:10006000E5050008E5050008E5050008E5050008C8
:10007000E5050008E5050008E5050008E5050008B8
:10008000E5050008E5050008E5050008E5050008A8
:10009000E5050008E5050008E5050008E505000898
:1000A000E5050008E5050008E5050008E505000888
:1000B000E5050008E5050008E5050008E505000878
:1000C000E5050008E5050008E5050008E505000868
:1000D000E5050008E5050008E5050008E505000858
:1000E000E5050008E5050008E5050008E505000848
:1000F000E5050008E5050008E5050008E505000838
:10010000E5050008E5050008E5050008E505000827
:10011000E5050008E5050008F91B0008E5050008ED
:10012000E5050008E5050008E5050008E505000807
:10013000E5050008E5050008E5050008E5050008F7
:10014000E5050008E5050008E5050008E5050008E7
:10015000E5050008E5050008E5050008E5050008D7
:10016000E5050008E5050008E5050008E5050008C7
:10017000E5050008E5050008E505000800000000A9
:10018000E5050008E5050008E5050008E5050008A7
:10019000E5050008E5050008E5050008E505000897
:0C01A000051C0008E5050008111C000803
:1001B00010B5054C237833B9044B13B10448AFF3A1
:1001C00000800123237010BD6401002000000000A6
:1001D0008CAC010808B5034B1BB103490348AFF3CE
:1001E000008008BD00000000680100208CAC010800
:1001F00001F0FF01102A2BDB10F0070F08D010F8D8
:10020000013B013A8B422DD010F0070F42B3F6D1DB
:10021000F0B441EA012141EA014122F007047FF0F4
:1002200000070023F0E80256083C85EA010586EA4B
:10023000010685FA47F5A3FA87F586FA47F6A5FA87
:1002400087F68EB9EED1F0BC01F0FF0102F0070293
:1002500032B110F8013B013A83EA010313B1F8D13E
:100260000020704701387047002D06BF354603381F
:10027000073815F0010F07D1013015F4807F02BF58
:10028000013015F4C03F0130F0BC0138704700BFA9
:1002900053B94AB9002908BF00281CBF4FF0FF31ED
:1002A0004FF0FF3000F074B9ADF1080C6DE904CEE9
:1002B00000F006F8DDF804E0DDE9022304B0704741
:1002C0002DE9F047089D04468E46002B4DD18A4209
:1002D000944669D9B2FA82F252B101FA02F3C2F13C
:1002E000200120FA01F10CFA02FC41EA030E9440CD
:1002F0004FEA1C48210CBEFBF8F61FFA8CF708FBEE
:1003000016E341EA034306FB07F199420AD91CEBC5
:10031000030306F1FF3080F01F81994240F21C81F7
:10032000023E63445B1AA4B2B3FBF8F008FB10333F
:1003300044EA034400FB07F7A7420AD91CEB040474
:1003400000F1FF3380F00A81A74240F20781644444
:10035000023840EA0640E41B00261DB1D4400023C9
:10036000C5E900433146BDE8F0878B4209D9002D2D
:1003700000F0EF800026C5E9000130463146BDE8B7
:10038000F087B3FA83F6002E4AD18B4202D3824221
:1003900000F2F980841A61EB030301209E46002DD0
:1003A000E0D0C5E9004EDDE702B9FFDEB2FA82F225
:1003B000002A40F09280A1EB0C014FEA1C471FFA83
:1003C0008CFE0126200CB1FBF7F307FB131140EA6A
:1003D00001410EFB03F0884208D91CEB010103F137
:1003E000FF3802D2884200F2CB804346091AA4B2F9
:1003F000B1FBF7F007FB101144EA01440EFB00FECD
:10040000A64508D91CEB040400F1FF3102D2A64531
:1004100000F2BB800846A4EB0E0440EA03409CE7D0
:10042000C6F12007B34022FA07FC4CEA030C20FA7D
:1004300007F401FA06F31C43F9404FEA1C4900FA9D
:1004400006F3B1FBF9F8200C1FFA8CFE09FB18111A
:1004500040EA014108FB0EF0884202FA06F20BD98D
:100460001CEB010108F1FF3A80F08880884240F2DD
:100470008580A8F102086144091AA4B2B1FBF9F021
:1004800009FB101144EA014100FB0EFE8E4508D91C
:100490001CEB010100F1FF346CD28E456AD90238A1
:1004A000614440EA0840A0FB0294A1EB0E01A14286
:1004B000C846A64656D353D05DB1B3EB080261EBF4
:1004C0000E0101FA07F722FA06F3F1401F43C5E9CE
:1004D000007100263146BDE8F087C2F12003D84004
:1004E0000CFA02FC21FA03F3914001434FEA1C4746
:1004F0001FFA8CFEB3FBF7F007FB10360B0C43EA38
:10050000064300FB0EF69E4204FA02F408D91CEBE7
:10051000030300F1FF382FD29E422DD902386344E5
:100520009B1B89B2B3FBF7F607FB163341EA034185
:1005300006FB0EF38B4208D91CEB010106F1FF38D4
:1005400016D28B4214D9023E6144C91A46EA0046CB
:1005500038E72E46284605E70646E3E61846F8E65D
:100560004B45A9D2B9EB020864EB0C0E0138A3E7A6
:100570004646EAE7204694E74046D1E7D0467BE787
:10058000023B614432E7304609E76444023842E7FF
:10059000704700BFDFF834D0002103E00C4B5B58FC
:1005A000435004310B480C4B42189A42F6D30B4A85
:1005B00002E0002342F8043B094B9A42F9D302F0CF
:1005C000FBFB19F0FDFA00F043FE7047000003202A
:1005D00068DC0108000000206401002064010020A4
:1005E000F8340120FEE700F039BC00F0A9BC7047E8
:1005F00010B50421044619F06AFA204610BD000027
:1006000038B50C4B0C4C18800C4B82201980636859
:10061000984740F6110398420AD1094D23682C608F
:10062000822098472B688220DB689847002038BDDD
:100630000120FCE7800100204C0000208201002006
:10064000840100204FF4A071F020FFF7D9BF000013
:10065000F7B52D4D2B6804461B698220984780B260
:100660002080002843D02B680DF106025B6901A9A8
:1006700082209847BDF80620A2F5B47292B20A2AE9
:1006800037D90B23B2FBF3F2204B1B889A4201D9D6
:10069000013B9AB2BDF8043040F6B8318B422AD8FB
:1006A000C3F571630E339BB20F21B3FBF1F318490D
:1006B00009888B4201D94B1E9BB2164E164D3068ED
:1006C0002F68834281B28CBF591AC91AB8B2BA4294
:1006D0008CBF101A801A89B280B201440529C8BFA4
:1006E00033603368C8BF2A6063802B68A38003B07F
:1006F000F0BD0022CEE7C3F56D6308339BB20E2B2D
:10070000D2D80023D9E700BF840100208201002055
:1007100080010020880100208C01002037B5684648
:100720000D461446FFF794FFBDF8000030B1BDF848
:1007300002302B60BDF804302360012003B030BDCF
:10074000704770477047012380F8741080F8753047
:100750007047002070470000034B4164003918BF08
:1007600001211970704700BF4B32012000207047F3
:10077000836B0BB10846184770474FF6FF70704700
:10078000406803689B69184770477047704700F0DE
:1007900077BC08B503680446D3F8803098472368CF
:1007A00020469B6F984700F0EBF8236820461B6FAC
:1007B0009847292000F064FF00F0E2F82368204603
:1007C0001B6F9847F8E710B5044607F00FFE236843
:1007D0002046D3F8AC30BDE81040184700F042BCCA
:1007E00000F046BC00F072BC00F018BC00F072BC17
:1007F00000F07ABC00F01CBC07F060B810B57C219A
:10080000044619F064F9204610BD90F877301BB10A
:10081000406803681B6818471846704710B590F881
:10082000341090F874400C4B8C421A7809D03AB9C5
:100830000A4A0B491488088810800C8001221A701B
:1008400010BD002AFCD0054A05491488088810808C
:100850000C800022F3E700BF443201204032012027
:100860004232012070B50D46194635B9094B0A4A86
:100870000A4840F2D22119F059F9C0E90F52084B49
:10088000003A18BF01221A700368BDE87040D3F81F
:100890008C301847FCAC010834AD010882AD01086A
:1008A0004A32012008B5094B1B888B4203D8084BFC
:1008B0001B88934205D9074B074A08489E2119F027
:1008C00035F9074B1980074B1A8008BD40320120CB
:1008D00042320120C7AD01082AAE010882AD0108ED
:1008E0004632012048320120012108B50022084685
:1008F00004F07EFC0A4B186028B90A4B0A4A2921E9
:100900000A4819F013F900220421012004F036FDF1
:10091000074B186018B9074B034A2D21F0E708BDB3
:100920009401002048AF010891AF0108C0AF010851
:100930009001002001B00108024B4FF0FF31186810
:1009400004F0ACBC94010020014B186804F0E0BC3A
:1009500094010020024B0021186804F09FBC00BFE6
:1009600094010020FFF7F0BF03480449006800230A
:100970001A4604F049BD00BF900100200400002089
:1009800013B5084C00231A4601A9206804F07EFD27
:1009900020684FF0FF33002201A904F077FD02B078
:1009A00010BD00BF9001002003685B6C1847012058
:1009B000704703689B6A184782B0002301930D4B70
:1009C0001A6B42F400021A631A6B02F400020192DD
:1009D000019A1A6942F400021A611A6922F40002AB
:1009E0001A61054B054A1A61054B4FF080629A6007
:1009F00002B07047003802406C220020450A00080F
:100A000000E100E040F2EF3070470000054B03606A
:100A1000054B4FF08062C3F88820BFF34F8FBFF3C0
:100A20006F8F704794B1010800E100E010B50446F3
:100A30004FF45A61FFF7EAFF204619F048F82046C4
:100A400010BD0000024B1B68586803685B691847BB
:100A50004C32012070B5044625460A4B0C30002666
:100A600060602672667245F8203B6022294607F0D6
:100A700013FE04F55A63EE602435AB42FBD12046E9
:100A800070BD00BF94B1010808B50B290BD8DFE891
:100A900001F01206100A0A0A0A08080808080120CC
:100AA00008BD0520FCE7054B054A0648672119F0FB
:100AB0003DF80020F4E70220F2E700BF43B0010850
:100AC0005EB00108A8B0010808B50A2909D8DFE816
:100AD00001F010060E0808080806060606000120A8
:100AE00008BD054B054A0648882119F01FF800206B
:100AF000F6E70220F4E700BF43B00108E7B00108C1
:100B0000A8B001082DE9F8434F7F0C4639468146CD
:100B1000FFF7BAFF94F81E80054641464846FFF7A6
:100B2000B3FF414606464846FFF7CEFFA18A628BD7
:100B3000424B521A1A649A61228B521A1A61E28A43
:100B4000586342EA01425A6420696268D863DA60F5
:100B5000216894F81CC080294FEA0C6226D010D876
:100B6000202945EA020461D040295FD004295DD0E4
:100B7000324B2A4342F400324745DA615AD0304AB8
:100B800040E0B1F5807F07D0B1F5007FF0D142F4AD
:100B9000003242F0090203E042F4003242F00A025D
:100BA000DA61E2681A625E6258612AE0A4682A4348
:100BB00042F40032211DD962DA6122785E62586106
:100BC00042B1012A21D01F4B1F4A20484FF489719E
:100BD00018F0ACFFDA69618822F47F42013922F013
:100BE000100242EA0122DA610120144BDA6942F074
:100BF0002002DA61DA699206FCD410229A60002899
:100C0000BDD0134A1A60BDE8F8836288D969541EC2
:100C100021F47F4222F0100242EA0422BCF1FF00DC
:100C200042F0100218BF0120DA61DEE744F400341C
:100C3000DC61B8E740F20122E4E700BF00B0024007
:100C40000102010032B101084CB10108A8B001084D
:100C50000102020070B50C46897FFFF735FFA68AB6
:100C6000E18A628B154B2569586341EA0641921B64
:100C70005964DD631A642668E168082E0DD19A6113
:100C80001A615862207F0E4A42EA0062DA610D4A18
:100C900019625D61DD601A6070BD0022D8611A6161
:100CA00048090A0A02F4784200F4FC600243C1F3E6
:100CB000C4010A439A63044AEDE700BF00B0024052
:100CC000090001000102020001020300034B1A683F
:100CD000D207FCD423229A60704700BF00B00240C4
:100CE00030B50F4C2568ED07FCD423250904A56019
:100CF00041F001010225FF2B65636164E0630AD0C6
:100D00000849656241EA0363E361074B226260615F
:100D1000E060236030BDE561039BA363034BF8E70C
:100D200000B00240090001000100020001000300C0
:100D3000012070470C2070470C2303FB0100083092
:100D400070470C2303FB01000830704701207047F7
:100D500041F27800704741F2780303FB010008304C
:100D6000704741F2780303FB01000830704701200F
:100D700070471020704700EB01100830704700EBFF
:100D8000011008307047084601F01CB910B5034B3C
:100D90000360044606F0DDFA204610BD4CB201089F
:100DA00010B50446FFF7F2FF2046142118F08FFE1D
:100DB000204610BD10B5034B0360044606F0C9FA87
:100DC000204610BD18B2010810B50446FFF7F2FF27
:100DD00020464FF4845118F07AFE204610BD0000E2
:100DE00010B5034B0360044606F0B3FA204610BD6D
:100DF000E4B1010810B50446FFF7F2FF20461821C0
:100E000018F065FE204610BD10B5094B036004467E
:100E100000F585500C30FFF7B9FF04F12C00FFF707
:100E2000C9FF04F11400FFF7DBFF204610BD00BF2F
:100E300080B2010808B50248FFF7E6FF08BD00BF11
:100E40009C01002010B50446FFF7DEFF204641F26A
:100E50001C2118F03CFE204610BD00002DE9F34196
:100E600000F044FF054600F045FF002401462346FC
:100E70002846224600940CF06BFC264B264A274D50
:100E80001A60204601F056FC25480CF0C9FB2B786F
:100E9000BFF35B8FDB0737D4284618F01AFE98B3F0
:100EA000204C214B236004F12C0808F5845707F1EE
:100EB000180604F114006060C4F80880E760266139
:100EC00006F048FA194B6361404606F043FA184BA6
:100ED000E362384606F03EFA04F58053154AC3F83B
:100EE000AC2004F5865001F091FC224604F58651B1
:100EF000304601F081FC304601F064F80E4818F0ED
:100F000033FE284618F0F1FD0C4802B0BDE8F04170
:100F1000FFF73DBCB0320120D8210020980100200D
:100F2000080000209C01002080B20108E4B1010803
:100F300018B201084CB20108350E00085C210020EF
:100F40000148FFF726BC00BF5C21002070B5234C90
:100F5000234E244B244D23603046FFF77BFD28466B
:100F60000FF000FD214B2248DC60224C0360002280
:100F7000F0204FF480712080C3E912121E4C1F49EB
:100F80002080C3E919121E4C1A864FF080714FF46D
:100F9000A07059670121C3E90422C3E90622C3E90D
:100FA0000822C3E90A22C3E90E22C3E91022C3E9D9
:100FB0001422C3E916221A6683F86C201A67C3E963
:100FC000016583F8781020800E4C83F8341020805F
:100FD0000D4802700D4A1A6070BD00BFB8130020A2
:100FE000BC130020ECAC0108DC2100205C210020B7
:100FF0004C32012040320120463201200100000124
:1010000042320120483201204432012078AE0108EA
:101010000148FFF7FBBC00BFBC130020034B90222C
:1010200083F85A2383F85823704700BF00E100E09B
:10103000094A0A49D3680A48C3F30A03013B9BB231
:101040000B801169C1F30A01013901801364536BEC
:1010500043F00103536370470068014058220020A9
:1010600056220020014BD3F8AC00704700680140C5
:10107000024B0122C3F8AC105A627047006801406D
:1010800070B5044606F06FFC23685D6E09F000FF42
:1010900001462046A8472368054AD3F888502046D1
:1010A000AC460023BDE87040A2F51631604700BF92
:1010B000005802D006F03EBC90F84B3013B1024B02
:1010C00001221A7006F042BC5422002006F0FCBB3C
:1010D00006F055BD034B4FF080629A604FF080726E
:1010E0009A60704700E100E0084B4FF08062C3F85F
:1010F0008820BFF34F8FBFF36F8F4FF08072C3F81C
:101100008820BFF34F8FBFF36F8F704700E100E07F
:1011100010B5144C236823B3134B144A1B6C11886D
:101120008B4213D1124B198802F0B8FE226892F854
:101130006630013382F86630FFF716FC206807F04E
:1011400055F9BDE810400020FFF7FABA02F0A6FEFC
:10115000206803681B6A9847BDE810400020FFF72D
:10116000F0BA10BD4C320120006801405822002026
:101170005622002007B5064BADF806001B6805484F
:1011800001220DF1060103F08AFB03B05DF804FBB8
:1011900010000020DC230020F0B5A1B010220021B7
:1011A0000AA818F04FFD1422002103A818F04AFDE8
:1011B0000021302214A818F045FD0024224B019490
:1011C0001A6C42F080521A641B6C03F08053019336
:1011D000019B1E4B02941A6842F440421A601B683D
:1011E00003F4404302930122029B4FF48033CDE984
:1011F000082302254FF48003CDE90E5308274FF44E
:10120000A873042608A8CDE910731295139602F06E
:1012100063FE0F23CDE903354FF4A0514FF4805303
:10122000CDE9061303A80521059403F02DF8C0238A
:10123000189314A84FF4003314971A961D9303F0D3
:10124000EDF821B0F0BD00BF003802400070004052
:1012500080B59AB001F0BEFDFFF79EFF1422002179
:101260000DA8002418F0EEFCB44B00941A6BB4489F
:10127000B44D42F020021A631A6B02F02002009271
:10128000009A01941A6B42F080021A631A6B02F002
:1012900080020192019A02941A6B42F004021A63CE
:1012A0001A6B02F004020292029A03941A6B42F043
:1012B00001021A631A6B02F001020392039A04946A
:1012C0001A6B42F002021A631A6B02F002020492D5
:1012D000049A05941A6B42F040021A631A6B02F0EA
:1012E00040020592059A06941A6B42F010021A63A6
:1012F0001A6B02F010020692069A07941A6B42F0DB
:1013000008021A631B6B03F00803079322460421AB
:10131000079B01F0E5FF22468B484FF4405101F056
:10132000DFFF012602274FF0040885480F940DA91E
:10133000CDE90D86109701F0EBFE0DA94FF4405357
:101340008148CDE90D36CDE90F4701F0E1FE7F4838
:101350007F4B036001F0D0FD7E4A7F4B2C62C5E9D4
:10136000002328464FF48043C5E90434C5E902440C
:10137000C5E9064402F096F91021284602F0D2FB96
:101380002146284602F0EDFB7448754984624FF40B
:101390008273C0E900134FF400751823C0E90653A7
:1013A0000A23704DC362C0E90244C0E90444C0E9A5
:1013B000084403F037FA6C4B0D974FF0100CC5E959
:1013C00000364023C5E904C34FF4C073C5E90634B1
:1013D0004FF40063C5E908344FF40053AB624FF09B
:1013E000030A07230DA92846CDE90E3810934FF0C4
:1013F0000809C5E90248CDE911A7139703F038F9A8
:101400004FF6FF7209A92846CDE90A960894099675
:101410000C9403F04DF9304601F008FD4FF6FF72D1
:1014200009A92846CDE90979CDE90B6403F040F913
:101430004FF6FF7209A92846CDE909A9CDE90B8429
:1014400003F036F94FF40C730893089B0C934FF696
:10145000FF7209A92846CDE909890B9603F028F9FE
:1014600040F26A51284603F03AF9342221460DEB46
:10147000020018F0E7FB3D4D3D4BAC86C5E900345A
:101480000923C5E905361D2340F20D1EC5E9073ABB
:1014900040F24313C5E909E3284640F2471340F2FE
:1014A0001718C5E90B83C5E902442C6185F836405D
:1014B00002F0FCFBFF21F022CDE912144FF4806909
:1014C00005214FF4A073CDE90E24CDE91491CDE9A7
:1014D00016420DA922462846CDE91037254D18930E
:1014E0000D94ADF864408DF8664002F0AAFC224BE2
:1014F0002B601B6898472B68204DDB689847204B72
:10150000C5E90A47C5E90C442846C5E90034C5E9E0
:10151000027401F001FD3146284601F0B5FDFFF7E8
:1015200062F803F0D5FD174A1748214603F00AFE7A
:10153000164B186003F0E6FDFEE700BF00380240DE
:1015400000080240AC220020000C0240642200206F
:1015500000300240005C0040A0860100DC23002037
:1015600000500140A8230020400100A000230020DB
:101570000068014060220020140000206C2200203E
:1015800000B0024098B20108EB0500085C22002080
:10159000704770477FB5094B8DF817201B68029381
:1015A0000DF117020123009201930A4601460448F7
:1015B00002F020F907B05DF804FB00BF0C0000202A
:1015C000AC2200207FB500238DF81730084B1B6834
:1015D00002930A4601230DF1170100910193014680
:1015E000044802F097F99DF8170007B05DF804FB76
:1015F0000C000020AC2200201FB5084C246800928B
:10160000CDE901340A4601230146054802F082F97A
:10161000003818BF012004B010BD00BF0C0000202E
:10162000AC22002001F002BC08B5064800220421CB
:1016300001F056FEBDE8084002480122042101F0F5
:101640004FBE00BF0008024038B50B4D04460122D2
:101650000A484FF4005101F043FE002204212846BD
:1016600001F03EFE2046FFF785FD28460122BDE839
:101670003840042101F034BE00080240000C024052
:1016800038B50B4D044600220A484FF4005101F0D2
:1016900027FE00220421284601F022FE2046FFF703
:1016A00069FD28460122BDE83840042101F018BE3A
:1016B00000080240000C0240F7B5144E144F0546D6
:1016C0000C4630460022042101F00AFE00224FF4AD
:1016D0000051384601F004FE2846FFF74BFD0D4B44
:1016E0000D481B68224601A903F077FA384601220B
:1016F0004FF40051019C01F0F3FD3046012204211A
:1017000001F0EEFD204603B0F0BD00BF000802402E
:10171000000C024010000020DC23002001F086BBFA
:101720000268034B9A4201D101F06EBB704700BFC3
:101730000010004082B00E4B00220092596C41F420
:1017400080415964596C01F48041009100990192E3
:10175000196C41F0805119641B6C03F080530193A4
:10176000019B0F216FF0010002B001F085BB00BFAB
:10177000003802400268094B9A4282B00BD1002324
:101780000193074B1A6B42F480521A631B6B03F4EC
:1017900080530193019B02B0704700BF00300240AC
:1017A0000038024007B50F4B02689A4216D100225A
:1017B000A3F5F0430192196B41F4000119631B6B0F
:1017C00003F40003019305215A20019B01F054FB0F
:1017D0005A2003B05DF804EB01F080BB03B05DF864
:1017E00004FB00BF00B002402DE9F043044689B07D
:1017F0001422002103A818F025FA2268244B9A42EB
:1018000043D1244C244800250095236B43F0040366
:101810002363236B03F004030093009B0195236B68
:1018200043F001032363236B03F001030193019B46
:101830004FF012094FF400734FF0010803270426FC
:1018400003A9CDE90339CDE90587079601F060FCCE
:101850004FF480731148079603A9CDE90339CDE908
:10186000058701F055FC0295236C43F400032364C3
:10187000236C03F400030293029B236A43F40003E6
:101880002362236A23F40003236209B0BDE8F083D6
:10189000005C0040003802400008024000000240A6
:1018A000F0B504468DB01422002107A818F0CAF93B
:1018B0002268574B9A4240F0A88003F55043002518
:1018C00000955A6C534842F080625A645A6C02F098
:1018D00080620092009A01951A6B42F020021A630E
:1018E0001A6B02F020020192019A02951A6B42F0E3
:1018F00001021A631A6B02F001020292029A039526
:101900001A6B42F002021A631A6B02F0020203928F
:10191000039A04951A6B42F040021A631A6B02F0A4
:1019200040020492049A05951A6B42F004021A636D
:101930001A6B02F004020592059A06951A6B42F0A2
:1019400008021A631B6B03F00803069302240E2699
:10195000069B0A944FF4806307A9CDE907340B96E0
:1019600001F0D6FB41F658032B480B9607A9CDE9A9
:1019700007340927CDE9095401F0CAFB032327489E
:101980000B9707A9CDE90734CDE9095401F0C0FB55
:101990004FF4706321480B9607A9CDE90734CDE9D0
:1019A000095401F0B5FB4FF40C631D480B9607A9D1
:1019B000CDE90734CDE9095401F0AAFBC023194849
:1019C0000B9607A9CDE90734CDE9095401F0A0FB36
:1019D000082315480B9607A9CDE90734CDE909542A
:1019E00001F096FB4FF4A0530D480B9707A9CDE9E2
:1019F0000734CDE9095401F08BFB58202A46052114
:101A000001F03AFA582001F069FA0DB0F0BD00BFBC
:101A1000006801400014024000000240000402403F
:101A20000018024000080240000C024010B50446B5
:101A300088B01422002103A818F004F92268144B7E
:101A40009A4223D103F56843002101915A6C114851
:101A500042F480125A645A6C02F480120192019A84
:101A600002911A6B42F020021A631B6B03F02003F1
:101A70000293029B4FF4607202230321CDE90323FA
:101A80000523CDE9061303A901F042FB08B010BD00
:101A900000500140001402402DE9F04186B00023BF
:101AA00003932B4B1C68002C4FD14FF00108C3F857
:101AB0000080284B00949A6B274842EA08029A63F8
:101AC0009B6B03EA08030093022703260C25009B67
:101AD00001A94FF63F03CDE90137CDE9046501F0D7
:101AE00017FB1E48059501A9CDE90187CDE90346FD
:101AF00001F00EFB48F233131948059501A9CDE911
:101B00000137CDE9034601F003FB4FF68373154817
:101B1000059501A9CDE90137CDE9034601F0F8FAB1
:101B20004CF203731048059501A9CDE90137CDE9C1
:101B3000034601F0EDFA60230C48059501A9CDE9B3
:101B40000137CDE9034601F0E3FA06B0BDE8F081C4
:101B500034240020003802400014024000080240F3
:101B60000018024000100240000C02400004024035
:101B700030B5014689B00022362001F07DF93620CB
:101B800001F0ACF90025154B02951A6C144C42F08B
:101B900010021A641B6C03F01003029301A903A83E
:101BA000029B02F01DFC02F00BFC0E4B236040F286
:101BB000E733E36040000C4BB0FBF3F001386060AA
:101BC00020462561A56003F0C7F920B9204603F03F
:101BD000A7F809B030BD0120FBE700BF0038024084
:101BE000382400200010004040420F007047FEE7FC
:101BF000FEE7FEE7FEE77047014803F0A5B800BF27
:101C000038240020014802F0BFB800BF00230020A4
:101C1000014801F0AFB900BF6C22002001207047DD
:101C200008B517F0B5FF162303604FF0FF3008BD6D
:101C300008B517F0ADFF16230360FEE770B50D463B
:101C400014460E46731B9C4201DC204670BDAFF368
:101C5000008006F8010BF5E770B50D4614460E46F8
:101C6000731B9C4201DC204670BD16F8010BAFF3DC
:101C70000080F5E74FF0FF3070474FF400534B60A2
:101C80000020704701207047002070470A4A116801
:101C900008B5034609B9094911601068694603444B
:101CA0008B4206D917F074FF0C2303604FF0FF300E
:101CB00008BD1360FCE700BF78240020F834012041
:101CC000704710B50421044617F001FF204610BDEF
:101CD00008B519B1012905D0002008BD00F068FD44
:101CE0000068FAE700F064FD4068F6E700487047D6
:101CF000D0B201080120704713B5002451B1036828
:101D000001948DF8034001AA9C680DF10303A047DC
:101D100002B010BD0846FBE74089704780897047D4
:101D20008088704783798088184480B27047C07972
:101D300000F07F007047C079C00970477047704756
:101D400000F596730868496803C370477047704789
:101D50004160704770470000064BC0F848310023CF
:101D6000C0F84C3100F5A073C0F84401C0F83C3114
:101D7000704700BF191E00080123037270477047A7
:101D8000704710B4C26841685410034601EB62000A
:101D9000D20748BF0A599B685DF8044B48BFD35827
:101DA000184743682BB183682BB9C06800F0010065
:101DB0007047184670470120704710B50C21044643
:101DC00017F085FE204610BD10B51021044617F00F
:101DD0007EFE204610BD10B54FF4AC71044617F0DE
:101DE00076FE204610BD08B509F052F8BDE808405F
:101DF00009F008BC10B50446D0F83C0158B103689E
:101E0000DB68984738B1D4F83C0103689B68984771
:101E10000023C4F83C3110BD2DE9F14FD0E9545AEC
:101E20000746A86803681B6A984741F277039842FF
:101E300005D8454B454AA321454817F077FE686809
:101E400003681B6A98470F2803D8424B3F4AA421D6
:101E5000F2E7E86803681B6A98470B2803D83E4BF3
:101E60003A4AA521E8E7DFF8F89009F011F809F0FF
:101E70002BF8D9F8000010B10368DB689847D9F84F
:101E8000000010B103681B689847DFF8D880D8F8C5
:101E9000000010B103685B699847D7F8380110B1AA
:101EA00003685B689847D8F8000010B103681B68A6
:101EB0009847D7F8380110B103689B689847E868DD
:101EC000036800215B6A98474FF0000B234B0360C7
:101ED0000446C0F804B080F808B0A8680368594602
:101EE0005B6A9847064600F0BDFC6868036859467F
:101EF0005B6A98473146054600F09AFCC9F80040F5
:101F0000C7F83851C8F80060E5B12B1DCAF8003099
:101F10003368C5F808A03046DB68F56398472B683E
:101F200028461B689847214630460AF075FC23680E
:101F300020461B69984723685B69204601B0BDE8CD
:101F4000F04F18472B46E1E7E4B2010872B30108ED
:101F50007CB40108C3B4010866B5010878B601086D
:101F6000943201209032012070B504460D46164689
:101F700008F0C4FF0F4A0023C4E954650E4D1460F5
:101F8000C4E952330D4A226028680D4AC4E94E3331
:101F9000C4E95023036801219B6898472B6893F894
:101FA00076200AB1D86C00B9986810F0C2FA2046C1
:101FB00070BD00BFA03201204C3201202CB60108B8
:101FC00014B60108064BC0F848310023C0F84C3164
:101FD00000F5A073C0F84401C0F83C31704700BF61
:101FE000191E0008006A7047406A704770478B8866
:101FF00080690A68DB0A50F823001044704710B566
:10200000C2B1137BB3B1547BD27A240204F4E064EE
:102010001443C26998B202EB840213888B4202D146
:1020200092F9020010BD05D8013880B204320028B0
:10203000F3D1F7E70020F5E710B52821044617F0A3
:1020400046FD204610BD000030B589B00446BDF8FD
:1020500050500695BDF84C5005959DF8405004959C
:102060009DF83C5003959DF8385002959DF83450EA
:1020700001959DF83050009509F064FF064B2360F0
:10208000119BA361129BE361159B2362169B636204
:10209000204609B030BD00BF9CB601080020704743
:1020A00081807047C18070470181704741817047CE
:1020B0007047704770477047704710B4C488036812
:1020C000121B84885B6D091B12B25DF8044B09B2C8
:1020D00018474FF6FF7383814FF0FF330362136895
:1020E000C361106070477047704770477047704712
:1020F00090F825201AB190F8242002B1186070479A
:10210000002070478B88838001207047704770479C
:102110007047704781857047808D704710B54421A6
:10212000044617F0D4FC204610BD10B541F27801EA
:10213000044617F0CCFC204610BD0B898A89D21AC0
:102140004B89C988591A12B209B209F0CFBE90F86A
:10215000252012B103685B691847704708B590F8ED
:1021600028300BB1FFF7F3FF08BD90F829302DE9B7
:10217000F0410446002B40D0438D858D01339BB246
:10218000AB42438539D35B1B828E866B9DB2038E37
:10219000D21A12B2C38D00212846B047638EE28E58
:1021A000E76BD21A0646E38D12B200212846B847E3
:1021B000628E218E0244314412B209B22046FFF7EA
:1021C0007CFFA38DE18D628D0B449A4215D30023D1
:1021D00084F82930638508F05BFE214608F05EFE36
:1021E000206C50B10368DB68984730B1206C0368FD
:1021F00021469B68BDE8F0411847BDE8F08170B505
:10220000036804461B6B15469847236829462046F9
:102210005B6BBDE87040184770B504461D46BDF9BC
:102220001060FFF7ECFF2368294620469B6B984718
:10223000236831462046DB6BBDE87040184700003C
:10224000094A02604FF4807100228184FF21C0E9B5
:102250000122C0E90322C0E90522C0E9072280F873
:1022600026108262704700BF34BE010870B500239B
:10227000124E8380124B0360336893F87620054634
:102280000AB1D86C00B998680368DB6A984733686C
:10229000B0FA80F4D86C640930B10368DB6A9847FF
:1022A000002808BF44F001042CB9064B064A074831
:1022B0002C2117F03BFC284670BD00BF4C3201209A
:1022C000F0B70108ECB601084AB7010883B7010866
:1022D00010B4C46BB4EB411F4FEA411204D05DF857
:1022E000044BC26306F00CBC5DF8044B7047000061
:1022F0002DE9F04F2DED028B044687B0A146002555
:102300000AF0DEF89A4BE56349F8403B4846FFF790
:1023100097FF04F16C0304F19808184608EE103A90
:10232000DFF85CA2FFF78CFF04F5847B404606F0E3
:10233000C7FB5846FFF79AFF04F58E770AF124038E
:10234000C4F808A1C4F81031C4F81451384606F096
:10235000B7FB04F5C673184604F5D0760293FFF771
:1023600085FF0AF12403C4F88CA1C4F89431C4F8A1
:102370009851304606F0A4FB04F504731846039305
:10238000FFF774FF0AF12403C4F818324FF4807386
:10239000A4F84832774BC4F810A24FF0FF3204F58E
:1023A000097AC4F824324FF0FF33A4F84A2284F8A3
:1023B0004C3205A95046C4E98A55C4E98C55C4E994
:1023C0008E55C4E99055C4F81C52ADF8142006F09F
:1023D000A8FD694BC4F824324FF0010384F8483259
:1023E00004F51A70C4E99455C4E99655C4E99855A2
:1023F00084F84D52A4F84E524FF4616107F092FCFC
:102400004FF4A07300932A4629464846F023FFF76D
:1024100003FF4FF07F43A3664FF4A07318EE100A3A
:1024200000932A462946F023FFF7F6FE534BC4F8E3
:1024300094304FF4A07300932A4629464046F02377
:10244000FFF7EAFE4FF0FF33C4F81431A4F8183157
:10245000C4F8C0B02A464FF4205B40464FF4706188
:1024600006F044FC5A4640464FF4706106F049FCC1
:1024700040460221FFF72CFF4046012106F04CFCAC
:102480004FF4A072009229462A4638466423FFF78B
:10249000C3FE029BC4F844314FF0FF32C4F89821C8
:1024A000A4F89C2138462A464FF4F06106F01EFC41
:1024B0005A4638464FF4F06106F023FC38460221B4
:1024C000FFF706FF3846012106F026FC4FF4A07204
:1024D000009229462A463046F023FFF79DFE039BD3
:1024E000C4F8C8314FF0FF32C4F81C22A4F82022EF
:1024F00030462A464FF4B45106F0F8FB5A463046AF
:102500004FF4B45106F0FDFB30460221FFF7E0FE28
:102510003046012106F000FCDF2250460E21FFF775
:102520006EFE05A95046ADF8145006F0FAFC201DC9
:102530004946029004F022FF18EE101A029804F0A7
:102540001DFF0298414604F019FF0298394604F035
:1025500015FF0298314604F011FF0298514604F02D
:102560000DFF204607B0BDEC028BBDE8F08F00BF29
:1025700084B801089CBE010810B801084F4F4FFFF6
:1025800060BC01087047000030B5154D2C78BFF3D2
:102590005B8F14F001048DB01ED1284617F099FA14
:1025A000D0B13F2307930F4B06930F4B0F491048B1
:1025B00008940122CDE904430423CDE90132CDE999
:1025C00009440A2303940094FFF73EFD094817F0DD
:1025D000CBFA284617F089FA05480DB030BD00BF88
:1025E0007C2400204CC5010854C501082CC50108F5
:1025F00080240020852500087047000030B5154D67
:102600002C78BFF35B8F14F001048DB01ED12846E7
:1026100017F05FFAD0B13F2307930F4B06930F4B90
:102620000F49104808940122CDE904430423CDE961
:102630000132CDE90944282303940094FFF704FDF7
:10264000094817F091FA284617F04FFA05480DB0DF
:1026500030BD00BFA824002050C5010858C501089E
:102660003CC50108AC240020F92500080020704773
:10267000002070470EB403B503AB002153F8042BC0
:10268000019309F091FA02B05DF804EB03B07047D2
:102690000CB407B504AB53F8042B019309F084FA8A
:1026A00003B05DF804EB02B070470000436C10B556
:1026B000044673B3038F2BB9184B194AC02119482C
:1026C00017F034FAC38E00EB43035B8C0BB30AF0B4
:1026D0006CFD238F012B03D8134B144AC521EEE761
:1026E000E28E531C9BB2092B194688BFA3F10A0145
:1026F00004EB410140F63F10498C814209D10A2B7D
:1027000004EB420228BF002304EB4303508C58849F
:1027100051842046BDE810400AF04ABCB0B8010818
:10272000B9B8010864B90108AEB90108BCB901081B
:102730000AF005BC38B518BB124B13481B68134987
:10274000B3B11A689C681A4402605A681A440A6055
:102750001C440F4B00221A8000F02AF8054600F0B6
:1027600025F80C4B1C600C4B1D600C4B188007E0CF
:102770000B4B03600B4B0B600B4B1C68002CE8D120
:1027800038BD00BFD4240020D8240020DC24002041
:10279000E0240020A4320120AC320120A832012024
:1027A00060C501085CC5010868C5010800207047C4
:1027B00000487047E424002010B5FFF71FFF034CCA
:1027C0002060FFF7E1FE606010BD00BFE424002040
:1027D000704710B54FF4AC71044617F078F92046F5
:1027E00010BD10B50446D0F8540100F012F8204690
:1027F000BDE8104008F0FAB910B50446FFF7B4FB85
:10280000014B2360204610BD98BA010800220260E7
:1028100070477047704704387047704710B51021F3
:10282000044617F054F9204610BDA0F10400F5E766
:1028300010B500228260044AC16002F1080420320F
:102840000460426010BD00BFDCBA010870477047E9
:10285000FFF75EBC10B541F27801044617F037F976
:10286000204610BD10B50446FFF742FD014B236022
:10287000204610BD0CBB0108F02070474FF4A0703B
:1028800070472920FEF7FCBE2820FEF7F9BE08B5E8
:10289000FEF7CAFECA20FEF7F3FEC320FEF7D4FE01
:1028A0000820FEF7D1FE5020FEF7CEFECF20FEF727
:1028B000E7FE0020FEF7C8FEC120FEF7C5FE30206F
:1028C000FEF7C2FEED20FEF7DBFE6420FEF7BCFE45
:1028D0000320FEF7B9FE1220FEF7B6FE8120FEF7B8
:1028E000B3FEE820FEF7CCFE8520FEF7ADFE00200B
:1028F000FEF7AAFE7820FEF7A7FECB20FEF7C0FE6B
:102900003920FEF7A1FE2C20FEF79EFE0020FEF7E8
:102910009BFE3420FEF798FE0220FEF795FEF7207E
:10292000FEF7AEFE2020FEF78FFEEA20FEF7A8FE9F
:102930000020FEF789FE0020FEF786FEB120FEF79C
:102940009FFE0020FEF780FE1B20FEF77DFEB620D6
:10295000FEF796FE0A20FEF777FEA220FEF774FE31
:10296000C020FEF78DFE1020FEF76EFEC120FEF7A0
:1029700087FE1020FEF768FEC520FEF781FE452089
:10298000FEF762FE1520FEF75FFEC720FEF778FE19
:102990009020FEF759FE3620FEF772FEC820FEF7A3
:1029A00053FEF220FEF76CFE0020FEF74DFEB02035
:1029B000FEF766FEC220FEF747FEB620FEF760FE79
:1029C0000A20FEF741FEA720FEF73EFE2720FEF775
:1029D0003BFE0420FEF738FE2A20FEF751FE0020C1
:1029E000FEF732FE0020FEF72FFE0020FEF72CFE41
:1029F000EF20FEF729FE2B20FEF742FE0020FEF717
:102A000023FE0020FEF720FE0120FEF71DFE3F20E2
:102A1000FEF71AFEF620FEF733FE0120FEF714FE45
:102A20000020FEF711FE0620FEF70EFE2C20FEF71A
:102A300027FEC820FEF772FE2620FEF721FE0120A9
:102A4000FEF702FEE020FEF71BFE0F20FEF7FCFD66
:102A50002920FEF7F9FD2420FEF7F6FD0C20FEF7F5
:102A6000F3FD0E20FEF7F0FD0920FEF7EDFD4E20F0
:102A7000FEF7EAFD7820FEF7E7FD3C20FEF7E4FDD7
:102A80000920FEF7E1FD1320FEF7DEFD0520FEF72D
:102A9000DBFD1720FEF7D8FD1120FEF7D5FD002045
:102AA000FEF7D2FDE120FEF7EBFD0020FEF7CCFDA6
:102AB0001620FEF7C9FD1B20FEF7C6FD0420FEF719
:102AC000C3FD1120FEF7C0FD0720FEF7BDFD31203C
:102AD000FEF7BAFD3320FEF7B7FD4220FEF7B4FD46
:102AE0000520FEF7B1FD0C20FEF7AEFD0A20FEF733
:102AF000ABFD2820FEF7A8FD2F20FEF7A5FD0F2037
:102B0000FEF7A2FD1120FEF7BBFDC820FEF706FE72
:102B10002920FEF7B5FDBDE808402C20FEF7B0BD2A
:102B200008B5FEF781FD0321D320FEF7C5FD80B275
:102B300008BD10B5C4B2022203212046FEF72AFDCB
:102B40000A20FEF76FFD204600220321FEF722FD3A
:102B5000BDE810400220FEF765BD38B50446E4B27A
:102B6000FEF716FD00212046FEF72CFD012105464B
:102B70002046FEF727FD40EA052080B238BD10B59B
:102B8000C4B240212046FEF71DFD030607D54C21A7
:102B90002046FEF717FD003818BF012010BD0122A6
:102BA0004B212046FEF7F6FC204600224B21FEF783
:102BB000F1FC0020F2E773B50423C4B20E461546BB
:102BC000D7210DEB03022046FEF716FD019B1BBA31
:102BD0001A0DC3F30B23328020462B8001224B2198
:102BE000FEF7D8FC00224B212046FEF7D3FC02B0B2
:102BF00070BD000010B50A4B1A78904204460DD003
:102C0000597888420AD00AB141B901229C54FEF792
:102C1000BFFC2046BDE81040FFF78BBF10BD00BFD2
:102C2000EC24002010B5C4B209212046FEF7CAFCEE
:102C300040F00100C2B209212046BDE81040FEF775
:102C4000A9BC10B5C4B209212046FEF7BBFC09217E
:102C500000F0FE022046BDE81040FEF79BBC38B5F0
:102C6000C4B20D4620460A21FEF7ACFC2843C2B28E
:102C70000A212046BDE83840FEF78CBC07B501901C
:102C8000FEF787FC01981F21FFF7E9FF019803B0C9
:102C90005DF804EBFFF7C6BF38B5C4B20D46204659
:102CA0000A21FEF78FFC20EA0500C2B20A21204665
:102CB000BDE83840FEF76EBC10B50446FFF7C1FF13
:102CC00020461F21BDE81040FFF7E6BF10B5C0B297
:102CD0000C460B21FEF776FC204010BD1F21FFF7AC
:102CE000F5BF0A46C0B20B21FEF754BC1F21FFF707
:102CF000F8BF38B5C4B20D4620461721FEF762FC76
:102D000020EA0500C2B217212046BDE83840FEF790
:102D100041BC70B5C4B2064604212046FEF752FC01
:102D2000042100F0FB0205462046FEF733FC304646
:102D3000F021FFF7DEFF05F0F80220460421FEF740
:102D400029FC492220212046FEF724FC0220FEF720
:102D500069FC204601222121FEF71CFC20469A2214
:102D60004121FEF717FC204601224A21FEF712FC02
:102D7000204601224B21FEF70DFC204600224B216C
:102D8000FEF708FC204601225621FEF703FC2046F0
:102D900001225821FEF7FEFB204601224021FEF7CA
:102DA000F9FB2046FF220B21FEF7F4FBBDE8704043
:102DB0000220FEF737BC0000054BD3F8882042F410
:102DC0007002C3F888204FF000629A60704700BF1D
:102DD00000ED00E008B50B4B1A6842F400721A606F
:102DE0001A6842F480621A601A6842F480721A60AB
:102DF000032000F02FF80020FEF7BAFEFEF79AFC41
:102E0000002008BD003C0240034A044B11681B78B7
:102E10000B441360704700BFF024002078000020AE
:102E2000014B1868704700BFF024002038B50446F5
:102E3000FFF7F6FF631C1CBF054B1B78054618BF48
:102E4000E418FFF7EDFF431BA342FAD338BD00BFE0
:102E5000780000200749CA6822F4E06203021204E5
:102E600003F4E063120C134343F0BF6343F40033F5
:102E7000CB60704700ED00E0164B30B5DC68C4F362
:102E80000224C4F10705231D042D28BF0425062BA9
:102E90004FF0FF338CBF033C002403FA05F521EA11
:102EA0000501A34022EA0302A140002841EA0203EF
:102EB000ACBF00F16040084A4FEA0313B8BF00F00E
:102EC0000F00DBB2AABF00F56140135480F8003355
:102ED00030BD00BF00ED00E014ED00E0002808DB8D
:102EE0004209012300F01F0003FA00F0014B43F8F0
:102EF0002200704700E100E010B5044650B143796C
:102F000003F0FF0213B90271FEF734FC0123637171
:102F1000002010BD0120FCE710B5044630B390F846
:102F2000393003F0FF021BB980F83820FEF73AFC75
:102F300022686168022384F83930136823F440332F
:102F40000B431360536BA16823F007030B435363D8
:102F5000136CE16823F47F5323F03F030B431364A6
:102F600000200123E06384F8393010BD0120FCE724
:102F700070477047036870B55E681D68F2070446C5
:102F800014D5E90512D51A6822F480721A60C26B52
:102F900042F00102C26301229A60042380F83930B2
:102FA000002380F83830436903B19847B20616D53C
:102FB000AB0414D523681A6822F400521A60202248
:102FC0009A60E36B43F00203E363042384F839302F
:102FD000002384F8383063690BB1204698473007E6
:102FE00016D5290514D523681A6822F400621A60E0
:102FF00008229A60E36B43F00403E363042384F83C
:103000003930002384F8383063690BB12046984783
:1030100072070BD56B0509D523681A6822F4806204
:103020001A6004229A602046FFF7A2FFB00714D569
:10303000A90512D523681A6822F400721A600222C8
:103040009A60E36BE363012384F83930002384F84A
:10305000383023690BB120469847F20613D5EB04AC
:1030600011D523681A6822F480521A6010229A60DF
:10307000E36BE363012384F83930002384F83830AC
:103080002046FFF776FF70BDF0B590F83830012B81
:103090004FF002032BD0012280F8393080F838201D
:1030A00000EB0113D3E907425D6A184F44EA02427C
:1030B000093C012C9CBF05F07F431A434FEA0116DF
:1030C000036888BF42EA056299B9596A39400A43E0
:1030D0005A62012C82699A6103D8426A22F07F42C7
:1030E0009A62012380F83930002380F8383018467E
:1030F000F0BDD96939400A43DA618219012C92691D
:103100001A619CBF25F07F451D62EAE7F0FFFC00D5
:103110002DE9F74FDFF8C0816D4ADFF8C091002339
:103120000D6801249C4004EA0506AC4340F0B780DA
:103130004C6824F0100C4FEA430E03250CF1FF37C6
:1031400005FA0EF5012F6FEA050511D8876807EA21
:10315000050ACF6807FA0EF747EA0A07876047684B
:1031600027EA060AC4F300179F4047EA0A074760A8
:10317000C76807EA050A8F6807FA0EF747EA0A07E1
:10318000BCF1020FC76016D14FEAD30A00EB8A0ADE
:1031900003F0070BDAF820704FEA8B0B4FF00F0C9F
:1031A0000CFA0BFC27EA0C0C0F6907FA0BF747EA3D
:1031B0000C07CAF8207007683D4004F0030707FABF
:1031C0000EF73D430560E50069D54FF0000BCDF8E3
:1031D00004B0D8F844703F4D47F48047C8F84470B5
:1031E000D8F8447007F480470197019F23F0030744
:1031F00007F1804707F59C3703F0030ED7F808A0C6
:103200004FEA8E0E4FF00F0C0CFA0EFCA8422AEA81
:103210000C0C4BD005F58065A84249D005F58065BA
:10322000A84247D005F58065A84245D005F58065E0
:10323000A84243D0484543D005F50065A84241D097
:1032400005F58065A8423FD005F58065A8423DD0D0
:1032500005F58065A8420CBF09250A2505FA0EF57B
:1032600045EA0C05BD601568F74314F4803F0CBFB8
:103270003D4035431560556814F4003F0CBF3D4098
:1032800035435560956814F4801F0CBF3D403543AD
:103290009560D568A40254BF3D403543D5600133E5
:1032A000102B7FF43DAF03B0BDE8F08F5D46D5E74E
:1032B0000125D3E70225D1E70325CFE70425CDE794
:1032C0000525CBE70625C9E70725C7E70825C5E794
:1032D000003C01400000024000380240001402405F
:1032E0000AB1816170470904FBE701684B6913F477
:1032F00080634FF0000210D06FF480634B61202395
:10330000026380F83D3080F83E20036C80F83C205A
:1033100043F00403036401207047184670472DE909
:10332000F84606460F4691461D464FEA114A336855
:10333000BAF1010F0CBF5C699C6927EA0404A4B2CE
:10334000B4FA84F46409A14501D0002017E06A1C96
:10335000EED0FFF765FD089BC01AA84201D8002DEA
:10336000E5D100232022336386F83D2086F83E30E5
:10337000326C86F83C3042F0200232640120BDE815
:10338000F8862DE9F04104460F4616469846256812
:10339000686927EA000080B2B8B16B695A0516D592
:1033A0002B6843F400732B606FF480636B61202201
:1033B0000023236384F83D2084F83E30226C42F0E1
:1033C0000402226484F83C300120BDE8F081731CC3
:1033D000DED0FFF725FDA0EB0800B04201D8002E9B
:1033E000D5D100232022236384F83D2084F83E3089
:1033F000226C42F02002E4E770B504460D46164602
:1034000021684B6913F0400301D0002010E04A69A5
:10341000D2060ED56FF010024A612022236384F891
:103420003D2084F83E30226C226484F83C30012038
:1034300070BDFFF7F5FC801BA84201D8002DDFD13D
:1034400000232022236384F83D2084F83E30226C40
:1034500042F02002E8E770B504460D4616462368A0
:103460005B695B0701D5002070BD2046FFF73DFF7B
:10347000A8B96A1CF3D0FFF7D3FC801BA84201D87F
:10348000002DECD100232022236384F83D2084F812
:103490003E30226C84F83C3042F02002226401204D
:1034A000E2E770B504460D46164623685B691B06C5
:1034B00001D5002070BD2046FFF717FFA8B96A1C90
:1034C000F3D0FFF7ADFC801BA84201D8002DECD152
:1034D00000232022236384F83D2084F83E30226CB0
:1034E00084F83C3042F0200222640120E2E7000030
:1034F0002DE9F0431546026885B0DDE90C78994660
:10350000136843F4807313600E463B46CDF8008089
:1035100000224FF001110446FFF701FF236838B184
:103520001B68DB0502D54FF40073236403200AE017
:1035300006F0FE061E61194943463A462046FFF74B
:1035400020FF18B1012005B0BDE8F0832368039087
:103550005A6903929B690393424639462046039B6E
:10356000FFF79FFF40B1236C042B01BF2268136853
:1035700043F400731360E5E7B9F1010F236802D14A
:10358000EDB21D61DFE72A0A1A613946424620463C
:10359000FFF787FF0028E6D12368F1E7020001006A
:1035A0002DE9FF479A46036815461A6842F480627F
:1035B0001A601A68DDE90C7842F480721A600E46CF
:1035C0003B46CDF8008000224FF001110446FFF782
:1035D000A6FE236848B11B68DB0502D54FF40073D3
:1035E0002364032004B0BDE8F0875FFA86F906F093
:1035F000FE061E612A4943463A462046FFF7C1FEB1
:1036000008B10120EEE7236803905A6903929B6991
:103610000393424639462046039BFFF742FF40B1E1
:10362000236C042B01BF2268136843F400731360FA
:10363000E7E7BAF1010F23681AD1EDB21D614246E6
:1036400039462046FFF72DFF0028E9D1226813688C
:1036500043F4807313604FF001110246CDF80080EF
:103660003B462046FFF75BFE226860B11368B3E774
:103670002A0A1A61394642462046FFF712FF0028FF
:10368000CED12368D9E749F00103136104494346C9
:103690003A462046FFF775FE003818BF0120A1E723
:1036A0000200010070B5044608B9012070BD90F811
:1036B0003D3003F0FF021BB980F83C20FEF794F880
:1036C000242384F83D3023681A6822F001021A602E
:1036D0001A6842F400421A601A6822F400421A6022
:1036E00000F06EFE3F4B65689D4294BF3E4B3F4BE2
:1036F00098428CBF00230123002BD6D12268394E7B
:1037000053683B49B0FBF1F123F03F030B43B54253
:10371000536088BF4FF49676136A88BF714323F0D5
:103720003F0384BF4FF47A76B1FBF6F101311943C0
:103730001162D169431E2B4821F44F41854221F08B
:10374000FF0132D86D0040F6FC70B3FBF5F3013396
:10375000034242D0C3F30B030B43D361D4E90730D8
:103760001168034321F0C0010B4313609168D4E951
:10377000030321F40341034321F0FF010B43936052
:10378000D4E90530D168034321F0FF010B43D36036
:10379000136843F00103136000202023206484F8A1
:1037A0003D30206384F83E0080E7A06850B905EB07
:1037B0004505B3FBF5F30133C3F30B037BB143F4CE
:1037C0000043C9E719204543B3FBF5F30133C3F3C5
:1037D0000B0323B143F44043BEE70423BCE70123BA
:1037E000BAE700BFA08601007F841E00FF083D00ED
:1037F00040420F002DE9F743044699460C9E0F46C0
:103800009046FFF70DFB94F83D30202B054603D082
:10381000022003B0BDE8F08300903C491923012247
:103820002046FFF77CFD0028F2D194F83C30012BB4
:10383000EED02068012384F83C300368D9075EBFCE
:10384000036843F001030360036823F4006303602B
:10385000212384F83D30402384F83E300023236444
:103860000A9B6362BDF82C306385638D2385284BEA
:10387000E362CDE900654B46424639462046FFF7F4
:1038800037FE00282AD00120C3E7FFF70AFE40B127
:10389000236C042B01BF2268136843F40073136088
:1038A000F1E7636A27681A4612F8011B3961626200
:1038B000628D218D013A92B262857A69481E80B28A
:1038C000520720850AD548B15A783A6102336362BB
:1038D000638D013B02399BB221856385238D2A4686
:1038E00031462046002BD0D1FFF7B5FD0028CFD1BF
:1038F0002268136843F400731360202384F83D307A
:1039000084F83C0084F83E0083E700BF020010000A
:103910000000FFFF2DE9F043044687B09946109F51
:103920000D469046FFF77CFA94F83D30202B064672
:1039300004D00225284607B0BDE8F0830090764900
:10394000192301222046FFF7EAFC0028F1D194F860
:103950003C30012BEDD02068012384F83C30036813
:10396000DB075EBF036843F001030360036823F4D1
:1039700000630360222384F83D30402384F83E3006
:10398000002323640E9B6362BDF83C306385638D26
:103990002385624BE3622946CDE900764B464246D9
:1039A0002046FFF7FDFD054608B10125C2E7228D3F
:1039B0002368B2B902905A6902929A690292029AF5
:1039C0001A6842F400721A60DFF85481238D002BCC
:1039D0002CD1202284F83D2084F83C3084F83E30FD
:1039E000A8E7012A0AD11A6822F480621A600390BB
:1039F0005A6903929A690392039AE1E7022A0ED167
:103A00001A6822F480621A601A6842F400621A602E
:103A100004905A6904929B690493049BD4E705902F
:103A20005A6905929B690593059BCDE7032B56D8F0
:103A3000012B15D1324639462046FFF7DDFC002820
:103A4000B3D123681A69636A1A70636A01336362C7
:103A5000238D013B2385638D013B9BB26385B5E7D5
:103A6000022B00963B464FF000024146204619D1FA
:103A7000FFF755FC002898D123681A6842F40072B9
:103A80001A601A69636A1A70626A531C6362238D32
:103A9000013B2385638D013B9BB2638523681B69D2
:103AA0005370D2E7FFF73BFC00287FF47EAF23681A
:103AB0001A6822F480621A601A69636A1A70636A6B
:103AC000009601336362238D013B2385638D013BA7
:103AD0009BB2638502463B4641462046C8E73246D4
:103AE00039462046FFF788FC00287FF45EAF236844
:103AF0001A69636A1A70626A531C6362238D013B00
:103B00002385638D013B9BB263852368596949070F
:103B10007FF55CAFC3E700BF020010000000FFFFAD
:103B20000400010010B590F83D30202BDCB216D116
:103B3000242380F83D3003681A6822F001021A60DD
:103B40005A6A22F010025A625A6A114359621A687C
:103B500042F001021A6080F83D40002010BD0220B2
:103B6000FCE730B590F83D30202BDCB216D102686E
:103B7000242380F83D30136823F001031360556A55
:103B80004FF6F0732B400B439BB25362136843F024
:103B90000103136080F83D40002030BD0220FCE7A7
:103BA0000068D1F800C0D201843283182DE9F043B7
:103BB000C6685D684C68D1F8189005F470455D6082
:103BC000C5680CF10107C5F30B45C6F30B463D4430
:103BD000264445EA06455D60C568CE68C5F30A051A
:103BE0002E449D6805F470459D60C7688D68C7F3D5
:103BF0000A0701353D4445EA06459D601D690E6989
:103C000025F007051D614FF0000E1E619D6991F8BA
:103C1000327091F83180C3F818E091F8305045EADD
:103C2000096545EA082545EA07459D615D6925F076
:103C3000FF055D614D695D61DD6925F4E06525F095
:103C40000705DD61D1E907573D43DD619D6A4D6A96
:103C5000C3F828E09D621EB3012E23D0B51E022DAD
:103C600022D9072E0CBF02250125DE6A06F0E026C8
:103C7000DE62A4EB0C048E6AC96A6C436E430334A3
:103C800044EA0644DC621C6B24F4FF6424F007045D
:103C90001C631963835843F001038350BDE8F0832C
:103CA0000425E2E70325E0E70225DEE738B5044610
:103CB000002863D090F8A13003F0FF021BB980F810
:103CC000A020FDF7EDFD022384F8A13023689A6956
:103CD00022F070429A61D4E901200243E0689969B8
:103CE0000243206902430A439A619A682449606941
:103CF0000A409A609A6842EA0042A06902439A60C8
:103D0000DA68E0690A40DA60DA6842EA0042206A6A
:103D10000243DA601A69606A0A401A611A6942EA63
:103D20000042A06A02431A615A69114059615A69F6
:103D3000E16A42EA0142216B0A435A61D96A94F866
:103D4000360094F8355001F07F41D962D96A94F871
:103D500034200A4342EA052242EA0042DA625A6B00
:103D600042F006025A639A6942F001029A61002009
:103D70000123C4F8A40084F8A13038BD0120FCE779
:103D800000F800F070477047036870B59E6B5D6B7C
:103D90007207044614D5690712D55A6B22F0040243
:103DA0005A630422DA63D0F8A43043F00103C0F868
:103DB000A430002380F8A12080F8A030FFF7E2FFB4
:103DC000B20716D5AB0714D523685A6B22F002024E
:103DD0005A630222DA63D4F8A4301343C4F8A4303F
:103DE000042384F8A130002384F8A0302046FFF794
:103DF000C9FFF00710D5E9070ED523685A6B22F0EA
:103E000001025A630122DA63002384F8A12084F8B6
:103E1000A0302046FDF77CF9320711D52B070FD5CE
:103E200023685A6B22F008025A630822DA630123DE
:103E300084F8A130002384F8A0302046FFF7A3FFC8
:103E400070BD2DE9F04190F8A030012B06460F46D9
:103E500094464FF002001FD04FF0010886F8A08072
:103E600086F8A10034240D4604FB02640FCD3834DB
:103E70000FC40FCD0FC40FCD0FC42B682360304685
:103E800062463946FFF78CFE33680020C3F8248071
:103E900086F8A18086F8A000BDE8F08190F8A030F7
:103EA000012B4FF0020312D080F8A13003685A6B47
:103EB00022F001025A63074A11645A6B42F0010270
:103EC0005A63012380F8A130002380F8A0301846FF
:103ED000704700BF006801402DE9F341044640B33C
:103EE0000368DD0710D4236898075ED423681A0797
:103EF00000F1A08023685B0700F1C080A069002862
:103F000040F0288100202BE08F4B9A6802F00C02D1
:103F1000042A07D09A6802F00C02082A0BD15A68CA
:103F2000510208D5884B1B689A03DCD56368002BC7
:103F3000D9D1012014E06268B2F5803F13D11A682C
:103F400042F480321A60FEF76BFF7F4E05463368FD
:103F50009B03C8D4FEF764FF401B6428F7D90320F5
:103F600002B0BDE8F081784DB2F5A02F2B6807D1E3
:103F700043F480232B602B6843F480332B60E2E70B
:103F800023F480332B602B6823F480232B60002ADA
:103F9000D9D1FEF745FF06462B689F03A3D5FEF750
:103FA0003FFF801B6428F7D9D9E7674B9A6812F066
:103FB0000C0F07D09A6802F00C02082A11D15B6836
:103FC0005E020ED4604A13689D0702D5E368012B98
:103FD000AFD11368216923F0F80343EAC1031360EA
:103FE00084E7E268594BB2B101221A60FEF718FF6C
:103FF000554D06462B68980707D52B68226923F094
:10400000F80343EAC2032B6070E7FEF709FF801B49
:104010000228EFD9A3E71A60FEF702FF4A4E0546D1
:10402000336899077FF562AFFEF7FAFE401B02285E
:10403000F6D994E76269454B82B10122C3F8802E1C
:10404000FEF7EEFE404E0546736F9F073FF552AFF9
:10405000FEF7E6FE401B0228F6D980E7C3F8802E63
:10406000FEF7DEFE384E0546736F98077FF542AFC8
:10407000FEF7D6FE401B0228F6D970E7324B1A6CC9
:1040800012F0805228D101921A6C42F080521A64C8
:104090001B6C03F080530193019B01272C4D2B686F
:1040A000D9051BD5A368284D012B27D12B6F43F0D1
:1040B00001032B67FEF7B4FE234E054641F2883814
:1040C000336F9B0739D5002F3FF418AF1E4A136C8E
:1040D00023F08053136411E70027DFE72B6843F4D4
:1040E00080732B60FEF79CFE06462B68DA05D9D458
:1040F000FEF796FE801B0228F7D930E7052B04D186
:104100002B6F43F004032B67D0E72A6F22F00102E4
:104110002A672A6F22F004022A67002BCAD1FEF711
:104120007FFE41F2883806462B6F9807CBD5FEF705
:1041300077FE801B4045F7D911E7FEF771FE401B63
:104140004045BDD90BE700BF0038024000004742A0
:1041500000700040334DAB6803F00C03082B3DD0DA
:10416000314B002202281A662BD1FEF759FE064673
:104170002B6899011FD4D4E907321343626A43EADA
:104180008213E26A43EA0263A26A5208013A43EAEE
:1041900002436B60244B234D01221A66FEF740FE5A
:1041A00004462B689A013FF5ADAEFEF739FE001BC1
:1041B0000228F6D9D3E6FEF733FE801B0228D7D9B2
:1041C000CDE6FEF72DFE04462B689B017FF59AAEE7
:1041D000FEF726FE001B0228F6D9C0E601283FF4B0
:1041E000BFAE6B68E26903F4800191427FF4A1AE37
:1041F000216A03F03F028A427FF49BAE616A47F670
:10420000C0721A408A427FF494AEA16A03F440322D
:104210008A427FF48EAEE26A03F0706393423FF409
:1042200071AE86E60038024000004742134908B5E7
:104230008B6803F00C03042B1CD0082B1CD14A689C
:104240004B68496813F4800314BF0D480D48C1F34F
:10425000881118BF002302F03F02A1FB0001FCF708
:1042600017F8064B5B68C3F3014301335B00B0FBF7
:10427000F3F008BD0248FCE70248FAE700380240C4
:1042800000127A000024F4002DE9F0410D460446A6
:1042900010B90120BDE8F081444B1A6802F00F020A
:1042A0008A4228D3226897072DD4D00741D43F4BA8
:1042B0001A6802F00F02AA4266D8226851076CD42D
:1042C000130707D53A4A2169936823F4604343EA08
:1042D000C1039360FFF7AAFF354B364A9B68C3F3CF
:1042E0000313D35CD840344B1860344B1868FDF787
:1042F0003FFC0020CEE7CAB21A701B6803F00F0320
:104300008B42C6D1CEE72A4B12F0040F1EBF99682C
:1043100041F4E0519960160742BF996841F4604149
:1043200099602349A0688B6823F0F00303438B60F6
:10433000BBE762681E4B012A1CD11B6813F4003FC7
:10434000A7D01B4EB36823F003031343B360FEF7FB
:1043500067FD41F288380746B368626803F00C03D2
:10436000B3EB820FA3D0FEF75BFDC01B4045F3D932
:1043700003208FE7911E01291B6802D813F0007FEC
:10438000DEE713F0020FDBE7EAB21A701B6803F0F6
:104390000F03AB427FF47DAF8FE70549E0688B6880
:1043A00023F4E05303438B608AE700BF003C0240E4
:1043B0000038024038BB0108740000207C00002057
:1043C000044B054A9B68C3F38223D35C034A1068FD
:1043D000D84070470038024048BB010874000020F4
:1043E0000F2303600B4B9A6802F0030242609A6845
:1043F00002F0F00282609A6802F4E052C2609B68A8
:10440000DB0803F4E0530361034B1B6803F00F0365
:104410000B60704700380240003C0240036813F014
:10442000430FF7B5044640F08C80236813F00C0F5F
:1044300045D08B4B8B4D00221A67FEF7F1FC0646E8
:104440002B689F0000F1CF8021684E0715D5D4E975
:104450000403D5F888201B0602F0E04243EA8013EB
:104460001343C5F88830D5F88C30226A23F4F8530A
:10447000013A43EA0223C5F88C300D0714D5794A76
:10448000A369D2F8881020691B0701F0706143EA24
:1044900080130B43C2F88830D2F88C30616A23F461
:1044A00040330B43C2F88C306D4B6E4E01221A67BD
:1044B000FEF7B6FC05463368980040F19B80236800
:1044C0009B0633D500230193664B674D1A6C42F06F
:1044D00080521A641B6C03F080530193019B2B687C
:1044E00043F480732B60FEF79BFC06462B68D905CE
:1044F00040F187805B4D2B6F13F4407340F0888050
:10450000A36A03F44072B2F5407F564A40F0A4809B
:10451000916823F0704021F4F81120F440700143B9
:104520009160116FC3F30B030B431367206810F006
:1045300010001FBF4D4B94F82C20C3F8E021002041
:104540004FE0474B474E00229A66FEF769FC05464E
:1045500033681F013FD42168CD0741BFD4E901234F
:104560001B0743EA8213C6F88430880715D53D4AF5
:10457000E368D2F8840065681B0600F0E04043EA77
:1045800085130343C2F88430D2F88C00E36920F02D
:104590001F00013B0343C2F88C3049060AD5E3688B
:1045A00062681B0643EA8213A26843EA02732D4A3B
:1045B000C2F884302A4B2B4E01229A66FEF730FC5B
:1045C000054633681A013FF530AFFEF729FC401B62
:1045D0000228F6D904E0FEF723FC401B0228B7D9D5
:1045E000032003B0F0BDFEF71BFC801B02287FF602
:1045F00027AFF5E7FEF714FC401B02287FF65BAF00
:10460000EEE7FEF70DFC801B02287FF66FAFE7E7B1
:10461000A26A02F4407293423FF472AF2B6F104AC9
:104620000121C2F8401E23F440730021C2F8401E4D
:104630002B672B6FDA077FF563AFFEF7F1FB41F2D3
:10464000883706462B6F9B073FF55AAFFEF7E8FB0E
:10465000801BB842F6D9C3E7916821F4F8115FE7EF
:1046600000004742003802400070004000104742FE
:1046700038B50D460446C8B190F82C3003F0FF025F
:104680001BB980F82D20FDF707FA022384F82C309F
:10469000211D206800F07CFC62682068294600F03B
:1046A000ADFC012384F82C30002038BD0120FCE74C
:1046B00038B590F82C30022B04460D46D8B20DD0F8
:1046C000022384F82C30206800F0D4FC2B68022BE5
:1046D0000CBF0523012384F82C30002038BD10B511
:1046E00090F82C30022B0446D8B209D0022384F86B
:1046F0002C30206800F0E5FC012384F82C300020E9
:1047000010BDF8B504460E4615461F46226893684C
:1047100036EA030301D000202DE06B1CF7D0FEF732
:104720007FFBC01B8542F1D823685A6822F0E00263
:104730005A606268B2F5827F0AD1A268B2F5004F72
:1047400002D0B2F5806F03D11A6822F040021A60DD
:10475000A26AB2F5005F07D11A6822F400521A600B
:104760001A6842F400521A60012384F85130002381
:1047700084F850300320F8BD38B513464268B2F5CE
:10478000827F04461FD18268B2F5004F02D0B2F595
:10479000806F07D125682868B2F5806F20F040004F
:1047A000286007D00A4680212046FFF7AAFF20B9DB
:1047B000002038BD0A460121F6E7636D43F020036F
:1047C00063650320F5E70A460121EEE737B5134696
:1047D000124A1568124AB5FBF2F54FF47A72554346
:1047E00042680195B2F5827F04460BD10A468021CA
:1047F000FFF787FF78B1636D43F020036365032003
:1048000003B030BD019B33B1019B013B0193236891
:104810009B681B06F6D40020F2E700BF740000205E
:1048200000366E0110B50446002836D0002383629E
:1048300090F8513003F0FF021BB980F85020FDF7CB
:10484000F5F82168A269022384F851300B6823F03F
:1048500040030B60D4E901300343E068034320695F
:10486000034360690343E0690343206A0343A06A8A
:10487000034302F4007003430B60120C636A02F0FE
:1048800004021A434A60CB6923F40063CB61002021
:104890000123606584F8513010BD0120FCE72DE94B
:1048A000F3411E4690F85030012B04460D46174642
:1048B00000F09D80012380F85030FEF7B1FA94F8A3
:1048C0005130012B8046D8B240F08F80002D5AD055
:1048D000002F58D0032384F85130A26825630023A9
:1048E0006365C4E91033E786A363E387A38723687E
:1048F000A786B2F5004F08BF1A68E16804BF42F40A
:1049000080421A601A6852065EBF1A6842F040027E
:104910001A60B1F5006F626841D10AB1012F07D169
:1049200035F8022BDA602563E38E013B9BB2E38608
:10493000E38E9BB2A3B9424631462046FFF746FFBD
:1049400000284FD1A36833B901932368DA68019234
:104950009B680193019B606D003818BF012012E035
:1049600022689368980705D5236B33F8021BD16042
:104970002363D9E7FEF754FAA0EB0800B0420BD34B
:10498000711CD5D00320012384F85130002384F812
:10499000503002B0BDE8F081002EC9D1F2E70AB173
:1049A000012F08D12A781A73236B01332363E38E16
:1049B000013B9BB2E386E38E9BB2002BBBD0236806
:1049C0009A68920702D5226B1278ECE7FEF728FA74
:1049D000A0EB0800B04202D3731CECD0D2E7002E4B
:1049E000E9D1CFE720236365ACE70220CBE70220C3
:1049F000CFE72DE9F7431E4690F850300A9F012B70
:104A000004460D46914600F0E680012380F85030C0
:104A1000FEF706FA94F851306268012B8046D9B24D
:104A20000AD0B2F5827F40F0D480A368002B40F01A
:104A3000D080042940F0CD80002D40D0B9F1000F86
:104A40003DD0002E3BD094F85130C4F83890042B60
:104A50001CBF052384F8513000236365C4E910337B
:104A60002368E687E6861968A687490658BF19684D
:104A7000256358BF41F04001A68658BF1960E16820
:104A8000B1F5006F52D10AB1012E07D135F8022BD2
:104A9000DA60E38E2563013B9BB2E3860125E38E5A
:104AA0009BB273B9E38F9BB25BB94246394620464D
:104AB000FFF78CFE002800F0818020236365012031
:104AC0002BE021688B689E070DD5E38E9BB253B116
:104AD0004DB1236B33F8022BCA602363E38E013B95
:104AE0009BB2E38600258A6812F001020CD0E38FA6
:104AF0009BB24BB1A36BC96823F8021BA363E38F7E
:104B0000013B9BB2E3871546FEF78AF9A0EB08004C
:104B1000B842C4D3781CC2D00320012384F851309A
:104B2000002384F8503003B0BDE8F0830AB1012EB1
:104B300008D12A781A73236B01332363E38E013B78
:104B40009BB2E38601252DE02268936899070ED574
:104B5000E38E9BB25BB155B1236B1B781373236B50
:104B600001332363E38E013B9BB2E3860025226879
:104B7000916811F001010DD0E38F9BB253B1A36B8B
:104B8000D2681A70A36B0133A363E38F013B9BB21E
:104B9000E3870D46FEF744F9A0EB0800B8420AD3BC
:104BA0007B1CB9D1E38E9BB2002BCDD1E38F9BB29E
:104BB000002BC9D179E7002FF4D1ADE7A368002B12
:104BC000ABD123680190DA6801929B680193019B45
:104BD000A3E70220A1E70220A5E72DE9F7431D4640
:104BE0004368B3F5827F0446894617460CD1836833
:104BF00053B9042380F85130134600950A46FFF755
:104C0000F8FE03B0BDE8F08394F85030012B00F0BB
:104C10008480012384F85030FEF702F994F8513073
:104C2000012B8046D8B276D1B9F1000F5AD0002FAF
:104C300058D0A268C4F83890042384F85130002674
:104C400023686665B2F5004FE787E68608BF1A68F5
:104C5000266308BF22F48042C4E91066A686A787AF
:104C600008BF1A601A6856065EBF1A6842F0400212
:104C70001A60E368F3B1E38F9BB2FBB123689A68D3
:104C8000D20739D5DA68A36B23F8022BA363E38F2D
:104C9000013B9BB2E387EEE723689A68D00718D5FB
:104CA000A26B1B7B1370A36B0133A363E38F013BE8
:104CB0009BB2E387E38F9BB2002BEDD1424629469E
:104CC0002046FFF759FD18BB606D003818BF012062
:104CD00008E0FEF7A5F8A0EB0800A84209D3691C7C
:104CE000E8D00320012384F85130002384F85030A9
:104CF00087E7002DDED1F4E7FEF792F8A0EB08007D
:104D0000A84202D36B1CB6D0EBE7002DB3D1E8E785
:104D100020236365D8E70220E4E7022071E77047AB
:104D20000368DA6842F00102DA609A6802F007026A
:104D3000062A1EBF1A6842F001021A60002070475E
:104D4000704770477047704703681A69910710B53C
:104D500004460ED5DA6892070BD56FF002021A618D
:104D6000012202779B699B0777D0FFF7EAFF0023B8
:104D7000237723681A69500710D5DA6851070DD5D3
:104D80006FF004021A61022222779B6913F4407FBC
:104D9000204668D0FFF7D5FF0023237723681A69E0
:104DA00012070FD5DA6810070CD56FF008021A61E8
:104DB00004222277DB69990720465AD0FFF7C1FF0A
:104DC0000023237723681A69D20610D5DA68D00643
:104DD0000DD56FF010021A6108222277DB6913F4F7
:104DE000407F20464BD0FFF7ACFF0023237723689A
:104DF0001A69D10708D5DA68D20705D56FF0010224
:104E00001A612046FCF78CFC23681A69100608D545
:104E1000DA68110605D56FF080021A61204600F0AD
:104E2000B6F823681A69520608D5DA68500605D51F
:104E30006FF040021A612046FFF785FF23681A6968
:104E4000910622D5DA6892061FD56FF0200220461F
:104E50001A61BDE8104000F099B8FFF771FF2046D5
:104E6000FFF770FF83E7FFF76BFF2046FFF76AFF4E
:104E700092E7FFF765FF2046FFF764FFA0E7FFF723
:104E80005FFF2046FFF75EFFAFE710BD304A0368C3
:104E9000904212D0B0F1804F0FD0A2F57C429042E8
:104EA0000BD002F58062904207D002F580629042FA
:104EB00003D002F57842904219D14A6823F070037A
:104EC0001343234A904229D0B0F1804F26D0A2F557
:104ED0007C42904222D002F5806290421ED002F5C0
:104EE000806290421AD002F57842904216D0194A58
:104EF000904213D002F5806290420FD002F580629A
:104F000090420BD0A2F59832904207D002F5806211
:104F1000904203D002F58062904203D1CA6823F424
:104F2000407313434A6923F08003134303608B6883
:104F3000C3620B688362064B984203D003F580631B
:104F4000984201D10B69036301234361704700BF9D
:104F5000000001400040014010B50446A0B190F8A7
:104F60003D3003F0FF021BB980F83C20FFF7D7FE6D
:104F70000223206884F83D30211DFFF787FF0123BD
:104F800084F83D30002010BD0120FCE770477047D9
:104F90002DE9F0414A6AD1E90743D1E90158D1E945
:104FA00003ECD1E905760968012943EA04031249B3
:104FB00004680FD01A432A4342EA080343EA0E0367
:104FC00043EA0C033B43214033430B43036000207F
:104FD000BDE8F08113434268114045EA080242EA05
:104FE0000E0242EA0C023A4324F4F84432432343CB
:104FF0000A4303604260EAE70080FFFFCB68F0B538
:105000000C688E680D695F1E4B6904F1FF3C4C68AB
:105010008969013B1B05013C013E013D0139012A23
:105020004FEA04144FEA06264FEA05454FEA0161AC
:1050300043EA07330CD043EA0C032343826833432B
:105040002B4302F070420B43134383600020F0BDFA
:10505000876827F4700727F4704734433B4344EADA
:105060000C02C76883602A4307F070470A433A433B
:10507000C260EBE773B5002301931546D1E9003216
:105080001343CA6843EA42238A68013A43EA421357
:105090000193019B03610446FDF7C2FE0646A36926
:1050A00013F0200301D1184603E06B1CF7D015B9AB
:1050B000032002B070BDFDF7B3FE801BA842EED9FD
:1050C000F6E7436943EA410141610020704700006F
:1050D000EFF3058313B16FF005007047EFF3108213
:1050E000074B12B9EFF3118212B11A68022AF2D0FB
:1050F000186810B901221A6070474FF0FF307047EE
:105100005427002008B5EFF3058313B16FF00500B5
:1051100008BDEFF310820A4B12B9EFF3118212B1FE
:105120001A68022AF2D01A68012A05D102221A60EE
:1051300001F0AAFB0020EBE74FF0FF30E8E700BFEB
:1051400054270020F0B587B0144600220B46059284
:10515000EFF3058222BBEFF3108212B9EFF3118255
:105160001AB1224A1268022A1AD0C8B1002C2FD0D4
:10517000A569002D08BF18256A1E372AAC462BD812
:105180006268D20728D466696EB1B208D4E9027E9B
:10519000216857B1BEF15F0F02D9246904B1EEB99D
:1051A000059807B0F0BD8022F0E7BEF1000FF7D1FF
:1051B0002469002CF4D10C4605A9CDE900C192B2B6
:1051C000214601F034FB01281CBF00230593E7E7CB
:1051D0004FF0180C8022EFE70020E2E7CDE901470D
:1051E000009501F0ECFA0590DAE700BF54270020A3
:1051F00073B50E461546EFF305831BB10024204618
:1052000002B070BDEFF3108313B9EFF311831BB13C
:10521000214B1B68022BF1D00028EFD0B042EDD318
:10522000EDB1D5E90232C3B14F2AE7D9012829D11E
:10523000032200920022114600F02DFD04460028B2
:10524000DCD0CEB100231A46194600F0D9FD012862
:1052500012D0204601F014F9D0E7002ACED101285F
:1052600004D10322002100F064FDE7E7314600F09D
:10527000A9FD04460028C1D05DB92946204601F0A9
:10528000D9F8BCE71A46314600F07AFD04460028FA
:10529000B4D02D68F1E700BF5427002013B50C46A9
:1052A00018B96FF0030002B010BDEFF3058363B1CE
:1052B000002CF6D101AA2146019401F06BF80128D7
:1052C00013D1019BA3B90020EDE7EFF3108313B9CD
:1052D000EFF311831BB10D4B1B68022BE8D0214665
:1052E00000F095FF0128EED06CB96FF00200DAE70C
:1052F0004FF0E0234FF08052C3F8042DBFF34F8FDF
:10530000BFF36F8FDFE76FF00100CCE75427002079
:1053100013B570B3EFF305834BB1002401A90194D9
:1053200000F082FE012814D06FF0020014E0EFF3C9
:10533000108313B9EFF311831BB10F4B1B68022BC2
:10534000EBD000231A46194600F05AFD012802D07E
:10535000EAE7019B13B9002002B010BD4FF0E02333
:105360004FF08052C3F8042DBFF34F8FBFF36F8F00
:10537000F1E76FF00300EFE75427002073B5144600
:10538000EFF305831BB10025284602B070BDEFF393
:10539000108313B9EFF311831BB11A4B1B68022B57
:1053A000F1D00028EFD00029EDD0ECB1D4E90232E1
:1053B00093B14F2AE7D92269002AE4D0666901FB3C
:1053C00000F5AE42DFD30025009500F064FC0546F1
:1053D0000028D8D024680FE0002AD4D12369002BFC
:1053E000D1D16369002BCED1002200F0A2FC05468A
:1053F0000028C8D0002CEDD12146284601F01AF82B
:10540000C2E700BF5427002013B51C46EFF3058305
:1054100023B1D8B96FF0030002B010BDEFF31083D1
:1054200013B9EFF311831BB1174B1B68022BF0D09C
:105430000028EFD00029EDD00023224600F0E0FC48
:10544000012810D0E4B96FF00200E5E70029E1D0AF
:10545000002CDFD1234601AA019400F084FD01282D
:10546000F1D1019B0BB90020D6E74FF0E0234FF0BC
:105470008052C3F8042DBFF34F8FBFF36F8FF2E755
:105480006FF00100C8E700BF5427002013B51C4689
:10549000EFF3058323B1D0B96FF0030002B010BD64
:1054A000EFF3108313B9EFF311831BB1164B1B6895
:1054B000022BF0D00028EFD00029EDD0224600F0DA
:1054C00007FE01280FD0DCB96FF00200E6E70029E3
:1054D000E2D0002CE0D101AA019400F05BFF01288A
:1054E000F2D1019B0BB90020D8E74FF0E0234FF039
:1054F0008052C3F8042DBFF34F8FBFF36F8FF2E7D5
:105500006FF00100CAE700BF54270020034B03607F
:10551000034B0B6080231360704700BFF42600200C
:10552000F4240020034B0360034B0B604FF48073A3
:1055300013607047582B00205827002010B50F4BE0
:105540001A461B688342FBD354681119884201BF75
:105550004168104609195160446801198B4207D10E
:10556000074909688B421FBF59681B6809194160C8
:105570009042036018BF106010BD00BFC82B01200F
:10558000B82B00202DE9F041044601F0C3F9404852
:10559000404D03680BBB40494E071FBFCB1D23F096
:1055A000070301F58032D21A14BF19464FF4803236
:1055B0000A443A4E083A22F0070200237360316031
:1055C000C2E90033531AC1E900230260344A136070
:1055D000344A13604FF000432B602F68274251D1AB
:1055E000002C42D004F1080361071CBF23F007031D
:1055F0000833002B46D02B4C26689E4242D3274AC4
:1056000015686968994204D2D5F800C0BCF1000F52
:1056100015D10068A84235D0C91A2868D2F8008090
:105620001060102912D9E81842070BD04FF0500330
:1056300083F31188BFF36F8FBFF34F8FFEE72A46C6
:105640006546DEE741606B60FFF778FF14496B68E1
:105650000868F61A1F4386424FF00003266038BFE1
:105660000E6008F108046F602B6001F0F7F9630722
:105670000AD04FF0500383F31188BFF36F8FBFF34D
:105680004F8FFEE70024F0E72046BDE8F08100BF21
:10569000B82B0020BC2B0120BC2B0020C82B0120E4
:1056A000C42B0120C02B012010B5044670B3184A4A
:1056B00050F8043C1268134208D14FF0500383F3B2
:1056C0001188BFF36F8FBFF34F8FFEE750F8081CB0
:1056D00041B14FF0500383F31188BFF36F8FBFF3D5
:1056E0004F8FFEE723EA020340F8043C01F012F971
:1056F000084A54F8043C1168A4F108000B441360F4
:10570000FFF71CFFBDE8104001F0A8B910BD00BFB5
:10571000BC2B0120C02B012000F108034FF0FF3209
:10572000C0E9022343600361002303607047002344
:105730000361704743684B609A688A609A68516059
:1057400099600368086101330360704730B50C68E5
:10575000631C0AD103695A684A6091608B60596082
:10576000036808610133036030BD00F1080213468D
:1057700052681568A542FAD9EDE7D0E9011203692C
:105780008A6051605968814208BF5A6000220261F4
:105790001A68013A1A6018687047000008480068E3
:1057A000006880F308884FF0000080F3148862B628
:1057B00061B6BFF34F8FBFF36F8F00DF00BF0000F4
:1057C00008ED00E0DFF80C00016841F470010160B1
:1057D0007047000088ED00E082B0002301930D4B7C
:1057E0001B68013308D04FF0500383F31188BFF3D7
:1057F0006F8FBFF34F8FFEE74FF0500383F3118895
:10580000BFF36F8FBFF34F8F019B002BFCD002B013
:10581000704700BF800000204FF0807340F8043CC8
:10582000074B40F80C3C21F001016FF0020340F8F7
:10583000081C40F8202C40F8243C4438704700BF36
:10584000D957000800000000000000000000000020
:10585000074B19680868B0E8F04F80F30988BFF378
:105860006F8F4FF0000080F311887047AFF3008016
:10587000182C01204FF0500383F31188BFF36F8F72
:10588000BFF34F8F0A4A13680133012B13600ED107
:105890004FF0E023D3F8043DDBB243B14FF05003A7
:1058A00083F31188BFF36F8FBFF34F8FFEE770470D
:1058B00080000020084A136843B94FF0500383F377
:1058C0001188BFF36F8FBFF34F8FFEE7013B13606B
:1058D0000BB983F31188704780000020000000009E
:1058E000EFF30980BFF36F8F154B1A681EF0100F8E
:1058F00008BF20ED108A20E9F04F10602DE9090063
:105900004FF0500080F31188BFF34F8FBFF36F8FBC
:1059100001F018F94FF0000080F3118809BC1968F4
:105920000868B0E8F04F1EF0100F08BFB0EC108A06
:1059300080F30988BFF36F8F704700BFAFF300801B
:10594000182C012008B54FF0500383F31188BFF3E2
:105950006F8FBFF34F8F00F0EBFF28B14FF0E023C4
:105960004FF08052C3F8042D002383F3118808BD43
:105970004FF0E022002313619361054B4FF47A71DD
:105980001B68B3FBF1F3013B5361072313617047BD
:10599000740000204FF0E02337B5D3F8001D3A4AD9
:1059A000914208D14FF0500383F31188BFF36F8FFA
:1059B000BFF34F8FFEE7D3F8002D344B9A4208D146
:1059C0004FF0500383F31188BFF36F8FBFF34F8FF6
:1059D000FEE72F4B1A78D2B20192FF221A701B7881
:1059E0002C4ADBB28DF803309DF8033003F05003EE
:1059F0001370294A0723136000219DF80300000655
:105A000003F1FF340CD411B1032B136011D04FF00C
:105A1000500383F31188BFF36F8FBFF34F8FFEE7FF
:105A20009DF803305B00DBB28DF803300121234683
:105A3000E3E74FF440731360019B154A4FF0E024F5
:105A4000DBB21370D4F8203D43F47003C4F8203D5A
:105A5000D4F8203D43F07043C4F8203DFFF788FFA1
:105A60000E4B00251D60FFF7ADFED4F8343F43F028
:105A70004043C4F8343FFFF791FE01F063F8FFF7AD
:105A8000ABFE284603B030BD71C20F4170C20F415A
:105A900000E400E0D02B0120D42B01208000002066
:105AA000EFF305830F2B0ED9114A9B5C114A127834
:105AB0009A4208D94FF0500383F31188BFF36F8FD8
:105AC000BFF34F8FFEE74FF0E0230B4AD3F80C3DB6
:105AD000126803F4E063934208D94FF0500383F354
