:020000040800F2
:100000000000032095050008411D0008431D00085D
:10001000451D0008471D0008491D0008000000009C
:10002000000000000000000000000000716B0008EC
:100030004B1D000800000000016C0008656C000802
:10004000E5050008E5050008E5050008E5050008E8
:10005000E5050008E5050008E5050008E5050008D8
:10006000E5050008E5050008E5050008E5050008C8
:10007000E5050008E5050008E5050008E5050008B8
:10008000E5050008E5050008E5050008E5050008A8
:10009000E5050008E5050008E5050008E505000898
:1000A000E5050008E5050008E5050008E505000888
:1000B000E5050008E5050008E5050008E505000878
:1000C000E5050008E5050008E5050008E505000868
:1000D000E5050008E5050008E5050008E505000858
:1000E000E5050008E5050008E5050008E505000848
:1000F000E5050008E5050008E5050008E505000838
:10010000E5050008E5050008E5050008E505000827
:10011000E5050008E50500084D1D0008E505000897
:10012000591D0008E5050008E5050008E50500087B
:10013000E5050008E5050008E5050008E5050008F7
:10014000E5050008E5050008E5050008E5050008E7
:10015000E5050008E5050008E5050008E5050008D7
:10016000E5050008E5050008E5050008E5050008C7
:10017000E5050008E5050008E505000800000000A9
:10018000E5050008E5050008E5050008E5050008A7
:10019000E5050008E5050008E5050008E505000897
:0C01A000651D0008E5050008711D000841
:1001B00010B5054C237833B9044B13B10448AFF3A1
:1001C00000800123237010BD6401002000000000A6
:1001D00070DB010808B5034B1BB103490348AFF3BB
:1001E000008008BD000000006801002070DB0108ED
:1001F00001F0FF01102A2BDB10F0070F08D010F8D8
:10020000013B013A8B422DD010F0070F42B3F6D1DB
:10021000F0B441EA012141EA014122F007047FF0F4
:1002200000070023F0E80256083C85EA010586EA4B
:10023000010685FA47F5A3FA87F586FA47F6A5FA87
:1002400087F68EB9EED1F0BC01F0FF0102F0070293
:1002500032B110F8013B013A83EA010313B1F8D13E
:100260000020704701387047002D06BF354603381F
:10027000073815F0010F07D1013015F4807F02BF58
:10028000013015F4C03F0130F0BC0138704700BFA9
:1002900053B94AB9002908BF00281CBF4FF0FF31ED
:1002A0004FF0FF3000F074B9ADF1080C6DE904CEE9
:1002B00000F006F8DDF804E0DDE9022304B0704741
:1002C0002DE9F047089D04468E46002B4DD18A4209
:1002D000944669D9B2FA82F252B101FA02F3C2F13C
:1002E000200120FA01F10CFA02FC41EA030E9440CD
:1002F0004FEA1C48210CBEFBF8F61FFA8CF708FBEE
:1003000016E341EA034306FB07F199420AD91CEBC5
:10031000030306F1FF3080F01F81994240F21C81F7
:10032000023E63445B1AA4B2B3FBF8F008FB10333F
:1003300044EA034400FB07F7A7420AD91CEB040474
:1003400000F1FF3380F00A81A74240F20781644444
:10035000023840EA0640E41B00261DB1D4400023C9
:10036000C5E900433146BDE8F0878B4209D9002D2D
:1003700000F0EF800026C5E9000130463146BDE8B7
:10038000F087B3FA83F6002E4AD18B4202D3824221
:1003900000F2F980841A61EB030301209E46002DD0
:1003A000E0D0C5E9004EDDE702B9FFDEB2FA82F225
:1003B000002A40F09280A1EB0C014FEA1C471FFA83
:1003C0008CFE0126200CB1FBF7F307FB131140EA6A
:1003D00001410EFB03F0884208D91CEB010103F137
:1003E000FF3802D2884200F2CB804346091AA4B2F9
:1003F000B1FBF7F007FB101144EA01440EFB00FECD
:10040000A64508D91CEB040400F1FF3102D2A64531
:1004100000F2BB800846A4EB0E0440EA03409CE7D0
:10042000C6F12007B34022FA07FC4CEA030C20FA7D
:1004300007F401FA06F31C43F9404FEA1C4900FA9D
:1004400006F3B1FBF9F8200C1FFA8CFE09FB18111A
:1004500040EA014108FB0EF0884202FA06F20BD98D
:100460001CEB010108F1FF3A80F08880884240F2DD
:100470008580A8F102086144091AA4B2B1FBF9F021
:1004800009FB101144EA014100FB0EFE8E4508D91C
:100490001CEB010100F1FF346CD28E456AD90238A1
:1004A000614440EA0840A0FB0294A1EB0E01A14286
:1004B000C846A64656D353D05DB1B3EB080261EBF4
:1004C0000E0101FA07F722FA06F3F1401F43C5E9CE
:1004D000007100263146BDE8F087C2F12003D84004
:1004E0000CFA02FC21FA03F3914001434FEA1C4746
:1004F0001FFA8CFEB3FBF7F007FB10360B0C43EA38
:10050000064300FB0EF69E4204FA02F408D91CEBE7
:10051000030300F1FF382FD29E422DD902386344E5
:100520009B1B89B2B3FBF7F607FB163341EA034185
:1005300006FB0EF38B4208D91CEB010106F1FF38D4
:1005400016D28B4214D9023E6144C91A46EA0046CB
:1005500038E72E46284605E70646E3E61846F8E65D
:100560004B45A9D2B9EB020864EB0C0E0138A3E7A6
:100570004646EAE7204694E74046D1E7D0467BE787
:10058000023B614432E7304609E76444023842E7FF
:10059000704700BFDFF834D0002103E00C4B5B58FC
:1005A000435004310B480C4B42189A42F6D30B4A85
:1005B00002E0002342F8043B094B9A42F9D303F0CE
:1005C000E5F91CF06FFA00F045FE704700000320CB
:1005D000144006080000002064010020640100208F
:1005E000C4370120FEE700F039BC00F0ABBC704717
:1005F00010B5042104461CF0DDF9204610BD0000B2
:1006000038B50C4B0C4C18800C4B82201980636859
:10061000984740F6110398420AD1094D23682C608F
:10062000822098472B688220DB689847002038BDDD
:100630000120FCE7800100204C0000208201002006
:10064000840100204FF4A071F020FFF7D9BF000013
:10065000F7B52D4D2B6804461B698220984780B260
:100660002080002843D02B680DF106025B6901A9A8
:1006700082209847BDF80620A2F5B47292B20A2AE9
:1006800037D90B23B2FBF3F2204B1B889A4201D9D6
:10069000013B9AB2BDF8043040F6B8318B422AD8FB
:1006A000C3F571630E339BB20F21B3FBF1F318490D
:1006B00009888B4201D94B1E9BB2164E164D3068ED
:1006C0002F68834281B28CBF591AC91AB8B2BA4294
:1006D0008CBF101A801A89B280B201440529C8BFA4
:1006E00033603368C8BF2A6063802B68A38003B07F
:1006F000F0BD0022CEE7C3F56D6308339BB20E2B2D
:10070000D2D80023D9E700BF840100208201002055
:1007100080010020880100208C01002037B5684648
:100720000D461446FFF794FFBDF8000030B1BDF848
:1007300002302B60BDF804302360012003B030BDCF
:10074000704770477047012380F8741080F8753047
:100750007047002070470000034B4164003918BF08
:1007600001211970704700BF173501200020704724
:10077000836B0BB10846184770474FF6FF70704700
:10078000406803689B69184770477047704700F0DE
:1007900079BC08B503680446D3F8803098472368CD
:1007A00020469B6F984700F0EBF8236820461B6FAC
:1007B0009847292000F0BAFF00F0E2F823682046AD
:1007C0001B6F9847F8E710B5044608F09FFF2368B1
:1007D0002046D3F8AC30BDE81040184700F044BCC8
:1007E00000F048BC00F074BC00F01ABC00F074BC0F
:1007F00000F07CBC00F01EBC08F0F0B910B57C2104
:1008000004461CF0D7F8204610BD90F877301BB195
:10081000406803681B6818471846704710B590F881
:10082000341090F874400C4B8C421A7809D03AB9C5
:100830000A4A0B491488088810800C8001221A701B
:1008400010BD002AFCD0054A05491488088810808C
:100850000C800022F3E700BF103501200C35012089
:100860000E35012070B50D46194635B9094B0A4AB7
:100870000A4840F2D2211CF0CBF8C0E90F52084BD5
:10088000003A18BF01221A700368BDE87040D3F81F
:100890008C301847E0DB010818DC010866DC010831
:1008A0001635012008B5094B1B888B4203D8084B2D
:1008B0001B88934205D9074B074A08489E211CF024
:1008C000A7F8074B1980074B1A8008BD0C3501208B
:1008D0000E350120ABDC01080EDD010866DC0108E5
:1008E0001235012014350120012108B500220846E7
:1008F00005F014FE0A4B186028B90A4B0A4A292150
:100900000A481CF085F800220421012005F0CCFEE5
:10091000074B186018B9074B034A2D21F0E708BDB3
:10092000940100202CDE010875DE0108A4DE010818
:1009300090010020E5DE0108024B4FF0FF311868FE
:1009400005F042BE94010020014B186805F076BE08
:1009500094010020024B0021186805F035BE00BF4D
:1009600094010020FFF7F0BF03480449006800230A
:100970001A4605F0DFBE00BF9001002004000020F1
:1009800013B5084C00231A4601A9206805F014FF8E
:1009900020684FF0FF33002201A905F00DFF02B0DF
:1009A00010BD00BF9001002003685B6C1847012058
:1009B000704703689B6A184782B0002301930D4B70
:1009C0001A6B42F400021A631A6B02F400020192DD
:1009D000019A1A6942F400021A611A6922F40002AB
:1009E0001A61054B054A1A61054B4FF080629A6007
:1009F00002B0704700380240D8240020450A0008A1
:100A000000E100E040F2EF3070470000054B03606A
:100A1000054B4FF08062C3F88820BFF34F8FBFF3C0
:100A20006F8F704778E0010800E100E010B50446E0
:100A30004FF45A61FFF7EAFF20461BF0BBFF204648
:100A400010BD0000024B1B68586803685B691847BB
:100A50001835012070B5044625460A4B0C30002697
:100A600060602672667245F8203B6022294608F0D5
:100A7000A3FF04F55A63EE602435AB42FBD1204658
:100A800070BD00BF78E0010808B50B290BD8DFE87E
:100A900001F01206100A0A0A0A08080808080120CC
:100AA00008BD0520FCE7054B054A064867211BF0F9
:100AB000AFFF0020F4E70220F2E700BF27DF0108C4
:100AC00042DF01088CDF010808B50A2909D8DFE8F0
:100AD00001F010060E0808080806060606000120A8
:100AE00008BD054B054A064888211BF091FF0020F0
:100AF000F6E70220F4E700BF27DF0108CBDF01089B
:100B00008CDF01082DE9F8434F7F0C4639468146BA
:100B1000FFF7BAFF94F81E80054641464846FFF7A6
:100B2000B3FF414606464846FFF7CEFFA18A628BD7
:100B3000424B521A1A649A61228B521A1A61E28A43
:100B4000586342EA01425A6420696268D863DA60F5
:100B5000216894F81CC080294FEA0C6226D010D876
:100B6000202945EA020461D040295FD004295DD0E4
:100B7000324B2A4342F400324745DA615AD0304AB8
:100B800040E0B1F5807F07D0B1F5007FF0D142F4AD
:100B9000003242F0090203E042F4003242F00A025D
:100BA000DA61E2681A625E6258612AE0A4682A4348
:100BB00042F40032211DD962DA6122785E62586106
:100BC00042B1012A21D01F4B1F4A20484FF489719E
:100BD0001BF01EFFDA69618822F47F42013922F09E
:100BE000100242EA0122DA610120144BDA6942F074
:100BF0002002DA61DA699206FCD410229A60002899
:100C0000BDD0134A1A60BDE8F8836288D969541EC2
:100C100021F47F4222F0100242EA0422BCF1FF00DC
:100C200042F0100218BF0120DA61DEE744F400341C
:100C3000DC61B8E740F20122E4E700BF00B0024007
:100C40000102010016E0010830E001088CDF010814
:100C50000102020070B50C46897FFFF735FFA68AB6
:100C6000E18A628B154B2569586341EA0641921B64
:100C70005964DD631A642668E168082E0DD19A6113
:100C80001A615862207F0E4A42EA0062DA610D4A18
:100C900019625D61DD601A6070BD0022D8611A6161
:100CA00048090A0A02F4784200F4FC600243C1F3E6
:100CB000C4010A439A63044AEDE700BF00B0024052
:100CC000090001000102020001020300034B1A683F
:100CD000D207FCD423229A60704700BF00B00240C4
:100CE00030B50F4C2568ED07FCD423250904A56019
:100CF00041F001010225FF2B65636164E0630AD0C6
:100D00000849656241EA0363E361074B226260615F
:100D1000E060236030BDE561039BA363034BF8E70C
:100D200000B00240090001000100020001000300C0
:100D3000012070470C2070470C2303FB0100083092
:100D400070470C2303FB01000830704701207047F7
:100D500041F29C20704741F29C2303FB01000830C4
:100D6000704741F29C2303FB0100083070470120CB
:100D700070471020704700EB01100830704700EBFF
:100D8000011008307047084601F08EBA10B5034BC9
:100D90000360044607F06DFC204610BD30E10108F9
:100DA00010B50446FFF7F2FF204614211BF002FEA7
:100DB000204610BD10B5034B0360044607F059FCF4
:100DC000204610BDFCE0010810B50446FFF7F2FF15
:100DD000204641F2A4211BF0EDFD204610BD00008D
:100DE00010B5034B0360044607F043FC204610BDDA
:100DF000C8E0010810B50446FFF7F2FF20461821AD
:100E00001BF0D8FD204610BD10B5094B0360044609
:100E100000F596501030FFF7B9FF04F12C00FFF7F2
:100E2000C9FF04F11400FFF7DBFF204610BD00BF2F
:100E300064E1010808B50248FFF7E6FF08BD00BFFE
:100E40009C01002010B50446FFF7DEFF20464FF45A
:100E5000A2511BF0AFFD204610BD00002DE9F3416B
:100E600000F0F4FF054600F0F5FF0024014623469C
:100E70002846224600940FF0BFFB264B264A274DFA
:100E80001A60204602F0F2F825480FF01DFB2B787F
:100E9000BFF35B8FDB0736D428461BF08DFD90B384
:100EA000204C214F214B236007F1180604F1140058
:100EB00004F12C086060C4F80880E760266107F040
:100EC000D9FB1B4B6361404607F0D4FB194BE3622F
:100ED000384607F0CFFB04F58053174AC3F8D022F9
:100EE00003F5397002F03CF9224607F1140130464F
:100EF00002F02CF9304601F0D7F910481BF0A6FD9E
:100F000028461BF065FD0E4802B0BDE8F041FFF732
:100F10003EBC00BF7C350120FC230020980100204E
:100F2000080000209C0100206C14002064E10108EE
:100F3000C8E00108FCE0010830E10108350E0008B6
:100F4000802300200148FFF724BC00BF802300203D
:100F500070B5234C234E244B244D23603046FFF7BD
:100F600079FD284612F052FC214B2248DC60224CCD
:100F700003600022F0204FF480712080C3E9121238
:100F80001E4C1F492080C3E919121E4C1A864FF0CF
:100F900080714FF4A07059670121C3E90422C3E9AD
:100FA0000622C3E90822C3E90A22C3E90E22C3E9E3
:100FB0001022C3E91422C3E916221A6683F86C20B2
:100FC0001A67C3E9016583F8781020800E4C83F816
:100FD000341020800D4802700D4A1A6070BD00BFA9
:100FE000DC150020E0150020D0DB010800240020E3
:100FF00080230020183501200C35012012350120F6
:10100000010000010E3501201435012010350120AA
:101010005CDD01080148FFF7F9BC00BFE0150020C6
:10102000034B902283F85A2383F85823704700BF5C
:1010300000E100E0094A0A49D3680A48C3F30A03F9
:10104000013B9BB20B801169C1F30A010139018098
:101050001364536B43F0010353637047006801400E
:101060007C2400207A240020014BD3F8AC00704788
:1010700000680140024B0122C3F8AC105A6270476D
:101080000068014070B5044607F0FDFD23685D6E01
:101090000CF018FA01462046A8472368054AD3F801
:1010A00088502046AC460023BDE87040A2F51631BA
:1010B000604700BF005802D007F0CCBD90F84B301D
:1010C00013B1024B01221A7007F0D0BD7824002022
:1010D00007F08ABD07F0E3BE034B4FF080629A60D1
:1010E0004FF080729A60704700E100E0084B4FF0CB
:1010F0008062C3F88820BFF34F8FBFF36F8F4FF02C
:101100008072C3F88820BFF34F8FBFF36F8F704793
:1011100000E100E010B5144C236823B3134B144ACC
:101120001B6C11888B4213D1124B198804F04CF8B8
:10113000226892F86630013382F86630FFF714FCBB
:10114000206808F0E3FABDE810400020FFF7F8BA85
:1011500004F03AF8206803681B6A9847BDE810401D
:101160000020FFF7EEBA10BD1835012000680140DD
:101170007C2400207A24002007B5064BADF8060039
:101180001B68054801220DF1060104F01EFD03B0A5
:101190005DF804FB10000020A8260020F0B5A1B0E7
:1011A000102200210AA81BF0BFFC1422002103A872
:1011B0001BF0BAFC0021302214A81BF0B5FC00245F
:1011C000224B01941A6C42F080521A641B6C03F09B
:1011D00080530193019B1E4B02941A6842F44042D3
:1011E0001A601B6803F4404302930122029B4FF4F0
:1011F0008033CDE9082302254FF48003CDE90E5357
:1012000008274FF4A873042608A8CDE91073129597
:10121000139603F0F7FF0F23CDE903354FF4A051E8
:101220004FF48053CDE9061303A80521059404F07B
:10123000C1F9C023189314A84FF4003314971A96D9
:101240001D9304F081FA21B0F0BD00BF00380240C8
:10125000007000402DE980489DB00024C34D02F08D
:10126000A3FBFFF79BFF142200210FA81BF05CFCDF
:1012700002942B6BBE4843F020032B632B6B03F0CF
:1012800020030293029B03942B6B43F080032B6398
:101290002B6B03F080030393039B04942B6B43F0AD
:1012A00004032B632B6B03F004030493049B05944A
:1012B0002B6B43F001032B632B6B03F001030593AE
:1012C000059B06942B6B43F002032B632B6B03F0FF
:1012D00002030693069B07942B6B43F040032B639A
:1012E0002B6B03F040030793079B08942B6B43F091
:1012F00010032B632B6B03F010030893089B0994D6
:101300002B6B43F008032B632B6B03F0080309934B
:1013100022460421099B03F079F9964822464FF4AE
:10132000405103F073F9224693484FF4C04101261F
:1013300003F06CF902274FF004088D4811940FA9AF
:10134000CDE90F86129703F079F84FF4405389489E
:101350000FA9CDE90F36CDE9114703F06FF84FF42F
:10136000C04385480FA9CDE90F36CDE9114403F0FC
:1013700065F801942B6B43F480032B632B6B7F4D3B
:1013800003F480030521224601933820019B02F0DB
:101390007BFD382002F0AAFD79487A4B036002F009
:1013A000B3FD794A794B2C62C5E9002328464FF4F6
:1013B0008043C5E90434C5E90244C5E9064403F0A5
:1013C00007FB1021284603F043FD2146284603F081
:1013D0005EFD6F486F4984624FF48273C0E9001369
:1013E0004FF400751823C0E906530A236A4DC362FF
:1013F000C0E90244C0E90444C0E9084404F0A8FB81
:10140000664B0F97C5E900364FF0100A4023C5E937
:1014100004A34FF4C073C5E906344FF40063C5E973
:1014200008344FF40053AB624FF0030B07230FA9AE
:101430002846CDE9103812934FF00809C5E9024853
:10144000CDE913B7159704F0A9FA4FF6FF720BA96F
:101450002846CDE90C960A940B960E9404F0BEFA39
:10146000304602F0CDFA4FF6FF720BA92846CDE9BF
:101470000B79CDE90D6404F0B1FA4FF6FF720BA9B8
:101480002846CDE90BB9CDE90D8404F0A7FA4FF455
:101490000C730A930A9B0E934FF6FF720BA9284612
:1014A000CDE90B890D9604F099FA40F26A5128466D
:1014B00004F0ABFA342221460FA81BF035FB384D5F
:1014C000384BAC86C5E900340923C5E905361D2330
:1014D00040F20D1CC5E9073B40F24313C5E909C3BF
:1014E00040F2171E40F247132846C5E90BE3C5E951
:1014F00002442C6185F8364003F06EFDFF21F02296
:10150000CDE914144FF4806805214FF4A073CDE9A0
:101510001024CDE91681CDE918420FA922462846AC
:10152000CDE91237204D1A930F94ADF86C408DF829
:101530006E4003F01CFE1D4B2B601B68DFF878909B
:1015400098472B681A4DDB6898471A4BC5E90A473C
:10155000C5E90C442846C5E90034C5E9027402F027
:1015600071FE3146284602F025FF27E00038024090
:1015700000080240000C02400018024078250020BC
:10158000D024002000300240005C0040A086010012
:10159000A82600200050014074260020400100A031
:1015A000CC25002000680140842400201400002085
:1015B000D824002000B00240002001401A4D5246BD
:1015C00021460FA81BF0B0FA4FF48033C5E9009311
:1015D0002846164BAB62AC602E612E7685F8204013
:1015E000EC62EC60EF6185F830406E6102F01CFA4D
:1015F00006230FA928461193CDE90F6602F096FB4A
:101600000FA92846CDE90F7702F090FBFEF7EBFF1C
:1016100004F0F4FE064A0748214604F029FF064B71
:10162000186004F005FFFEE7882400200100000F89
:101630007CE10108EB05000880240020704770471A
:101640007FB5094B8DF817201B6802930DF1170227
:101650000123009201930A460146044803F060FA10
:1016600007B05DF804FB00BF0C00002078250020C7
:101670007FB500238DF81730084B1B6802930A468C
:1016800001230DF11701009101930146044803F075
:10169000D7FA9DF8170007B05DF804FB0C00002096
:1016A000782500201FB5084C24680092CDE901344C
:1016B0000A4601230146054803F0C2FA003818BF64
:1016C000012004B010BD00BF0C00002078250020D0
:1016D00002F096B908B506480022042102F096FFF0
:1016E000BDE8084002480122042102F08FBF00BF7C
:1016F0000008024038B50B4D044601220A484FF459
:10170000005102F083FF00220421284602F07EFFF0
:101710002046FFF731FD28460122BDE8384004216C
:1017200002F074BF00080240000C024038B50B4DB7
:10173000044600220A484FF4005102F067FF0022DD
:101740000421284602F062FF2046FFF715FD2846D7
:101750000122BDE83840042102F058BF00080240D1
:10176000000C0240F7B5144E144F05460C463046A7
:101770000022042102F04AFF00224FF400513846B3
:1017800002F044FF2846FFF7F7FC0D4B0D481B689D
:10179000224601A904F0B7FB384601224FF400515C
:1017A000019C02F033FF30460122042102F02EFF9B
:1017B000204603B0F0BD00BF00080240000C02400C
:1017C00010000020A826002002F01AB90268034B7E
:1017D0009A4201D102F002B9704700BF00100040E8
:1017E0007047000082B00E4B00220092596C41F409
:1017F00080415964596C01F4804100910099019233
:10180000196C41F0805119641B6C03F080530193F3
:10181000019B0F216FF0010002B002F035BB00BF49
:101820000038024070B5064688B01422002103A893
:101830001BF07AF93268204B9A423AD103F58C3387
:10184000002501955A6C1D481D4C42F480725A6463
:101850005A6C02F480720192019A02951A6B42F05E
:1018600001021A631B6B03F001030293029B062221
:10187000032303A9CDE9032302F0E0FD114B4FF44C
:101880008061C4E900354FF480534FF48040C4E9CF
:1018900004134FF48073C4E906032046C4E90255DB
:1018A000C4E9085502F056FB08B1FFF799FFB4638D
:1018B000A66308B070BD00BF0020014000000240D8
:1018C00018250020106402400268094B9A4282B039
:1018D0000BD100230193074B1A6B42F480521A6319
:1018E0001B6B03F480530193019B02B0704700BF50
:1018F000003002400038024007B50F4B02689A42A0
:1019000016D10022A3F5F0430192196B41F40001B6
:1019100019631B6B03F40003019305215A20019BFB
:1019200002F0B2FA5A2003B05DF804EB02F0DEBA1E
:1019300003B05DF804FB00BF00B002402DE9F043A6
:10194000044689B01422002103A81BF0EDF8226898
:10195000244B9A4243D1244C244800250095236B04
:1019600043F004032363236B03F004030093009B01
:101970000195236B43F001032363236B03F0010301
:101980000193019B4FF012094FF400734FF00108CF
:101990000327042603A9CDE90339CDE90587079676
:1019A00002F04CFD4FF480731148079603A9CDE96E
:1019B0000339CDE9058702F041FD0295236C43F41C
:1019C00000032364236C03F400030293029B236A45
:1019D00043F400032362236A23F40003236209B063
:1019E000BDE8F083005C004000380240000802407F
:1019F00000000240F0B504468DB01422002107A873
:101A00001BF092F82268574B9A4240F0A88003F5E9
:101A10005043002500955A6C534842F080625A6446
:101A20005A6C02F080620092009A01951A6B42F0A3
:101A300020021A631A6B02F020020192019A0295A9
:101A40001A6B42F001021A631A6B02F00102029251
:101A5000029A03951A6B42F002021A631A6B02F0A3
:101A600002020392039A04951A6B42F040021A6331
:101A70001A6B02F040020492049A05951A6B42F028
:101A800004021A631A6B02F004020592059A069585
:101A90001A6B42F008021A631B6B03F008030693EB
:101AA00002240E26069B0A944FF4806307A9CDE911
:101AB00007340B9602F0C2FC41F658032B480B96F4
:101AC00007A9CDE907340927CDE9095402F0B6FC8E
:101AD000032327480B9707A9CDE90734CDE909541B
:101AE00002F0ACFC4FF4706321480B9607A9CDE9D6
:101AF0000734CDE9095402F0A1FC4FF40C631D48F2
:101B00000B9607A9CDE90734CDE9095402F096FCFC
:101B1000C02319480B9607A9CDE90734CDE909542C
:101B200002F08CFC082315480B9607A9CDE9073471
:101B3000CDE9095402F082FC4FF4A0530D480B97F5
:101B400007A9CDE90734CDE9095402F077FC582004
:101B50002A46052102F098F9582002F0C7F90DB085
:101B6000F0BD00BF006801400014024000000240C8
:101B7000000402400018024000080240000C02402D
:101B800010B5044688B01422002103A81AF0CCFF37
:101B90002268144B9A4223D103F568430021019136
:101BA0005A6C114842F480125A645A6C02F4801242
:101BB0000192019A02911A6B42F020021A631B6B88
:101BC00003F020030293029B4FF46072022303216F
:101BD000CDE903230523CDE9061303A902F02EFC6A
:101BE00008B010BD00500140001402402DE9F04142
:101BF00086B0002303932B4B1C68002C4FD14FF071
:101C00000108C3F80080284B00949A6B274842EAE9
:101C100008029A639B6B03EA0803009302270326DA
:101C20000C25009B01A94FF63F03CDE90137CDE913
:101C3000046502F003FC1E48059501A9CDE9018762
:101C4000CDE9034602F0FAFB48F233131948059533
:101C500001A9CDE90137CDE9034602F0EFFB4FF6CC
:101C600083731548059501A9CDE90137CDE90346F0
:101C700002F0E4FB4CF203731048059501A9CDE98D
:101C80000137CDE9034602F0D9FB60230C480595E6
:101C900001A9CDE90137CDE9034602F0CFFB06B03B
:101CA000BDE8F08100270020003802400014024007
:101CB000000802400018024000100240000C0240E0
:101CC0000004024030B5014689B00022362002F0FF
:101CD000DBF8362002F00AF90025154B02951A6C44
:101CE000144C42F010021A641B6C03F010030293B0
:101CF00001A903A8029B03F009FD03F0F7FC0E4BBA
:101D0000236040F2E733E36040000C4BB0FBF3F09C
:101D10000138606020462561A56004F0B3FA20B95F
:101D2000204604F093F909B030BD0120FBE700BF65
:101D300000380240042700200010004040420F00FD
:101D40007047FEE7FEE7FEE7FEE77047014804F054
:101D500091B900BF04270020014802F0B5B900BFC7
:101D600018250020014803F0A5B900BFCC250020AC
:101D7000014802F095BA00BFD82400200120704726
:101D800008B51AF077FE162303604FF0FF3008BD48
:101D900008B51AF06FFE16230360FEE770B50D4616
:101DA00014460E46731B9C4201DC204670BDAFF307
:101DB000008006F8010BF5E770B50D4614460E4697
:101DC000731B9C4201DC204670BD16F8010BAFF37B
:101DD0000080F5E74FF0FF3070474FF400534B6041
:101DE0000020704701207047002070470A4A1168A0
:101DF00008B5034609B909491160106869460344EA
:101E00008B4206D91AF036FE0C2303604FF0FF30E8
:101E100008BD1360FCE700BF44270020C83701203D
:101E2000704710B5042104461AF0C4FD204610BDC9
:101E300008B519B1012905D0002008BD01F062F9EB
:101E40000068FAE701F05EF94068F6E7004870477D
:101E5000B4E101080820704713B5002451B10368AC
:101E600001948DF8034001AA9C680DF10303A0477B
:101E700002B010BD0846FBE7408970478089704773
:101E80008088704783798088184480B27047C07911
:101E900000F07F007047C079C0097047704710B5E7
:101EA000082104461AF086FD204610BD7047704791
:101EB00000F596730868496803C370477047704718
:101EC0004160704770470000064BC0F8483100235E
:101ED000C0F84C3100F5A073C0F84401C0F83C31A3
:101EE000704700BF891F00080123037270477047C5
:101EF000704710B4C26841685410034601EB620099
:101F0000D20748BF0A599B685DF8044B48BFD358B5
:101F1000184743682BB183682BB9C06800F00100F3
:101F20007047184670470120704710B50C210446D1
:101F30001AF040FD204610BD10B5102104461AF0DD
:101F400039FD204610BD10B54FF4AC7104461AF0AF
:101F500031FD204610BD08B50BF0B4FABDE80840CD
:101F60000BF090BE10B50446D0F83C0158B10368A0
:101F7000DB68984738B1D4F83C0103689B68984700
:101F80000023C4F83C3110BD2DE9F14FD0E9545A7B
:101F90000746A86803681B6A9847B0F5927F05D288
:101FA000454B464AA32146481AF032FD686803684B
:101FB0001B6A98470F2803D8424B404AA421F2E7F6
:101FC000E86803681B6A98470B2803D83E4B3B4AD6
:101FD000A521E8E7DFF8F8900BF074FA0BF0B4FAFB
:101FE000D9F8000010B10368DB689847D9F8000001
:101FF00010B103681B689847DFF8D880D8F8000054
:1020000010B103685B699847D7F8380110B10368CD
:102010005B689847D8F8000010B103681B689847C0
:10202000D7F8380110B103689B689847E8680368DF
:1020300000215B6A98474FF0000B244B0360044675
:10204000C0F804B080F808B0A868036859465B6A15
:102050009847064601F0F0F96868036859465B6ADC
:1020600098473146054601F0CDF9C9F80040C7F858
:102070003851C8F80060E5B12B1DCAF8003033684C
:10208000C5F808A03046DB68F56398472B682846FA
:102090001B689847214630460CF0FEFE2368204618
:1020A0001B69984723685B69204601B0BDE8F04F83
:1020B00018472B46E1E700BF64E20108F2E201089D
:1020C000FEE3010845E40108E8E4010804E701082B
:1020D000603501205C3501202DE9F14FD0E9545ADB
:1020E0000746A86803681B6A984741F29B239842F9
:1020F00005D8454B454AA32145481AF089FC686834
:1021000003681B6A98470F2803D8424B3F4AA42113
:10211000F2E7E86803681B6A98470B2803D83E4B30
:102120003A4AA521E8E7DFF8F8900BF0CBF90BF07D
:102130000BFAD9F8000010B10368DB689847D9F8AA
:10214000000010B103681B689847DFF8D880D8F802
:10215000000010B103685B699847D7F8380110B1E7
:1021600003685B689847D8F8000010B103681B68E3
:102170009847D7F8380110B103689B689847E8681A
:10218000036800215B6A98474FF0000B234B036004
:102190000446C0F804B080F808B0A868036859463F
:1021A0005B6A9847064601F015F968680368594666
:1021B0005B6A98473146054600F0E4FFC9F80040E5
:1021C000C7F83851C8F80060E5B12B1DCAF80030D7
:1021D0003368C5F808A03046DB68F56398472B687C
:1021E00028461B689847214630460CF055FE236868
:1021F00020461B69984723685B69204601B0BDE80B
:10220000F04F18472B46E1E764E201088BE501082F
:10221000FEE3010845E40108E8E4010804E70108D9
:10222000603501205C350120F8B5044617460E469E
:102230000BF0A4F9104B0025C4E954760F4E1C6036
:10224000C4E952550E4B306823600E4BC4E950353B
:10225000036801219B68C4E94E559847284600F061
:1022600005FF336893F876200AB1D86C00B99868F6
:1022700013F0B3F82046F8BD6C3501201835012065
:10228000B8E60108A0E60108064BC0F84831002373
:10229000C0F84C3100F5A073C0F84401C0F83C31DF
:1022A000704700BFD9200008064BC0F84831002312
:1022B000C0F84C3100F5A073C0F84401C0F83C31BF
:1022C000704700BF891F0008006A7047406A704766
:1022D00070478B8880690A68DB0A50F82300104435
:1022E000704710B5C2B1137BB3B1547BD27A2402CC
:1022F00004F4E0641443C26998B202EB84021388C8
:102300008B4202D192F9020010BD05D8013880B28B
:1023100004320028F3D1F7E70020F5E710B52821B3
:1023200004461AF047FB204610BD000030B589B0C6
:102330000446BDF850500695BDF84C5005959DF8E3
:10234000405004959DF83C5003959DF838500295F7
:102350009DF8345001959DF8305000950CF032F9FD
:10236000064B2360119BA361129BE361159B2362C3
:10237000169B6362204609B030BD00BF28E7010804
:102380000020704781807047C1807047018170478D
:10239000418170477047704770477047704710B46D
:1023A000C4880368121B84885B6D091B12B25DF838
:1023B000044B09B218474FF6FF7383814FF0FF3388
:1023C00003621368C36110607047704770477047BD
:1023D0007047704790F825201AB190F8242002B178
:1023E00018607047002070478B88838001207047F9
:1023F000704730B50368018185B06D460146D3F85A
:10240000843004462846984795E807003C3484E821
:10241000070005B030BD30B50368418185B06D4619
:102420000146D3F8843004462846984795E80700CB
:102430003C3484E8070005B030BD002202804280B1
:102440008280C280704780F83610704770B503688C
:1024500004461B6B154698472368294620465B6E49
:10246000BDE87040184700207047806C7047704787
:1024700070477047704781857047808D704710B5F1
:102480004C2104461AF096FA204610BD10B544219E
:1024900004461AF08FFA204610BD10B541F288218B
:1024A00004461AF087FA204610BD90F8252012B194
:1024B00003685B691847704708B590F828300BB17E
:1024C000FFF7F3FF08BD0000036870B55E6B124BA9
:1024D0001B6804468DB22BB9104B114A6C21114870
:1024E0001AF096FA1049828D0988914203D80F4B51
:1024F0000B4A6D21F3E713F812200D4B1B6853F8BC
:1025000022000368DB6A9847281A01B23346204646
:10251000BDE87040184700BF7035012078E701081A
:10252000BAE70108F5E70108743501203CE8010825
:102530007835012090F829302DE9F0410446002B30
:1025400040D0438D858D01339BB2AB42438539D357
:102550005B1B828E866B9DB2038ED21A12B2C38D24
:1025600000212846B047638EE28EE76BD21A0646FA
:10257000E38D12B200212846B847628E218E0244B4
:10258000314412B209B22046FFF709FFA38DE18D55
:10259000628D0B449A4215D3002384F82930638559
:1025A0000AF090FF21460AF0B9FF206C50B1036891
:1025B000DB68984730B1206C036821469B68BDE812
:1025C000F0411847BDE8F08100224FF0FF31C0E92B
:1025D00000218260704770B5036804461B6B154686
:1025E00098472368294620465B6BBDE87040184732
:1025F00070B504461D46BDF91060FFF7ECFF236877
:10260000294620469B6B9847236831462046DB6B62
:10261000BDE87040184700000022C0E90122C0E96F
:102620000322C0E90522C0E907224FF480728284A8
:10263000014A0260704700BFB8E9010810B52622C0
:10264000044600211AF070FA2046FFF7E5FF044B1C
:102650002360FF2384F826300023A362204610BDA8
:1026600038F2010870B50023124E8380124B0360CC
:10267000336893F8762005460AB1D86C00B998689B
:102680000368DB6A98473368B0FA80F4D86C640951
:1026900030B10368DB6A9847002808BF44F00104A2
:1026A0002CB9064B064A07482C211AF0B1F92846E6
:1026B00070BD00BF1835012020EA01087AE8010842
:1026C000D8E8010811E9010810B5262204460021C6
:1026D0001AF02AFA2046FFF79FFF0A4B23600A4BA5
:1026E000A3624FF6FF73A3854FF47F020023C4E972
:1026F0000C324FF0FF32C4E910232387E3632046F6
:1027000010BD00BFA8F101085CE2010837B504461E
:1027100026224FF6FF750021ADF804501AF004FA96
:102720002046FFF779FF0D4B2360BDF80430E384AA
:10273000204684F8285001A908F0BDFA084B236010
:1027400020460023C4E90B33C4E90D33C4E90F3339
:1027500084F82930638503B030BD00BF14F301084D
:10276000D0EA010810B4C46BB4EB411F4FEA411228
:1027700004D05DF8044BC26307F052BB5DF8044B14
:10278000704700002DE9F04F2DED0A8B04468DB007
:102790000CF0D6F922460025DE4BE56342F8403BBB
:1027A000104608EE102AFFF749FF04F16C0304F10C
:1027B00098091846D84E0BEE903AFFF73FFF48466F
:1027C00007F00EFB04F5847304F58E7806F1240AF5
:1027D00018460393FFF746FFC4F80861C4F810A138
:1027E000C4F81451404607F0FBFA04F5C67304F52B
:1027F000D07718460493FFF735FFC4F88C61C4F80E
:1028000094A1C4F89851384607F0EAFA04F5047325
:1028100018460593FFF726FF04F50973C4F8106204
:10282000C4F818A21846C4F81C5209EE103AFFF773
:102830006DFF04F51A73184609EE903AFFF766FF2C
:1028400004F52B7318460AEE103AFFF75FFF04F504
:102850003C7318460AEE903AFFF758FF04F54D73A3
:1028600018460BEE103AFFF751FF4FF48073A4F8AF
:102870009C33AA4BC4F8783304F56973184604F501
:10288000747AC4E9DF55C4E9E155C4E9E355C4E904
:10289000E555C4F8A0530CEE103AFFF7CFFE5046B2
:1028A000FFF712FF9E4BC4F8D03304F21C431846C6
:1028B000C4F8185408EE903AFFF706FF4FF4616130
:1028C00004F58F6009F0F8F84FF4A07318EE100AC1
:1028D00000932A46F0232946FFF78AFE4FF07F43F4
:1028E000A36640F26B231BEE900A00936FF09302F5
:1028F000F0232946FFF77CFE8A4BC4F894304FF44E
:10290000A07300932A46F02329464846FFF770FE3D
:102910004FF0FF36039BC4F8C030C4F81461A4F82C
:1029200018612A464FF47061484607F06FFB4FF478
:1029300020524FF47061484607F073FB022148466D
:10294000FFF710FF0121484607F076FB4FF4A07314
:1029500000932A46642329464046FFF749FE4FF676
:10296000FF73A4F89C31049BC4F84431C4F8986107
:102970002A464FF4F061404607F048FB4FF42052DE
:102980004FF4F061404607F04CFB02214046FFF750
:10299000E9FE0121404607F04FFB4FF4A07300937E
:1029A0002A46F02329463846FFF722FE059BC4F845
:1029B000C831C4F81C62A4F820622A464FF4B4510E
:1029C000384607F023FB4FF420524FF4B4513846F9
:1029D00007F027FB02213846FFF7C4FE01213846E5
:1029E00007F02AFB6FF0610219EE100A7821FFF759
:1029F000F2FD4FF0020319EE100A0AA9ADF82830D3
:102A000008F059F96FF0550219EE900A4521FFF7C9
:102A1000E2FD4FF0010319EE900A0AA9ADF8283043
:102A200008F049F96FF051021AEE100ABD21FFF7C4
:102A3000D2FD07231AEE100A0AA9ADF8283008F0D3
:102A40003AF96FF05C021AEE900A0A21FFF7C3FD13
:102A50004FF003031AEE900A0AA9ADF8283008F0E7
:102A60002AF9CE221BEE100A0A21FFF7B4FD042337
:102A70001BEE100A0AA904F55E7BADF8283008F0B9
:102A80001AF91A2300932A46FA2329465846FFF7D3
:102A9000AFFD1A232A461CEE100A00932946F023A4
:102AA000FFF7A6FD1CEE101AC4F8CC63584605F0DB
:102AB000F5FD182300937823022219465046FFF7AC
:102AC00097FD4FF07F43C4F80034D4F8D033A4F816
:102AD000045406AED3F8843051463046984796E801
:102AE000070004F20C4383E8070004F264430393F5
:102AF0000D4B1B682BB90D4B0D4A60210D4819F089
:102B000087FF0D4B1B88012B1AD80C4B084A6121FB
:102B1000F4E700BF44EB0108D4EF010814EF01080B
:102B200040EA01084F4F4FFF7035012078E7010858
:102B300073E90108F5E70108743501203CE8010854
:102B40003F4B0121186800F0CDFA3E4A03460A21A6
:102B500003980DF0ABFC039BC4F818344FF002024D
:102B6000394B0A930AA95046ADF82C2007F09CFE79
:102B70005146584605F092FD3C231A22194618EE9C
:102B8000900A00922A46FFF733FD4FF07F4218EE7D
:102B9000901AC4F84C24A4F85054304607F0F4FBC3
:102BA00096E8070004F58B6383E80700264B0A9339
:102BB00018EE900A4FF003030AA9ADF82C30251D3A
:102BC00007F072FE18EE901A584605F067FD18EEF1
:102BD000101A284605F062FD1BEE901A284605F0F3
:102BE0005DFD4946284605F059FD4146284605F059
:102BF00055FD3946284605F051FD19EE101A2846B4
:102C000005F04CFD19EE901A284605F047FD1AEE26
:102C1000101A284605F042FD1AEE901A284605F0D3
:102C20003DFD1BEE101A284605F038FD2846594692
:102C300005F034FD20460DB0BDEC0A8BBDE8F08FE9
:102C40007C350120ABE901085CE201087047704760
:102C5000704730B4C26844685510034604EB620004
:102C6000D20748BF62599B6830BC48BFD358184749
:102C700043682BB183682BB9C06800F0010070472E
:102C8000184670470120704710B51021044619F00E
:102C900091FE204610BD10B54FF49271044619F014
:102CA00089FE204610BDE030884208B505D10AF003
:102CB00009FCBDE80840FFF7E7BA08BD2DE9F04F71
:102CC00004468BB0264600250BF03AFF694BE563BE
:102CD00046F8403B29462622304619F025FF30466B
:102CE000FFF79AFC04F16C08634B2364FF274FF64F
:102CF000FF7A2622294684F86670A5664046ADF81C
:102D000020A019F011FF4046FFF786FC5B4BE366FD
:102D1000BDF82030A4F8923084F8947008A904F12A
:102D20009807404607F0C7FF29462622384619F083
:102D3000FBFE3846FFF770FC514BC4F898304FF457
:102D40007F0304F1E009DFF84CB1C4F8CC304FF058
:102D5000FF33C4E936352946A4F8C4A02622C4F8B6
:102D6000C0B0C4F8C850A4F8D050C4F8D4504846F5
:102D700019F0DAFE4846FFF74FFC4FF0FF33A4F896
:102D80000E31404BA4F810A1C4E9453401223E4B5A
:102D900084F804213D4AC4F8E020C4E947352A46B6
:102DA00084F812A129463046C4F8085184F80C5121
:102DB000FFF711FC3046F021FFF7E8FA30464FF4F8
:102DC000A071FFF7E5FA4FF07F432A46A366294634
:102DD0004046FFF700FC052308A94046ADF8203027
:102DE00007F069FF112238466FF00601FFF7F3FB89
:102DF0000DF1080A264BC4F8C83039465046A4F8ED
:102E0000CC5007F0C1FA9AE8070004F1D40383E834
:102E1000070008A93846CDF820B0ADF8245007F0D7
:102E200043FD29464846FB22FFF7D5FB08AA0623A7
:102E300007A94846ADF81C30ADF8203007F092FDE8
:102E400004F58A73C4F80831201D3146019005F05D
:102E500025FC0198414605F021FC0198394605F012
:102E60001DFC0198494605F019FC20460BB0BDE851
:102E7000F08F00BF90EB010838F2010814F301084D
:102E8000A8F1010878EB0108A72C0008A0F20108BE
:102E90000A0AF7FF5CE201087047000030B5154DE3
:102EA0002C78BFF35B8F14F001048DB01FD128463E
:102EB00019F082FDD8B13F2307930F4B06930F4BB8
:102EC00005930123CDE9033302930423CDE90033B5
:102ED0000B490C48089414230B22CDE90944FFF751
:102EE00025FA094819F0B2FD284619F071FD054888
:102EF0000DB030BD48270020F0020208F802020899
:102F0000640102084C270020992E00087047000039
:102F100030B5154D2C78BFF35B8F14F001048DB0E4
:102F20001FD1284619F048FDD8B13F2307930F4B16
:102F300006930F4B0F4910480894CDE90443012232
:102F40000423CDE90132CDE909441223112203946F
:102F50000094FFF7EBF9094819F078FD284619F0BD
:102F600037FD05480DB030BD74270020F40202087B
:102F7000FC02020800020208782700200D2F00083A
:102F800000207047002070470EB403B503AB00214A
:102F900053F8042B01930BF047F902B05DF804EBF2
:102FA00003B070470CB407B504AB53F8042B01937E
:102FB0000BF03AF903B05DF804EB02B07047000083
:102FC000436C10B5044673B3038F2BB9184B194AE1
:102FD000C021194819F01CFDC38E00EB43035B8C24
:102FE0000BB30CF0B4FC238F012B03D8134B144A02
:102FF000C521EEE7E28E531C9BB2092B194688BF10
:10300000A3F10A0104EB410140F63F10498C8142D3
:1030100009D10A2B04EB420228BF002304EB43032F
:10302000508C588451842046BDE810400CF092BB6F
:10303000BCEB0108C5EB010870EC0108BAEC010813
:10304000C8EC01080CF04DBB10B586B002AC84E8AA
:1030500006001A460AAB05930193099B009321468B
:10306000089B09F064FD06B010BD000038B518BB20
:10307000124B13481B681349B3B11A689C681A4471
:1030800002605A681A440A601C440F4B00221A80DE
:1030900000F038F8054600F033F80C4B1C600C4B80
:1030A0001D600C4B188007E00B4B03600B4B0B6053
:1030B0000B4B1C68002CE8D138BD00BFA0270020B6
:1030C000A4270020A8270020AC270020703501206D
:1030D000783501207435012010030208000302082E
:1030E000A0030208044B1B6853F82100034B1B6824
:1030F00003EB4000704700BFA8270020A427002052
:103100000420704700487047B027002010B5FFF733
:10311000C5FE034C2060FFF7FBFE606010BD00BFE2
:10312000B0270020704710B54FF4AC71044619F079
:1031300041FC204610BD10B50446D0F8540100F003
:1031400012F82046BDE810400AF06AB810B50446EF
:10315000FFF76AF8014B2360204610BDA4ED01087B
:10316000002202607047704770470438704770470C
:1031700010B51021044619F01DFC204610BDA0F129
:103180000400F5E710B500228260044AC16002F134
:10319000080420320460426010BD00BFE8ED010861
:1031A0007047704700F58052D0F83833C2F890323B
:1031B00000210223C2E9A531FFF75AB910B541F247
:1031C0009C21044619F0F6FB204610BD2DE9F7437B
:1031D000044602227C48694600F0CCFC94F85D333A
:1031E00004F54D763BB10AF06DF931460AF096F9D7
:1031F000002384F85D3304F580551422D5F8983205
:103200000133C5F898320A2193FBF2F304F26440CB
:103210006E4A0DF04BF904F574700BF026F9B5F811
:103220009022E2B9D5F89432082B14D10223C5F8C4
:103230009432B5F89232D5F894121A2B22D1022981
:1032400019D10421C5F894120132A5F89022013356
:10325000A5F8923243E0062BEBD10423E7E7CB2A13
:10326000E7D1D5F89432022B01D10823DFE7042BF4
:10327000DFD10623DBE7082917D10621C5F8941210
:10328000013AE2E7F02B10D1042907D10221C5F859
:1032900094120132A5F89022013BD9E7062904D106
:1032A0000821C5F89412013AF4E70139072916D824
:1032B00001A050F821F000BF9932000893320008B5
:1032C000D9320008493200084F3200088132000824
:1032D000C5330008A73200080132A5F8902294F8FF
:1032E0005D33D5F89082B5F8907223B90AF0EAF808
:1032F00031460AF0EDF80023A4F85E33D4F83833F1
:103300003349B4F93823C4E9D9381423A4F8623313
:10331000D4F86083C4E9DB11012184F85D13B8F1AE
:10332000000F4CD1B4F86053A4F85E138D4246D818
:103330004D1BADB2BA1A12B2414628460BF0B2FD8F
:10334000B4F86633B4F86A23D4F87073D21A81469D
:10335000B4F8623312B241462846B847B4F83A335B
:10336000B4F86623B4F83813D21AB4F864335B1A8D
:1033700003EB0901024412B209B230460BF0F6F831
:10338000B4F86033B4F86213B4F85E230B449A4285
:1033900015D384F85D83A4F85E830AF093F8314670
:1033A0000AF0BCF8D4F8740348B10368DB689847A6
:1033B00028B1D4F87403036831469B68984703B07A
:1033C000BDE8F083013A88E78824002010EE010868
:1033D000A5EE000810B50446FFF7D4F9014B2360B1
:1033E000204610BD1CEE0108704704387047704736
:1033F00010B51021044619F0DDFA204610BDA0F1E9
:103400000400F5E710B500228260044AC16002F1B1
:10341000080420320460426010BD00BF48EE01087D
:1034200070477047FFF713BC10B54FF49271044614
:1034300019F0C0FA204610BD10B50446FFF73EFC57
:10344000014B2360204610BD78EE0108F020704744
:103450004FF4A07070472920FEF768B92820FEF7C6
:1034600065B908B5FEF736F9CA20FEF75FF9C32043
:10347000FEF740F90820FEF73DF95020FEF73AF933
:10348000CF20FEF753F90020FEF734F9C120FEF7F4
:1034900031F93020FEF72EF9ED20FEF747F96420D0
:1034A000FEF728F90320FEF725F91220FEF722F98E
:1034B0008120FEF71FF9E820FEF738F98520FEF796
:1034C00019F90020FEF716F97820FEF713F9CB2042
:1034D000FEF72CF93920FEF70DF92C20FEF70AF93A
:1034E0000020FEF707F93420FEF704F90220FEF76A
:1034F00001F9F720FEF71AF92020FEF7FBF8EA2081
:10350000FEF714F90020FEF7F5F80020FEF7F2F8B8
:10351000B120FEF70BF90020FEF7ECF81B20FEF7B8
:10352000E9F8B620FEF702F90A20FEF7E3F8A22038
:10353000FEF7E0F8C020FEF7F9F81020FEF7DAF801
:10354000C120FEF7F3F81020FEF7D4F8C520FEF7EF
:10355000EDF84520FEF7CEF81520FEF7CBF8C72092
:10356000FEF7E4F89020FEF7C5F83620FEF7DEF807
:10357000C820FEF7BFF8F220FEF7D8F80020FEF7CB
:10358000B9F8B020FEF7D2F8C220FEF7B3F8B620A3
:10359000FEF7CCF80A20FEF7ADF8A720FEF7AAF850
:1035A0002720FEF7A7F80420FEF7A4F82A20FEF74C
:1035B000BDF80020FEF79EF80020FEF79BF80020E3
:1035C000FEF798F8EF20FEF795F82B20FEF7AEF8FF
:1035D0000020FEF78FF80020FEF78CF80120FEF7A0
:1035E00089F83F20FEF786F8F620FEF79FF80120C5
:1035F000FEF780F80020FEF77DF80620FEF77AF847
:103600002C20FEF793F8C820FEF7DEF82620FEF700
:103610008DF80120FEF76EF8E020FEF787F80F2006
:10362000FEF768F82920FEF765F82420FEF762F817
:103630000C20FEF75FF80E20FEF75CF80920FEF77D
:1036400059F84E20FEF756F87820FEF753F83C2044
:10365000FEF750F80920FEF74DF81320FEF74AF860
:103660000520FEF747F81720FEF744F81120FEF773
:1036700041F80020FEF73EF8E120FEF757F8002061
:10368000FEF738F81620FEF735F81B20FEF732F863
:103690000420FEF72FF81120FEF72CF80720FEF784
:1036A00029F83120FEF726F83320FEF723F84220D0
:1036B000FEF720F80520FEF71DF80C20FEF71AF89B
:1036C0000A20FEF717F82820FEF714F82F20FEF73F
:1036D00011F80F20FEF70EF81120FEF727F8C8208A
:1036E000FEF772F82920FEF721F8BDE808402C20EB
:1036F000FEF71CB808B5FDF7EDFF0321D320FEF758
:1037000031F880B208BD10B5C4B2022203212046B0
:10371000FDF796FF0A20FDF7DBFF2046002203217C
:10372000FDF78EFFBDE810400220FDF7D1BF38B590
:103730000446E4B2FDF782FF00212046FDF798FF22
:10374000012105462046FDF793FF40EA052080B29F
:1037500038BD10B5C4B240212046FDF789FF0306ED
:1037600007D54C212046FDF783FF003818BF012004
:1037700010BD01224B212046FDF762FF20460022AA
:103780004B21FDF75DFF0020F2E773B50423C4B2BF
:103790000E461546D7210DEB03022046FDF782FFAA
:1037A000019B1BBA1A0DC3F30B23328020462B80DA
:1037B00001224B21FDF744FF00224B212046FDF75B
:1037C0003FFF02B070BD000010B50A4B1A7890425E
:1037D00004460DD0597888420AD00AB141B9012275
:1037E0009C54FDF72BFF2046BDE81040FFF78BBF30
:1037F00010BD00BFB827002010B5C4B20921204673
:10380000FDF736FF40F00100C2B209212046BDE8B5
:103810001040FDF715BF10B5C4B209212046FDF7D1
:1038200027FF092100F0FE022046BDE81040FDF709
:1038300007BF38B5C4B20D4620460A21FDF718FF70
:103840002843C2B20A212046BDE83840FDF7F8BE41
:1038500007B50190FDF7F3FE01981F21FFF7E9FF7F
:10386000019803B05DF804EBFFF7C6BF38B5C4B2EA
:103870000D4620460A21FDF7FBFE20EA0500C2B2F4
:103880000A212046BDE83840FDF7DABE10B50446EF
:10389000FFF7C1FF20461F21BDE81040FFF7E6BF3C
:1038A00010B5C0B20C460B21FDF7E2FE204010BD62
:1038B0001F21FFF7F5BF0A46C0B20B21FDF7C0BEBE
:1038C0001F21FFF7F8BF38B5C4B20D4620461721B7
:1038D000FDF7CEFE20EA0500C2B217212046BDE862
:1038E0003840FDF7ADBE70B5C4B20646042120468F
:1038F000FDF7BEFE042100F0FB0205462046FDF761
:103900009FFE3046F021FFF7DEFF05F0F80220466B
:103910000421FDF795FE492220212046FDF790FE67
:103920000220FDF7D5FE204601222121FDF788FE69
:1039300020469A224121FDF783FE204601224A219A
:10394000FDF77EFE204601224B21FDF779FE204641
:1039500000224B21FDF774FE204601225621FDF77F
:103960006FFE204601225821FDF76AFE2046012203
:103970004021FDF765FE2046FF220B21FDF760FE8A
:10398000BDE870400220FDF7A3BE0000054BD3F850
:10399000882042F47002C3F888204FF000629A60D9
:1039A000704700BF00ED00E008B50B4B1A6842F409
:1039B00000721A601A6842F480621A601A6842F44F
:1039C00080721A60032000F04DFA0020FEF77AF9A9
:1039D000FDF708FF002008BD003C0240034A044BED
:1039E00011681B780B441360704700BFBC27002090
:1039F00078000020014B1868704700BFBC270020EA
:103A000038B50446FFF7F6FF631C1CBF054B1B7857
:103A1000054618BFE418FFF7EDFF431BA342FAD396
:103A200038BD00BF7800002038B50446002800F0FB
:103A30009B80056C25B9FDF7F5FE656484F83C5064
:103A4000236CDB0600F18E80236C23F4885323F073
:103A5000020343F002032364444B5A6822F44032C9
:103A60005A605A6861680A435A60236821695A6833
:103A700022F480725A605A6842EA01225A605A68F7
:103A8000A16822F040725A605A680A435A609A68E4
:103A9000E16822F400629A609A680A439A603449A5
:103AA000A26A8A4252D0996821F07061996099683F
:103AB0000A439A609A68E16A22F040529A609A68D2
:103AC0000A439A609A6822F002029A609A68217EFC
:103AD00042EA41029A6094F82020002A3ED05A68B7
:103AE000616A42F400625A605A6822F460425A6085
:103AF0005A68013942EA41325A60DA6AE16922F4CD
:103B00007002DA62DA6A013942EA0152DA629A68CC
:103B100022F400729A609A6894F8301042EA4122C6
:103B20009A609A68616922F480629A609A680020BB
:103B300042EA81229A606064236C23F0030343F01D
:103B400001032364002384F83C3038BD9A6822F0D6
:103B500070629A609A6822F04052B2E75A6822F482
:103B60000062C9E70120EDE70120EEE700230140F4
:103B70000100000F37B513460022019290F83C2057
:103B8000012A044676D00122056880F83C20AA6804
:103B9000D20705D5AA68D00715D4002003B030BDE0
:103BA000AA6842F00102AA60334A1068334AB0FBA7
:103BB000F2F000EB40000190019A002AEAD0019A4D
:103BC000013A0192F8E7206C20F4E06020F0010057
:103BD00040F4807020646A68520541BF206C20F474
:103BE000405040F480502064226CA06B12F480524C
:103BF0001CBF626C22F006026264002284F83C2042
:103C00001F4AC2631F4A02641F4AC2646FF0220245
:103C10002A606A6842F080626A60AA6842F4807230
:103C2000AA600A4605F14C0100F014FA174A184937
:103C3000536813F01F0F236819D18B4207D001F589
:103C400080718B420CD1526812F01F0FA5D1986879
:103C500010F04050A1D19A6842F080429A609DE7EE
:103C60000C498B4299D1526812F0100FEEE78B424B
:103C700093D1ECE7022091E77400002040420F004E
:103C8000BF3C00089D3C0008A93C000800230140FF
:103C900000200140002201407047704708B5806B4A
:103CA000FFF7FBFF08BD7047806B08B54023036436
:103CB000436C43F004034364FFF7F5FF08BD836BD7
:103CC0001A6C12F0500F10B51A6C23D142F4007226
:103CD0001A641A68916811F0405F17D1197EA9B96A
:103CE000D16A11F4700F02D0916848050ED4516862
:103CF00021F0200151601A6C22F480721A641A6C4F
:103D0000D1045EBF1A6C42F001021A641846FFF734
:103D1000C3FF10BDD20603D51846FFF7C4FFF8E76E
:103D20009B6BBDE81040DB6C18470000F7B5002323
:103D3000019390F83C30012B69D0012380F83C308E
:103D40000D6803688E68092DACB234D904EB4402C7
:103D5000DF681E3A4FF0070C0CFA02FC27EA0C074A
:103D6000DF60DF6806FA02F23A43DA604968062942
:103D700001EB81022FD8596B053A1F26964021EAA4
:103D800006015963596B04FA02F20A435A63304A36
:103D900093420AD1122D3CD12E4B5A6822F40002D4
:103DA0005A605A6842F480025A60002380F83C301E
:103DB000184603B0F0BD1F6905EB45024FF0070C34
:103DC0000CFA02FC27EA0C071F611F6906FA02F2CF
:103DD0003A431A61CAE70C294FF01F010BD81E6B3A
:103DE000233A914026EA01011963196B04FA02F2A1
:103DF0000A431A63CBE7DE6A413A914026EA0101A1
:103E0000D962D96A04FA02F20A43DA62BFE70220F1
:103E1000CFE7114B9D4201D0112DC6D10D4B5A68F1
:103E200022F480025A605A6842F400025A600A4B37
:103E30009D42BAD1094B0A4A1B68B3FBF2F30A222E
:103E400053430193019B002BAFD0019B013BF8E74B
:103E500000200140002301401200001074000020E7
:103E600040420F000749CA6822F4E06203021204CC
:103E700003F4E063120C134343F0BF6343F40033D5
:103E8000CB60704700ED00E0164B30B5DC68C4F342
:103E90000224C4F10705231D042D28BF0425062B89
:103EA0004FF0FF338CBF033C002403FA05F521EAF1
:103EB0000501A34022EA0302A140002841EA0203CF
:103EC000ACBF00F16040084A4FEA0313B8BF00F0EE
:103ED0000F00DBB2AABF00F56140135480F8003335
:103EE00030BD00BF00ED00E014ED00E0002808DB6D
:103EF0004209012300F01F0003FA00F0014B43F8D0
:103F00002200704700E100E010B5044650B143794B
:103F100003F0FF0213B90271FDF7D6FC01236371B0
:103F2000002010BD0120FCE7036810B5084C0246D4
:103F3000D9B210391820B1FBF0F0205CD06523F421
:103F40007F7020F003005F2988BF0430906510BDAA
:103F5000BCEE010870B50446FFF74CFD0546002C89
:103F600073D0002384F834302268022384F835307B
:103F7000136823F00103136021680B68D8072FD45E
:103F80000B68334DA0691D40D4E901231343E26857
:103F900013432269134362691343E26903431343E2
:103FA000226A1343626A042A43EA050302BFD4E982
:103FB0000B5635432B430B604B69042A23F0070350
:103FC00043EA020333D1A26AE56A13437DB390B991
:103FD000012A21D032F0020229D1EA0127D51EE0C0
:103FE000FFF708FD401B0528C6D920236365032081
:103FF00084F8350070BDB0F5005F14D1032A16D8DF
:1040000001A050F822F000BF1F400008DB3F00086D
:104010001F40000819400008B5F1C07F07D14023B8
:1040200063650120E4E7022AF9D9032AD5D04B6160
:104030002046FFF779FFE26D3F2393408360002025
:104040000123606584F83530D4E70120D2E700BF52
:104050003F8010F070B590F83440866D012C31D05F
:10406000012480F8344090F83540012C4FF00005D1
:104070004FF0020424D180F8354004684565256876
:1040800025F48025256063608368402B0EBFA26005
:10409000A160E260C26D08BFE1603F239340B3605E
:1040A000236843F016032360036C1BB1236843F0BD
:1040B00008032360236843F001032360002070BDE0
:1040C00080F834500220FAE7F7B5002301935C4BE7
:1040D000856D1F68C36D2E6808229A4032420446DF
:1040E0000CD001680868400708D5086820F0040073
:1040F0000860AA60626D42F00102626501229A4086
:10410000324208D021684969090641BFAA60626D40
:1041100042F00202626504229A40324208D02168CD
:104120000968880741BFAA60626D42F004026265B7
:1041300010229A40324210D02368196809070CD522
:10414000AA601A68500337D51B68190301D4236C81
:1041500000E0A36C0BB120469847E16D20228A4015
:1041600032423AD023681868C60636D5AA6094F859
:104170003520052A1A6827D122F016021A605A69DA
:1041800022F080025A61226C0AB9A26C1AB11A6834
:1041900022F008021A603F238B40AB60002384F8B2
:1041A0003430012384F83530236D002B45D0204670
:1041B00003B0BDE8F04018471A68D2055EBF1A6820
:1041C00022F008021A60C2E7500327D51B681903C2
:1041D00031D4636C0BB120469847636D6BB3636D4C
:1041E000DA0719D522684FF41653B7FBF3F7052306
:1041F00084F83530136823F001031360019B013309
:10420000BB42019302D81368DB07F7D4002384F87C
:104210003430012384F83530E36CC6E71A6812F4B1
:10422000807208D1196821F010011960012384F807
:10423000342084F83530E36BCCE703B0F0BD00BF29
:104240007400002010B5044630B390F8393003F004
:10425000FF021BB980F83820FDF74EFB2268616829
:10426000022384F83930136823F440330B4313607E
:10427000536BA16823F007030B435363136CE1688E
:1042800023F47F5323F03F030B43136400200123E7
:10429000E06384F8393010BD0120FCE770477047B7
:1042A000036870B55E681D68F207044614D5E90519
:1042B00012D51A6822F480721A60C26B42F00102B1
:1042C000C26301229A60042380F83930002380F809
:1042D0003830436903B19847B20616D5AB0414D5FC
:1042E00023681A6822F400521A6020229A60E36B55
:1042F00043F00203E363042384F83930002384F895
:10430000383063690BB120469847300716D5290528
:1043100014D523681A6822F400621A6008229A6091
:10432000E36B43F00403E363042384F83930002390
:1043300084F8383063690BB12046984772070BD573
:104340006B0509D523681A6822F480621A6004227A
:104350009A602046FFF7A2FFB00714D5A90512D531
:1043600023681A6822F400721A6002229A60E36BD2
:10437000E363012384F83930002384F8383023695B
:104380000BB120469847F20613D5EB0411D52368EC
:104390001A6822F480521A6010229A60E36BE36379
:1043A000012384F83930002384F838302046FFF7A1
:1043B00076FF70BDF0B590F83830012B4FF0020356
:1043C0002BD0012280F8393080F8382000EB01131F
:1043D000D3E907425D6A184F44EA0242093C012CC6
:1043E0009CBF05F07F431A434FEA0116036888BF5C
:1043F00042EA056299B9596A39400A435A62012C66
:1044000082699A6103D8426A22F07F429A6201234C
:1044100080F83930002380F838301846F0BDD9696B
:1044200039400A43DA618219012C92691A619CBFF2
:1044300025F07F451D62EAE7F0FFFC002DE9F74F0C
:10444000DFF8C0816D4ADFF8C09100230D680124B8
:104450009C4004EA0506AC4340F0B7804C6824F069
:10446000100C4FEA430E03250CF1FF3705FA0EF549
:10447000012F6FEA050511D8876807EA050ACF689A
:1044800007FA0EF747EA0A078760476827EA060A2D
:10449000C4F300179F4047EA0A074760C76807EA66
:1044A000050A8F6807FA0EF747EA0A07BCF1020F00
:1044B000C76016D14FEAD30A00EB8A0A03F0070B54
:1044C000DAF820704FEA8B0B4FF00F0C0CFA0BFC54
:1044D00027EA0C0C0F6907FA0BF747EA0C07CAF832
:1044E000207007683D4004F0030707FA0EF73D43CC
:1044F0000560E50069D54FF0000BCDF804B0D8F8A1
:1045000044703F4D47F48047C8F84470D8F8447071
:1045100007F480470197019F23F0030707F18047C5
:1045200007F59C3703F0030ED7F808A04FEA8E0E6C
:104530004FF00F0C0CFA0EFCA8422AEA0C0C4BD0E0
:1045400005F58065A84249D005F58065A84247D0A9
:1045500005F58065A84245D005F58065A84243D0A1
:10456000484543D005F50065A84241D005F5806572
:10457000A8423FD005F58065A8423DD005F580658D
:10458000A8420CBF09250A2505FA0EF545EA0C05D7
:10459000BD601568F74314F4803F0CBF3D403543C0
:1045A0001560556814F4003F0CBF3D40354355601D
:1045B000956814F4801F0CBF3D4035439560D56865
:1045C000A40254BF3D403543D5600133102B7FF426
:1045D0003DAF03B0BDE8F08F5D46D5E70125D3E7D9
:1045E0000225D1E70325CFE70425CDE70525CBE755
:1045F0000625C9E70725C7E70825C5E7003C0140B0
:104600000000024000380240001402400AB18161FB
:1046100070470904FBE701684B6913F480634FF0AE
:10462000000210D06FF480634B612023026380F896
:104630003D3080F83E20036C80F83C2043F00403BA
:10464000036401207047184670472DE9F846064676
:104650000F4691461D464FEA114A3368BAF1010FE1
:104660000CBF5C699C6927EA0404A4B2B4FA84F420
:104670006409A14501D0002017E06A1CEED0FFF7C5
:10468000B9F9089BC01AA84201D8002DE5D1002332
:104690002022336386F83D2086F83E30326C86F85F
:1046A0003C3042F0200232640120BDE8F8862DE95A
:1046B000F04104460F46164698462568686927EA81
:1046C000000080B2B8B16B695A0516D52B6843F467
:1046D00000732B606FF480636B61202200232363DF
:1046E00084F83D2084F83E30226C42F004022264BB
:1046F00084F83C300120BDE8F081731CDED0FFF768
:1047000079F9A0EB0800B04201D8002ED5D10023E2
:104710002022236384F83D2084F83E30226C42F04E
:104720002002E4E770B504460D46164621684B6941
:1047300013F0400301D0002010E04A69D2060ED5E4
:104740006FF010024A612022236384F83D2084F830
:104750003E30226C226484F83C30012070BDFFF7AB
:1047600049F9801BA84201D8002DDFD10023202267
:10477000236384F83D2084F83E30226C42F020020E
:10478000E8E770B504460D46164623685B695B078B
:1047900001D5002070BD2046FFF73DFFA8B96A1C77
:1047A000F3D0FFF727F9801BA84201D8002DECD1E8
:1047B00000232022236384F83D2084F83E30226CBD
:1047C00084F83C3042F0200222640120E2E770B518
:1047D00004460D46164623685B691B0601D500207A
:1047E00070BD2046FFF717FFA8B96A1CF3D0FFF78A
:1047F00001F9801BA84201D8002DECD10023202212
:10480000236384F83D2084F83E30226C84F83C30E9
:1048100042F0200222640120E2E700002DE9F0438B
:104820001546026885B0DDE90C789946136843F4B3
:10483000807313600E463B46CDF8008000224FF097
:1048400001110446FFF701FF236838B11B68DB053F
:1048500002D54FF40073236403200AE006F0FE063D
:104860001E61194943463A462046FFF720FF18B11A
:10487000012005B0BDE8F083236803905A690392D4
:104880009B690393424639462046039BFFF79FFFEF
:1048900040B1236C042B01BF2268136843F40073FA
:1048A0001360E5E7B9F1010F236802D1EDB21D6194
:1048B000DFE72A0A1A61394642462046FFF787FF9A
:1048C0000028E6D12368F1E7020001002DE9FF4747
:1048D0009A46036815461A6842F480621A601A689C
:1048E000DDE90C7842F480721A600E463B46CDF842
:1048F000008000224FF001110446FFF7A6FE236856
:1049000048B11B68DB0502D54FF400732364032014
:1049100004B0BDE8F0875FFA86F906F0FE061E6176
:104920002A4943463A462046FFF7C1FE08B1012016
:10493000EEE7236803905A6903929B69039342460A
:1049400039462046039BFFF742FF40B1236C042BFE
:1049500001BF2268136843F400731360E7E7BAF1FC
:10496000010F23681AD1EDB21D6142463946204637
:10497000FFF72DFF0028E9D12268136843F4807304
:1049800013604FF001110246CDF800803B462046EF
:10499000FFF75BFE226860B11368B3E72A0A1A6169
:1049A000394642462046FFF712FF0028CED1236841
:1049B000D9E749F001031361044943463A462046CA
:1049C000FFF775FE003818BF0120A1E702000100C3
:1049D00070B5044608B9012070BD90F83D3003F071
:1049E000FF021BB980F83C20FCF7A8FF242384F8C1
:1049F0003D3023681A6822F001021A601A6842F4F6
:104A000000421A601A6822F400421A6000F06EFE3A
:104A10003F4B65689D4294BF3E4B3F4B98428CBFD5
:104A200000230123002BD6D12268394E53683B491D
:104A3000B0FBF1F123F03F030B43B542536088BF55
:104A40004FF49676136A88BF714323F03F0384BF07
:104A50004FF47A76B1FBF6F1013119431162D16955
:104A6000431E2B4821F44F41854221F0FF0132D8EB
:104A70006D0040F6FC70B3FBF5F30133034242D006
:104A8000C3F30B030B43D361D4E90730116803432D
:104A900021F0C0010B4313609168D4E9030321F4B2
:104AA0000341034321F0FF010B439360D4E9053038
:104AB000D168034321F0FF010B43D360136843F037
:104AC0000103136000202023206484F83D3020631C
:104AD00084F83E0080E7A06850B905EB4505B3FBBC
:104AE000F5F30133C3F30B037BB143F40043C9E790
:104AF00019204543B3FBF5F30133C3F30B0323B193
:104B000043F44043BEE70423BCE70123BAE700BFF8
:104B1000A08601007F841E00FF083D0040420F0078
:104B20002DE9F743044699460C9E0F469046FEF742
:104B300061FF94F83D30202B054603D0022003B0DE
:104B4000BDE8F08300903C49192301222046FFF77D
:104B50007CFD0028F2D194F83C30012BEED0206887
:104B6000012384F83C300368D9075EBF036843F033
:104B700001030360036823F400630360212384F8C6
:104B80003D30402384F83E30002323640A9B636257
:104B9000BDF82C306385638D2385284BE362CDE916
:104BA00000654B46424639462046FFF737FE00284F
:104BB0002AD00120C3E7FFF70AFE40B1236C042B83
:104BC00001BF2268136843F400731360F1E7636A5E
:104BD00027681A4612F8011B39616262628D218DC5
:104BE000013A92B262857A69481E80B252072085E6
:104BF0000AD548B15A783A6102336362638D013B4A
:104C000002399BB221856385238D2A463146204691
:104C1000002BD0D1FFF7B5FD0028CFD12268136853
:104C200043F400731360202384F83D3084F83C0083
:104C300084F83E0083E700BF020010000000FFFF81
:104C40002DE9F043044687B09946109F0D469046E3
:104C5000FEF7D0FE94F83D30202B064604D0022506
:104C6000284607B0BDE8F083009076491923012259
:104C70002046FFF7EAFC0028F1D194F83C30012BE4
:104C8000EDD02068012384F83C300368DB075EBF69
:104C9000036843F001030360036823F400630360C7
:104CA000222384F83D30402384F83E3000232364DF
:104CB0000E9B6362BDF83C306385638D2385624B38
:104CC000E3622946CDE900764B4642462046FFF78F
:104CD000FDFD054608B10125C2E7228D2368B2B962
:104CE00002905A6902929A690292029A1A6842F4F0
:104CF00000721A60DFF85481238D002B2CD1202202
:104D000084F83D2084F83C3084F83E30A8E7012A3E
:104D10000AD11A6822F480621A6003905A690392D9
:104D20009A690392039AE1E7022A0ED11A6822F4E3
:104D300080621A601A6842F400621A6004905A692C
:104D400004929B690493049BD4E705905A690592E9
:104D50009B690593059BCDE7032B56D8012B15D1F5
:104D6000324639462046FFF7DDFC0028B3D12368E0
:104D70001A69636A1A70636A01336362238D013BA7
:104D80002385638D013B9BB26385B5E7022B0096BB
:104D90003B464FF000024146204619D1FFF755FC33
:104DA000002898D123681A6842F400721A601A69C0
:104DB000636A1A70626A531C6362238D013B238508
:104DC000638D013B9BB2638523681B695370D2E7F7
:104DD000FFF73BFC00287FF47EAF23681A6822F4BB
:104DE00080621A601A69636A1A70636A00960133F6
:104DF0006362238D013B2385638D013B9BB26385F9
:104E000002463B4641462046C8E7324639462046E0
:104E1000FFF788FC00287FF45EAF23681A69636A95
:104E20001A70626A531C6362238D013B2385638D74
:104E3000013B9BB263852368596949077FF55CAFE5
:104E4000C3E700BF020010000000FFFF04000100E4
:104E500010B590F83D30202BDCB216D1242380F819
:104E60003D3003681A6822F001021A605A6A22F083
:104E700010025A625A6A114359621A6842F00102DA
:104E80001A6080F83D40002010BD0220FCE730B5DC
:104E900090F83D30202BDCB216D10268242380F834
:104EA0003D30136823F001031360556A4FF6F07329
:104EB0002B400B439BB25362136843F00103136012
:104EC00080F83D40002030BD0220FCE70068D1F8AA
:104ED00000C0D201843283182DE9F043C6685D68B2
:104EE0004C68D1F8189005F470455D60C5680CF108
:104EF0000107C5F30B45C6F30B463D44264445EA7E
:104F000006455D60C568CE68C5F30A052E449D68F8
:104F100005F470459D60C7688D68C7F30A070135C1
:104F20003D4445EA06459D601D690E6925F007056B
:104F30001D614FF0000E1E619D6991F8327091F86D
:104F40003180C3F818E091F8305045EA096545EA28
:104F5000082545EA07459D615D6925F0FF055D610E
:104F60004D695D61DD6925F4E06525F00705DD61CA
:104F7000D1E907573D43DD619D6A4D6AC3F828E0DA
:104F80009D621EB3012E23D0B51E022D22D9072EFD
:104F90000CBF02250125DE6A06F0E026DE62A4EBE6
:104FA0000C048E6AC96A6C436E43033444EA0644B7
:104FB000DC621C6B24F4FF6424F007041C63196397
:104FC000835843F001038350BDE8F0830425E2E7F2
:104FD0000325E0E70225DEE738B50446002863D064
:104FE00090F8A13003F0FF021BB980F8A020FCF775
:104FF00001FD022384F8A13023689A6922F07042EF
:105000009A61D4E901200243E0689969024320696A
:1050100002430A439A619A68244960690A409A6087
:105020009A6842EA0042A06902439A60DA68E0693D
:105030000A40DA60DA6842EA0042206A0243DA6033
:105040001A69606A0A401A611A6942EA0042A06A53
:1050500002431A615A69114059615A69E16A42EA88
:105060000142216B0A435A61D96A94F8360094F8D8
:10507000355001F07F41D962D96A94F834200A434F
:1050800042EA052242EA0042DA625A6B42F0060224
:105090005A639A6942F001029A6100200123C4F820
:1050A000A40084F8A13038BD0120FCE700F800F02E
:1050B00070477047036870B59E6B5D6B720704465E
:1050C00014D5690712D55A6B22F004025A630422E0
:1050D000DA63D0F8A43043F00103C0F8A430002311
:1050E00080F8A12080F8A030FFF7E2FFB20716D5C4
:1050F000AB0714D523685A6B22F002025A630222CE
:10510000DA63D4F8A4301343C4F8A430042384F839
:10511000A130002384F8A0302046FFF7C9FFF00734
:1051200010D5E9070ED523685A6B22F001025A63A5
:105130000122DA63002384F8A12084F8A0302046FD
:10514000FBF7E8FF320711D52B070FD523685A6B01
:1051500022F008025A630822DA63012384F8A1309E
:10516000002384F8A0302046FFF7A3FF70BD2DE98F
:10517000F04190F8A030012B06460F4694464FF0C0
:1051800002001FD04FF0010886F8A08086F8A10029
:1051900034240D4604FB02640FCD38340FC40FCD08
:1051A0000FC40FCD0FC42B682360304662463946CA
:1051B000FFF78CFE33680020C3F8248086F8A180B6
:1051C00086F8A000BDE8F08190F8A030012B4FF0E8
:1051D000020312D080F8A13003685A6B22F001025A
:1051E0005A63074A11645A6B42F001025A63012361
:1051F00080F8A130002380F8A0301846704700BF27
:10520000006801402DE9F341044640B30368DD071F
:1052100010D4236898075ED423681A0700F1A08091
:1052200023685B0700F1C080A069002840F0288156
:1052300000202BE08F4B9A6802F00C02042A07D062
:105240009A6802F00C02082A0BD15A68510208D55C
:10525000884B1B689A03DCD56368002BD9D10120E9
:1052600014E06268B2F5803F13D11A6842F48032CC
:105270001A60FEF7BFFB7F4E054633689B03C8D418
:10528000FEF7B8FB401B6428F7D9032002B0BDE845
:10529000F081784DB2F5A02F2B6807D143F480231D
:1052A0002B602B6843F480332B60E2E723F48033D8
:1052B0002B602B6823F480232B60002AD9D1FEF7C2
:1052C00099FB06462B689F03A3D5FEF793FB801B33
:1052D0006428F7D9D9E7674B9A6812F00C0F07D00A
:1052E0009A6802F00C02082A11D15B685E020ED4A3
:1052F000604A13689D0702D5E368012BAFD113689C
:10530000216923F0F80343EAC103136084E7E268EC
:10531000594BB2B101221A60FEF76CFB554D06469F
:105320002B68980707D52B68226923F0F80343EA16
:10533000C2032B6070E7FEF75DFB801B0228EFD9EC
:10534000A3E71A60FEF756FB4A4E054633689907F5
:105350007FF562AFFEF74EFB401B0228F6D994E7BB
:105360006269454B82B10122C3F8802EFEF742FBF1
:10537000404E0546736F9F073FF552AFFEF73AFB6D
:10538000401B0228F6D980E7C3F8802EFEF732FBD7
:10539000384E0546736F98077FF542AFFEF72AFB3C
:1053A000401B0228F6D970E7324B1A6C12F080527B
:1053B00028D101921A6C42F080521A641B6C03F0DF
:1053C00080530193019B01272C4D2B68D9051BD5D8
:1053D000A368284D012B27D12B6F43F001032B67C6
:1053E000FEF708FB234E054641F28838336F9B07D2
:1053F00039D5002F3FF418AF1E4A136C23F08053A9
:10540000136411E70027DFE72B6843F480732B60F8
:10541000FEF7F0FA06462B68DA05D9D4FEF7EAFA69
:10542000801B0228F7D930E7052B04D12B6F43F0FE
:1054300004032B67D0E72A6F22F001022A672A6F44
:1054400022F004022A67002BCAD1FEF7D3FA41F2F8
:10545000883806462B6F9807CBD5FEF7CBFA801B12
:105460004045F7D911E7FEF7C5FA401B4045BDD9C5
:105470000BE700BF003802400000474200700040C8
:10548000334DAB6803F00C03082B3DD0314B0022A9
:1054900002281A662BD1FEF7ADFA06462B68990151
:1054A0001FD4D4E907321343626A43EA8213E26AE3
:1054B00043EA0263A26A5208013A43EA02436B607C
:1054C000244B234D01221A66FEF794FA04462B68FA
:1054D0009A013FF5ADAEFEF78DFA001B0228F6D912
:1054E000D3E6FEF787FA801B0228D7D9CDE6FEF770
:1054F00081FA04462B689B017FF59AAEFEF77AFA93
:10550000001B0228F6D9C0E601283FF4BFAE6B6845
:10551000E26903F4800191427FF4A1AE216A03F0B5
:105520003F028A427FF49BAE616A47F6C0721A401E
:105530008A427FF494AEA16A03F440328A427FF437
:105540008EAEE26A03F0706393423FF471AE86E67A
:105550000038024000004742134908B58B6803F049
:105560000C03042B1CD0082B1CD14A684B684968DB
:1055700013F4800314BF0D480D48C1F3881118BF00
:10558000002302F03F02A1FB0001FAF781FE064B67
:105590005B68C3F3014301335B00B0FBF3F008BD6C
:1055A0000248FCE70248FAE70038024000127A009D
:1055B0000024F4002DE9F0410D46044610B9012005
:1055C000BDE8F081444B1A6802F00F028A4228D3EA
:1055D000226897072DD4D00741D43F4B1A6802F0B8
:1055E0000F02AA4266D8226851076CD4130707D568
:1055F0003A4A2169936823F4604343EAC103936004
:10560000FFF7AAFF354B364A9B68C3F30313D35CFD
:10561000D840344B1860344B1868FCF753FB00201B
:10562000CEE7CAB21A701B6803F00F038B42C6D1D3
:10563000CEE72A4B12F0040F1EBF996841F4E051E7
:105640009960160742BF996841F460419960234907
:10565000A0688B6823F0F00303438B60BBE76268AC
:105660001E4B012A1CD11B6813F4003FA7D01B4E10
:10567000B36823F003031343B360FEF7BBF941F2B1
:1056800088380746B368626803F00C03B3EB820FF7
:10569000A3D0FEF7AFF9C01B4045F3D903208FE735
:1056A000911E01291B6802D813F0007FDEE713F07A
:1056B000020FDBE7EAB21A701B6803F00F03AB427C
:1056C0007FF47DAF8FE70549E0688B6823F4E053F2
:1056D00003438B608AE700BF003C02400038024071
:1056E000A4EE0108740000207C000020044B054A51
:1056F0009B68C3F38223D35C034A1068D840704789
:1057000000380240B4EE0108740000200F2303604B
:105710000B4B9A6802F0030242609A6802F0F002B2
:1057200082609A6802F4E052C2609B68DB0803F46E
:10573000E0530361034B1B6803F00F030B607047DA
:1057400000380240003C0240036813F0430FF7B5F5
:10575000044640F08C80236813F00C0F45D08B4B2F
:105760008B4D00221A67FEF745F906462B689F000D
:1057700000F1CF8021684E0715D5D4E90403D5F890
:1057800088201B0602F0E04243EA80131343C5F869
:105790008830D5F88C30226A23F4F853013A43EA72
:1057A0000223C5F88C300D0714D5794AA369D2F8C5
:1057B000881020691B0701F0706143EA80130B43D6
:1057C000C2F88830D2F88C30616A23F440330B433E
:1057D000C2F88C306D4B6E4E01221A67FEF70AF943
:1057E00005463368980040F19B8023689B0633D5BB
:1057F00000230193664B674D1A6C42F080521A6485
:105800001B6C03F080530193019B2B6843F480735E
:105810002B60FEF7EFF806462B68D90540F187802C
:105820005B4D2B6F13F4407340F08880A36A03F440
:105830004072B2F5407F564A40F0A480916823F050
:10584000704021F4F81120F4407001439160116F11
:10585000C3F30B030B431367206810F010001FBF46
:105860004D4B94F82C20C3F8E02100204FE0474B2B
:10587000474E00229A66FEF7BDF8054633681F01C1
:105880003FD42168CD0741BFD4E901231B0743EA78
:105890008213C6F88430880715D53D4AE368D2F8EC
:1058A000840065681B0600F0E04043EA851303436B
:1058B000C2F88430D2F88C00E36920F01F00013B6D
:1058C0000343C2F88C3049060AD5E36862681B06B8
:1058D00043EA8213A26843EA02732D4AC2F8843075
:1058E0002A4B2B4E01229A66FEF784F80546336850
:1058F0001A013FF530AFFEF77DF8401B0228F6D9BC
:1059000004E0FEF777F8401B0228B7D9032003B064
:10591000F0BDFEF76FF8801B02287FF627AFF5E792
:10592000FEF768F8401B02287FF65BAFEEE7FEF754
:1059300061F8801B02287FF66FAFE7E7A26A02F4E6
:10594000407293423FF472AF2B6F104A0121C2F8AC
:10595000401E23F440730021C2F8401E2B672B6FBA
:10596000DA077FF563AFFEF745F841F28837064660
:105970002B6F9B073FF55AAFFEF73CF8801BB842F0
:10598000F6D9C3E7916821F4F8115FE700004742B8
:1059900000380240007000400010474238B50D4604
:1059A0000446C8B190F82C3003F0FF021BB980F810
:1059B0002D20FCF71BF9022384F82C30211D2068D0
:1059C00000F07CFC62682068294600F0ADFC0123F1
:1059D00084F82C30002038BD0120FCE738B590F861
:1059E0002C30022B04460D46D8B20DD0022384F889
:1059F0002C30206800F0D4FC2B68022B0CBF052350
:105A0000012384F82C30002038BD10B590F82C30DC
:105A1000022B0446D8B209D0022384F82C30206827
:105A200000F0E5FC012384F82C30002010BDF8B50F
:105A300004460E4615461F462268936836EA03035D
:105A400001D000202DE06B1CF7D0FDF7D3FFC01B69
:105A50008542F1D823685A6822F0E0025A606268F1
:105A6000B2F5827F0AD1A268B2F5004F02D0B2F53A
:105A7000806F03D11A6822F040021A60A26AB2F560
:105A8000005F07D11A6822F400521A601A6842F4C3
:105A900000521A60012384F85130002384F85030FA
:105AA0000320F8BD38B513464268B2F5827F04463C
:105AB0001FD18268B2F5004F02D0B2F5806F07D1D6
:105AC00025682868B2F5806F20F04000286007D074
:105AD0000A4680212046FFF7AAFF20B9002038BDE2
