:020000040800F2
:100000000000032095050008F11B0008F31B000801
:10001000F51B0008F71B0008F91B00080000000092
:10002000000000000000000000000000215A00084D
:10003000FB1B000800000000B15A0008155B000817
:10004000E5050008E5050008E5050008E5050008E8
:10005000E5050008E5050008E5050008E5050008D8
:10006000E5050008E5050008E5050008E5050008C8
:10007000E5050008E5050008E5050008E5050008B8
:10008000E5050008E5050008E5050008E5050008A8
:10009000E5050008E5050008E5050008E505000898
:1000A000E5050008E5050008E5050008E505000888
:1000B000E5050008E5050008E5050008E505000878
:1000C000E5050008E5050008E5050008E505000868
:1000D000E5050008E5050008E5050008E505000858
:1000E000E5050008E5050008E5050008E505000848
:1000F000E5050008E5050008E5050008E505000838
:10010000E5050008E5050008E5050008E505000827
:10011000E5050008E5050008FD1B0008E5050008E9
:10012000E5050008E5050008E5050008E505000807
:10013000E5050008E5050008E5050008E5050008F7
:10014000E5050008E5050008E5050008E5050008E7
:10015000E5050008E5050008E5050008E5050008D7
:10016000E5050008E5050008E5050008E5050008C7
:10017000E5050008E5050008E505000800000000A9
:10018000E5050008E5050008E5050008E5050008A7
:10019000E5050008E5050008E5050008E505000897
:0C01A000091C0008E5050008151C0008FB
:1001B00010B5054C237833B9044B13B10448AFF3A1
:1001C00000800123237010BD6401002000000000A6
:1001D00004AF010808B5034B1BB103490348AFF353
:1001E000008008BD000000006801002004AF010885
:1001F00001F0FF01102A2BDB10F0070F08D010F8D8
:10020000013B013A8B422DD010F0070F42B3F6D1DB
:10021000F0B441EA012141EA014122F007047FF0F4
:1002200000070023F0E80256083C85EA010586EA4B
:10023000010685FA47F5A3FA87F586FA47F6A5FA87
:1002400087F68EB9EED1F0BC01F0FF0102F0070293
:1002500032B110F8013B013A83EA010313B1F8D13E
:100260000020704701387047002D06BF354603381F
:10027000073815F0010F07D1013015F4807F02BF58
:10028000013015F4C03F0130F0BC0138704700BFA9
:1002900053B94AB9002908BF00281CBF4FF0FF31ED
:1002A0004FF0FF3000F074B9ADF1080C6DE904CEE9
:1002B00000F006F8DDF804E0DDE9022304B0704741
:1002C0002DE9F047089D04468E46002B4DD18A4209
:1002D000944669D9B2FA82F252B101FA02F3C2F13C
:1002E000200120FA01F10CFA02FC41EA030E9440CD
:1002F0004FEA1C48210CBEFBF8F61FFA8CF708FBEE
:1003000016E341EA034306FB07F199420AD91CEBC5
:10031000030306F1FF3080F01F81994240F21C81F7
:10032000023E63445B1AA4B2B3FBF8F008FB10333F
:1003300044EA034400FB07F7A7420AD91CEB040474
:1003400000F1FF3380F00A81A74240F20781644444
:10035000023840EA0640E41B00261DB1D4400023C9
:10036000C5E900433146BDE8F0878B4209D9002D2D
:1003700000F0EF800026C5E9000130463146BDE8B7
:10038000F087B3FA83F6002E4AD18B4202D3824221
:1003900000F2F980841A61EB030301209E46002DD0
:1003A000E0D0C5E9004EDDE702B9FFDEB2FA82F225
:1003B000002A40F09280A1EB0C014FEA1C471FFA83
:1003C0008CFE0126200CB1FBF7F307FB131140EA6A
:1003D00001410EFB03F0884208D91CEB010103F137
:1003E000FF3802D2884200F2CB804346091AA4B2F9
:1003F000B1FBF7F007FB101144EA01440EFB00FECD
:10040000A64508D91CEB040400F1FF3102D2A64531
:1004100000F2BB800846A4EB0E0440EA03409CE7D0
:10042000C6F12007B34022FA07FC4CEA030C20FA7D
:1004300007F401FA06F31C43F9404FEA1C4900FA9D
:1004400006F3B1FBF9F8200C1FFA8CFE09FB18111A
:1004500040EA014108FB0EF0884202FA06F20BD98D
:100460001CEB010108F1FF3A80F08880884240F2DD
:100470008580A8F102086144091AA4B2B1FBF9F021
:1004800009FB101144EA014100FB0EFE8E4508D91C
:100490001CEB010100F1FF346CD28E456AD90238A1
:1004A000614440EA0840A0FB0294A1EB0E01A14286
:1004B000C846A64656D353D05DB1B3EB080261EBF4
:1004C0000E0101FA07F722FA06F3F1401F43C5E9CE
:1004D000007100263146BDE8F087C2F12003D84004
:1004E0000CFA02FC21FA03F3914001434FEA1C4746
:1004F0001FFA8CFEB3FBF7F007FB10360B0C43EA38
:10050000064300FB0EF69E4204FA02F408D91CEBE7
:10051000030300F1FF382FD29E422DD902386344E5
:100520009B1B89B2B3FBF7F607FB163341EA034185
:1005300006FB0EF38B4208D91CEB010106F1FF38D4
:1005400016D28B4214D9023E6144C91A46EA0046CB
:1005500038E72E46284605E70646E3E61846F8E65D
:100560004B45A9D2B9EB020864EB0C0E0138A3E7A6
:100570004646EAE7204694E74046D1E7D0467BE787
:10058000023B614432E7304609E76444023842E7FF
:10059000704700BFDFF834D0002103E00C4B5B58FC
:1005A000435004310B480C4B42189A42F6D30B4A85
:1005B00002E0002342F8043B094B9A42F9D302F0CF
:1005C000E3FC19F039FC00F045FE70470000032001
:1005D000E0DE01080000002064010020640100202A
:1005E00004350120FEE700F039BC00F0ABBC7047D9
:1005F00010B50421044619F0A6FB204610BD0000EA
:1006000038B50C4B0C4C18800C4B82201980636859
:10061000984740F6110398420AD1094D23682C608F
:10062000822098472B688220DB689847002038BDDD
:100630000120FCE7800100204C0000208201002006
:10064000840100204FF4A071F020FFF7D9BF000013
:10065000F7B52D4D2B6804461B698220984780B260
:100660002080002843D02B680DF106025B6901A9A8
:1006700082209847BDF80620A2F5B47292B20A2AE9
:1006800037D90B23B2FBF3F2204B1B889A4201D9D6
:10069000013B9AB2BDF8043040F6B8318B422AD8FB
:1006A000C3F571630E339BB20F21B3FBF1F318490D
:1006B00009888B4201D94B1E9BB2164E164D3068ED
:1006C0002F68834281B28CBF591AC91AB8B2BA4294
:1006D0008CBF101A801A89B280B201440529C8BFA4
:1006E00033603368C8BF2A6063802B68A38003B07F
:1006F000F0BD0022CEE7C3F56D6308339BB20E2B2D
:10070000D2D80023D9E700BF840100208201002055
:1007100080010020880100208C01002037B5684648
:100720000D461446FFF794FFBDF8000030B1BDF848
:1007300002302B60BDF804302360012003B030BDCF
:10074000704770477047012380F8741080F8753047
:100750007047002070470000034B4164003918BF08
:1007600001211970704700BF5732012000207047E7
:10077000836B0BB10846184770474FF6FF70704700
:10078000406803689B69184770477047704700F0DE
:1007900079BC08B503680446D3F8803098472368CD
:1007A00020469B6F984700F0EBF8236820461B6FAC
:1007B0009847292000F066FF00F0E2F82368204601
:1007C0001B6F9847F8E710B5044607F0F7FE23685B
:1007D0002046D3F8AC30BDE81040184700F044BCC8
:1007E00000F048BC00F074BC00F01ABC00F074BC0F
:1007F00000F07CBC00F01EBC07F048B910B57C21AD
:10080000044619F0A0FA204610BD90F877301BB1CD
:10081000406803681B6818471846704710B590F881
:10082000341090F874400C4B8C421A7809D03AB9C5
:100830000A4A0B491488088810800C8001221A701B
:1008400010BD002AFCD0054A05491488088810808C
:100850000C800022F3E700BF503201204C3201200F
:100860004E32012070B50D46194635B9094B0A4A7A
:100870000A4840F2D22119F095FAC0E90F52084B0C
:10088000003A18BF01221A700368BDE87040D3F81F
:100890008C30184774AF0108ACAF0108FAAF0108FB
:1008A0005632012008B5094B1B888B4203D8084BF0
:1008B0001B88934205D9074B074A08489E2119F027
:1008C00071FA074B1980074B1A8008BD4C32012082
:1008D0004E3201203FB00108A2B00108FAAF010872
:1008E0005232012054320120012108B5002208466D
:1008F00004F066FD0A4B186028B90A4B0A4A292100
:100900000A4819F04FFA00220421012004F01EFECB
:10091000074B186018B9074B034A2D21F0E708BDB3
:1009200094010020C0B1010809B2010838B20108E1
:100930009001002079B20108024B4FF0FF31186896
:1009400004F094BD94010020014B186804F0C8BD68
:1009500094010020024B0021186804F087BD00BFFD
:1009600094010020FFF7F0BF03480449006800230A
:100970001A4604F031BE00BF9001002004000020A0
:1009800013B5084C00231A4601A9206804F066FE3E
:1009900020684FF0FF33002201A904F05FFE02B08F
:1009A00010BD00BF9001002003685B6C1847012058
:1009B000704703689B6A184782B0002301930D4B70
:1009C0001A6B42F400021A631A6B02F400020192DD
:1009D000019A1A6942F400021A611A6922F40002AB
:1009E0001A61054B054A1A61054B4FF080629A6007
:1009F00002B070470038024078220020450A000803
:100A000000E100E040F2EF3070470000054B03606A
:100A1000054B4FF08062C3F88820BFF34F8FBFF3C0
:100A20006F8F70470CB4010800E100E010B5044678
:100A30004FF45A61FFF7EAFF204619F084F9204687
:100A400010BD0000024B1B68586803685B691847BB
:100A50005832012070B5044625460A4B0C3000265A
:100A600060602672667245F8203B6022294607F0D6
:100A7000FBFE04F55A63EE602435AB42FBD1204601
:100A800070BD00BF0CB4010808B50B290BD8DFE816
:100A900001F01206100A0A0A0A08080808080120CC
:100AA00008BD0520FCE7054B054A0648672119F0FB
:100AB00079F90020F4E70220F2E700BFBBB2010899
:100AC000D6B2010820B3010808B50A2909D8DFE821
:100AD00001F010060E0808080806060606000120A8
:100AE00008BD054B054A0648882119F05BF900202E
:100AF000F6E70220F4E700BFBBB201085FB30108CC
:100B000020B301082DE9F8434F7F0C463946814652
:100B1000FFF7BAFF94F81E80054641464846FFF7A6
:100B2000B3FF414606464846FFF7CEFFA18A628BD7
:100B3000424B521A1A649A61228B521A1A61E28A43
:100B4000586342EA01425A6420696268D863DA60F5
:100B5000216894F81CC080294FEA0C6226D010D876
:100B6000202945EA020461D040295FD004295DD0E4
:100B7000324B2A4342F400324745DA615AD0304AB8
:100B800040E0B1F5807F07D0B1F5007FF0D142F4AD
:100B9000003242F0090203E042F4003242F00A025D
:100BA000DA61E2681A625E6258612AE0A4682A4348
:100BB00042F40032211DD962DA6122785E62586106
:100BC00042B1012A21D01F4B1F4A20484FF489719E
:100BD00019F0E8F8DA69618822F47F42013922F0DD
:100BE000100242EA0122DA610120144BDA6942F074
:100BF0002002DA61DA699206FCD410229A60002899
:100C0000BDD0134A1A60BDE8F8836288D969541EC2
:100C100021F47F4222F0100242EA0422BCF1FF00DC
:100C200042F0100218BF0120DA61DEE744F400341C
:100C3000DC61B8E740F20122E4E700BF00B0024007
:100C400001020100AAB30108C4B3010820B30108DE
:100C50000102020070B50C46897FFFF735FFA68AB6
:100C6000E18A628B154B2569586341EA0641921B64
:100C70005964DD631A642668E168082E0DD19A6113
:100C80001A615862207F0E4A42EA0062DA610D4A18
:100C900019625D61DD601A6070BD0022D8611A6161
:100CA00048090A0A02F4784200F4FC600243C1F3E6
:100CB000C4010A439A63044AEDE700BF00B0024052
:100CC000090001000102020001020300034B1A683F
:100CD000D207FCD423229A60704700BF00B00240C4
:100CE00030B50F4C2568ED07FCD423250904A56019
:100CF00041F001010225FF2B65636164E0630AD0C6
:100D00000849656241EA0363E361074B226260615F
:100D1000E060236030BDE561039BA363034BF8E70C
:100D200000B00240090001000100020001000300C0
:100D3000012070470C2070470C2303FB0100083092
:100D400070470C2303FB01000830704701207047F7
:100D500041F28400704741F2840303FB0100083034
:100D6000704741F2840303FB010008307047012003
:100D700070471020704700EB01100830704700EBFF
:100D8000011008307047084601F01EB910B5034B3A
:100D90000360044606F0C5FB204610BDC4B401083C
:100DA00010B50446FFF7F2FF2046142118F0CBFFE0
:100DB000204610BD10B5034B0360044606F0B1FB9E
:100DC000204610BD90B4010810B50446FFF7F2FFAD
:100DD000204641F28C0118F0B6FF204610BD0000FD
:100DE00010B5034B0360044606F09BFB204610BD84
:100DF0005CB4010810B50446FFF7F2FF2046182145
:100E000018F0A1FF204610BD10B5094B0360044641
:100E100000F585501830FFF7B9FF04F12C00FFF7FB
:100E2000C9FF04F11400FFF7DBFF204610BD00BF2F
:100E3000F8B4010808B50248FFF7E6FF08BD00BF97
:100E40009C01002010B50446FFF7DEFF204641F26A
:100E5000282118F078FF204610BD00002DE9F3414D
:100E600000F046FF054600F047FF002401462346F8
:100E70002846224600940CF0A7FD264B264A274D13
:100E80001A60204601F04AFC25480CF005FD2B783D
:100E9000BFF35B8FDB0736D4284618F056FF90B3BC
:100EA000204C214F214B236007F1180604F1140058
:100EB00004F12C086060C4F80880E760266106F041
:100EC00031FB1B4B6361404606F02CFB194BE36280
:100ED000384606F027FB04F58053174AC3F8B820BC
:100EE00003F1CC0001F086FC224607F114013046E4
:100EF00001F076FC304601F067F8104818F070FFFA
:100F0000284618F02EFF0E4802B0BDE8F041FFF76A
:100F10003EBC00BFBC320120E4210020980100202B
:100F2000080000209C01002054120020F8B40108A1
:100F30005CB4010890B40108C4B40108350E00087F
:100F4000682100200148FFF724BC00BF6821002071
:100F500070B5234C234E244B244D23603046FFF7BD
:100F600079FD28460FF03AFE214B2248DC60224CE6
:100F700003600022F0204FF480712080C3E9121238
:100F80001E4C1F492080C3E919121E4C1A864FF0CF
:100F900080714FF4A07059670121C3E90422C3E9AD
:100FA0000622C3E90822C3E90A22C3E90E22C3E9E3
:100FB0001022C3E91422C3E916221A6683F86C20B2
:100FC0001A67C3E9016583F8781020800E4C83F816
:100FD000341020800D4802700D4A1A6070BD00BFA9
:100FE000C4130020C813002064AF0108E8210020CA
:100FF00068210020583201204C3201205232012059
:10100000010000014E3201205432012050320120F3
:10101000F0B001080148FFF7F9BC00BFC813002079
:10102000034B902283F85A2383F85823704700BF5C
:1010300000E100E0094A0A49D3680A48C3F30A03F9
:10104000013B9BB20B801169C1F30A010139018098
:101050001364536B43F0010353637047006801400E
:101060006422002062220020014BD3F8AC007047BC
:1010700000680140024B0122C3F8AC105A6270476D
:101080000068014070B5044606F055FD23685D6EAA
:1010900009F0E6FF01462046A8472368054AD3F831
:1010A00088502046AC460023BDE87040A2F51631BA
:1010B000604700BF005802D006F024BD90F84B30C6
:1010C00013B1024B01221A7006F028BD60220020E5
:1010D00006F0E2BC06F03BBE034B4FF080629A6024
:1010E0004FF080729A60704700E100E0084B4FF0CB
:1010F0008062C3F88820BFF34F8FBFF36F8F4FF02C
:101100008072C3F88820BFF34F8FBFF36F8F704793
:1011100000E100E010B5144C236823B3134B144ACC
:101120001B6C11888B4213D1124B198802F09EFF61
:10113000226892F86630013382F86630FFF714FCBB
:10114000206807F03BFABDE810400020FFF7F8BA2E
:1011500002F08CFF206803681B6A9847BDE81040C6
:101160000020FFF7EEBA10BD5832012000680140A0
:10117000642200206222002007B5064BADF806006D
:101180001B68054801220DF1060103F070FC03B055
:101190005DF804FB10000020E8230020F0B5A1B0AA
:1011A000102200210AA818F089FE1422002103A8A9
:1011B00018F084FE0021302214A818F07FFE0024CD
:1011C000224B01941A6C42F080521A641B6C03F09B
:1011D00080530193019B1E4B02941A6842F44042D3
:1011E0001A601B6803F4404302930122029B4FF4F0
:1011F0008033CDE9082302254FF48003CDE90E5357
:1012000008274FF4A873042608A8CDE91073129597
:10121000139602F049FF0F23CDE903354FF4A05197
:101220004FF48053CDE9061303A80521059403F07C
:1012300013F9C023189314A84FF4003314971A9687
:101240001D9303F0D3F921B0F0BD00BF0038024078
:101250000070004080B59AB001F0A4FEFFF79EFF39
:10126000142200210DA8002418F028FEB44B00948D
:101270001A6BB448B44D42F020021A631A6B02F0A4
:1012800020020092009A01941A6B42F080021A63C5
:101290001A6B02F080020192019A02941A6B42F0DA
:1012A00004021A631A6B02F004020292029A039477
:1012B0001A6B42F001021A631A6B02F001020392E8
:1012C000039A04941A6B42F002021A631A6B02F03A
:1012D00002020492049A05941A6B42F040021A63C7
:1012E0001A6B02F040020592059A06941A6B42F0BE
:1012F00010021A631A6B02F010020692069A079403
:101300001A6B42F008021A631B6B03F00803079381
:1013100022460421079B02F0CBF822468B484FF46B
:10132000405102F0C5F8012602274FF00408854815
:101330000F940DA9CDE90D86109701F0D1FF0DA9ED
:101340004FF440538148CDE90D36CDE90F4701F008
:10135000C7FF7F487F4B036001F0B6FE7E4A7F4B9C
:101360002C62C5E9002328464FF48043C5E90434C4
:10137000C5E90244C5E9064402F07CFA102128467A
:1013800002F0B8FC2146284602F0D3FC74487549A7
:1013900084624FF48273C0E900134FF40075182380
:1013A000C0E906530A23704DC362C0E90244C0E994
:1013B0000444C0E9084403F01DFB6C4B0D974FF04B
:1013C000100CC5E900364023C5E904C34FF4C073CF
:1013D000C5E906344FF40063C5E908344FF40053FF
:1013E000AB624FF0030A07230DA92846CDE90E385A
:1013F00010934FF00809C5E90248CDE911A71397EA
:1014000003F01EFA4FF6FF7209A92846CDE90A96A5
:10141000089409960C9403F033FA304601F0EEFD7F
:101420004FF6FF7209A92846CDE90979CDE90B6489
:1014300003F026FA4FF6FF7209A92846CDE909A95B
:10144000CDE90B8403F01CFA4FF40C730893089B4E
:101450000C934FF6FF7209A92846CDE909890B962E
:1014600003F00EFA40F26A51284603F020FA3422C3
:1014700021460DEB020018F021FD3D4D3D4BAC86A1
:10148000C5E900340923C5E905361D2340F20D1EC8
:10149000C5E9073A40F24313C5E909E3284640F29B
:1014A000471340F21718C5E90B83C5E902442C61C4
:1014B00085F8364002F0E2FCFF21F022CDE912145B
:1014C0004FF4806905214FF4A073CDE90E24CDE9D6
:1014D0001491CDE916420DA922462846CDE91037D0
:1014E000254D18930D94ADF864408DF8664002F0D8
:1014F00090FD224B2B601B6898472B68204DDB68C2
:101500009847204BC5E90A47C5E90C442846C5E978
:101510000034C5E9027401F0E7FD3146284601F0C8
:101520009BFEFFF760F803F0BBFE174A1748214601
:1015300003F0F0FE164B186003F0CCFEFEE700BF90
:101540000038024000080240B8220020000C02408F
:101550007022002000300240005C0040A0860100A4
:10156000E823002000500140B4230020400100A0E7
:101570000C230020006801406C2200201400002091
:101580007822002000B0024010B50108EB050008E9
:1015900068220020704770477FB5094B8DF81720EF
:1015A0001B6802930DF117020123009201930A4672
:1015B0000146044802F006FA07B05DF804FB00BFDC
:1015C0000C000020B82200207FB500238DF81730D2
:1015D000084B1B6802930A4601230DF11701009185
:1015E00001930146044802F07DFA9DF8170007B008
:1015F0005DF804FB0C000020B82200201FB5084C49
:1016000024680092CDE901340A46012301460548C9
:1016100002F068FA003818BF012004B010BD00BF06
:101620000C000020B822002001F0E8BC08B50648F4
:101630000022042101F03CFFBDE8084002480122DD
:10164000042101F035BF00BF0008024038B50B4D42
:10165000044601220A484FF4005101F029FF0022FC
:101660000421284601F024FF2046FFF785FD284687
:101670000122BDE83840042101F01ABF00080240F1
:10168000000C024038B50B4D044600220A484FF4C6
:10169000005101F00DFF00220421284601F008FF4F
:1016A0002046FFF769FD28460122BDE838400421A5
:1016B00001F0FEBE00080240000C0240F7B5144ED7
:1016C000144F05460C4630460022042101F0F0FE7E
:1016D00000224FF40051384601F0EAFE2846FFF799
:1016E0004BFD0D4B0D481B68224601A903F05DFB25
:1016F000384601224FF40051019C01F0D9FE3046DA
:101700000122042101F0D4FE204603B0F0BD00BF49
:1017100000080240000C024010000020E8230020D6
:1017200001F06CBC0268034B9A4201D101F054BC39
:10173000704700BF0010004082B00E4B00220092A4
:10174000596C41F480415964596C01F48041009115
:1017500000990192196C41F0805119641B6C03F0DF
:1017600080530193019B0F216FF0010002B001F043
:101770006BBC00BF003802400268094B9A4282B03D
:101780000BD100230193074B1A6B42F480521A636A
:101790001B6B03F480530193019B02B0704700BFA1
:1017A000003002400038024007B50F4B02689A42F1
:1017B00016D10022A3F5F0430192196B41F4000108
:1017C00019631B6B03F40003019305215A20019B4D
:1017D00001F03AFC5A2003B05DF804EB01F066BC5E
:1017E00003B05DF804FB00BF00B002402DE9F043F8
:1017F000044689B01422002103A818F05FFB226878
:10180000244B9A4243D1244C244800250095236B55
:1018100043F004032363236B03F004030093009B52
:101820000195236B43F001032363236B03F0010352
:101830000193019B4FF012094FF400734FF0010820
:101840000327042603A9CDE90339CDE905870796C7
:1018500001F046FD4FF480731148079603A9CDE9C6
:101860000339CDE9058701F03BFD0295236C43F474
:1018700000032364236C03F400030293029B236A96
:1018800043F400032362236A23F40003236209B0B4
:10189000BDE8F083005C00400038024000080240D0
:1018A00000000240F0B504468DB01422002107A8C4
:1018B00018F004FB2268574B9A4240F0A88003F5C9
:1018C0005043002500955A6C534842F080625A6498
:1018D0005A6C02F080620092009A01951A6B42F0F5
:1018E00020021A631A6B02F020020192019A0295FB
:1018F0001A6B42F001021A631A6B02F001020292A3
:10190000029A03951A6B42F002021A631A6B02F0F4
:1019100002020392039A04951A6B42F040021A6382
:101920001A6B02F040020492049A05951A6B42F079
:1019300004021A631A6B02F004020592059A0695D6
:101940001A6B42F008021A631B6B03F0080306933C
:1019500002240E26069B0A944FF4806307A9CDE962
:1019600007340B9601F0BCFC41F658032B480B964C
:1019700007A9CDE907340927CDE9095401F0B0FCE6
:10198000032327480B9707A9CDE90734CDE909546C
:1019900001F0A6FC4FF4706321480B9607A9CDE92E
:1019A0000734CDE9095401F09BFC4FF40C631D484A
:1019B0000B9607A9CDE90734CDE9095401F090FC55
:1019C000C02319480B9607A9CDE90734CDE909547E
:1019D00001F086FC082315480B9607A9CDE90734CA
:1019E000CDE9095401F07CFC4FF4A0530D480B974E
:1019F00007A9CDE90734CDE9095401F071FC58205D
:101A00002A46052101F020FB582001F04FFB0DB0C4
:101A1000F0BD00BF00680140001402400000024019
:101A2000000402400018024000080240000C02407E
:101A300010B5044688B01422002103A818F03EFA1D
:101A40002268144B9A4223D103F568430021019187
:101A50005A6C114842F480125A645A6C02F4801293
:101A60000192019A02911A6B42F020021A631B6BD9
:101A700003F020030293029B4FF4607202230321C0
:101A8000CDE903230523CDE9061303A901F028FCC2
:101A900008B010BD00500140001402402DE9F04193
:101AA00086B0002303932B4B1C68002C4FD14FF0C2
:101AB0000108C3F80080284B00949A6B274842EA3B
:101AC00008029A639B6B03EA08030093022703262C
:101AD0000C25009B01A94FF63F03CDE90137CDE965
:101AE000046501F0FDFB1E48059501A9CDE90187BC
:101AF000CDE9034601F0F4FB48F23313194805958C
:101B000001A9CDE90137CDE9034601F0E9FB4FF624
:101B100083731548059501A9CDE90137CDE9034641
:101B200001F0DEFB4CF203731048059501A9CDE9E5
:101B30000137CDE9034601F0D3FB60230C4805953E
:101B400001A9CDE90137CDE9034601F0C9FB06B093
:101B5000BDE8F0814024002000380240001402401B
:101B6000000802400018024000100240000C024031
:101B70000004024030B5014689B00022362001F051
:101B800063FA362001F092FA0025154B02951A6C83
:101B9000144C42F010021A641B6C03F01003029301
:101BA00001A903A8029B02F003FD02F0F1FC0E4B19
:101BB000236040F2E733E36040000C4BB0FBF3F0EE
:101BC0000138606020462561A56003F0ADFA20B9B8
:101BD000204603F08DF909B030BD0120FBE700BFBE
:101BE00000380240442400200010004040420F0012
:101BF0007047FEE7FEE7FEE7FEE77047014803F0A7
:101C00008BB900BF44240020014802F0A5B900BFF1
:101C10000C230020014801F095BA00BF7822002073
:101C20000120704708B518F0EFF8162303604FF055
:101C3000FF3008BD08B518F0E7F816230360FEE78B
:101C400070B50D4614460E46731B9C4201DC2046BF
:101C500070BDAFF3008006F8010BF5E770B50D46D7
:101C600014460E46731B9C4201DC204670BD16F8DC
:101C7000010BAFF30080F5E74FF0FF3070474FF4F2
:101C800000534B60002070470120704700207047D0
:101C90000A4A116808B5034609B909491160106874
:101CA000694603448B4206D918F0AEF80C23036052
:101CB0004FF0FF3008BD1360FCE700BF8424002014
:101CC00008350120704710B50421044618F03BF890
:101CD000204610BD08B519B1012905D0002008BD66
:101CE00000F05AFD0068FAE700F056FD4068F6E79C
:101CF0000048704748B501080120704713B500241B
:101D000051B1036801948DF8034001AA9C680DF15C
:101D10000303A04702B010BD0846FBE740897047A7
:101D2000808970478088704783798088184480B2A2
:101D30007047C07900F07F007047C079C0097047D4
:101D40007047704700F596730868496803C3704789
:101D5000704770474160704770470000064BC0F8FD
:101D600048310023C0F84C3100F5A073C0F844019D
:101D7000C0F83C31704700BF1D1E000801230372EC
:101D800070477047704710B4C268416854100346EA
:101D900001EB6200D20748BF0A599B685DF8044B0B
:101DA00048BFD358184743682BB183682BB9C06824
:101DB00000F001007047184670470120704710B5C9
:101DC0000C21044617F0BFFF204610BD10B51021AE
:101DD000044617F0B8FF204610BD10B54FF4AC71A3
:101DE000044617F0B0FF204610BD08B509F038F9D9
:101DF000BDE8084009F014BD10B50446D0F83C0118
:101E000058B10368DB68984738B1D4F83C010368DF
:101E10009B6898470023C4F83C3110BD2DE9F14F71
:101E2000D0E9545A0746A86803681B6A984741F2EC
:101E30008303984205D8454B454AA321454817F0EE
:101E4000B1FF686803681B6A98470F2803D8424BA4
:101E50003F4AA421F2E7E86803681B6A98470B2809
:101E600003D83E4B3A4AA521E8E7DFF8F89009F09D
:101E7000F7F809F037F9D9F8000010B10368DB680A
:101E80009847D9F8000010B103681B689847DFF83D
:101E9000D880D8F8000010B103685B699847D7F87C
:101EA000380110B103685B689847D8F8000010B19A
:101EB00003681B689847D7F8380110B103689B681E
:101EC0009847E868036800215B6A98474FF0000B69
:101ED000234B03600446C0F804B080F808B0A8683B
:101EE000036859465B6A9847064600F0A3FD686898
:101EF000036859465B6A98473146054600F08CFCFA
:101F0000C9F80040C7F83851C8F80060E5B12B1D8A
:101F1000CAF800303368C5F808A03046DB68F563BE
:101F200098472B6828461B689847214630460AF098
:101F300081FD236820461B69984723685B6920461A
:101F400001B0BDE8F04F18472B46E1E75CB501084A
:101F5000EAB50108F4B601083BB70108DEB701088D
:101F6000F0B80108A03201209C32012070B504466F
:101F70000D46164609F0D0F80F4A0023C4E954650F
:101F80000E4D1460C4E952330D4A226028680D4A90
:101F9000C4E94E33C4E95023036801219B68984784
:101FA0002B6893F876200AB1D86C00B9986810F0C5
:101FB000FCFB204670BD00BFAC320120583201202E
:101FC000A4B801088CB80108064BC0F848310023BA
:101FD000C0F84C3100F5A073C0F84401C0F83C31A2
:101FE000704700BF1D1E0008006A7047406A7047B6
:101FF00070478B8880690A68DB0A50F82300104418
:10200000704710B5C2B1137BB3B1547BD27A2402AE
:1020100004F4E0641443C26998B202EB84021388AA
:102020008B4202D192F9020010BD05D8013880B26E
:1020300004320028F3D1F7E70020F5E710B5282196
:10204000044617F080FE204610BD000030B589B070
:102050000446BDF850500695BDF84C5005959DF8C6
:10206000405004959DF83C5003959DF838500295DA
:102070009DF8345001959DF8305000950AF070F8A5
:10208000064B2360119BA361129BE361159B2362A6
:10209000169B6362204609B030BD00BF14B9010829
:1020A0000020704781807047C18070470181704770
:1020B000418170477047704770477047704710B450
:1020C000C4880368121B84885B6D091B12B25DF81B
:1020D000044B09B218474FF6FF7383814FF0FF336B
:1020E00003621368C36110607047704770477047A0
:1020F0007047704790F825201AB190F8242002B15B
:1021000018607047002070478B88838001207047DB
:10211000704770477047704781857047808D704762
:1021200010B54421044617F00EFE204610BD10B530
:1021300041F27801044617F006FE204610BD90F8E3
:10214000252012B103685B691847704708B590F8FD
:1021500028300BB1FFF7F3FF08BD90F829302DE9C7
:10216000F0410446002B40D0438D858D01339BB256
:10217000AB42438539D35B1B828E866B9DB2038E47
:10218000D21A12B2C38D00212846B047638EE28E68
:10219000E76BD21A0646E38D12B200212846B847F3
:1021A000628E218E0244314412B209B22046FFF7FA
:1021B00086FFA38DE18D628D0B449A4215D30023D7
:1021C00084F82930638508F04BFF214608F074FF3E
:1021D000206C50B10368DB68984730B1206C03680D
:1021E00021469B68BDE8F0411847BDE8F08170B515
:1021F000036804461B6B154698472368294620460A
:102200005B6BBDE87040184770B504461D46BDF9CC
:102210001060FFF7ECFF2368294620469B6B984728
:10222000236831462046DB6BBDE87040184700004C
:10223000094A02604FF4807100228184FF21C0E9C5
:102240000122C0E90322C0E90522C0E9072280F883
:1022500026108262704700BFACC0010870B5002331
:10226000124E8380124B0360336893F87620054644
:102270000AB1D86C00B998680368DB6A984733687C
:10228000B0FA80F4D86C640930B10368DB6A98470F
:10229000002808BF44F001042CB9064B064A074841
:1022A0002C2117F07FFD284670BD00BF5832012059
:1022B00068BA010864B90108C2B90108FBB901088C
:1022C00010B4C46BB4EB411F4FEA411204D05DF867
:1022D000044BC26306F0FCBC5DF8044B7047000081
:1022E0002DE9F04F2DED028B044687B0A146002565
:1022F0000AF0F4F9984BE56349F8403B4846FFF78C
:1023000097FF04F16C0304F19808184608EE103AA0
:10231000DFF854A2FFF78CFF04F5847B404606F0FB
:10232000B7FC5846FFF79AFF04F58E770AF12403AD
:10233000C4F808A1C4F81031C4F81451384606F0A6
:10234000A7FC04F5C673184604F5D0760293FFF790
:1023500085FF0AF12403C4F88CA1C4F89431C4F8B1
:102360009851304606F094FC04F504731846039324
:10237000FFF774FF0AF12403C4F818324FF4807396
:10238000A4F84832754BC4F810A24FF0FF3204F5A0
:10239000097AC4F824324FF0FF33A4F84A2284F8B3
:1023A0004C3205A95046C4E98A55C4E98C55C4E9A4
:1023B0008E55C4E99055C4F81C52ADF8142006F0AF
:1023C00098FE674BC4F8243204F51A70C4E994559A
:1023D000C4E99655C4E9985584F84D52A4F84E5274
:1023E0004FF4616107F086FD4FF4A07300932A4615
:1023F00029464846F023FFF707FF4FF07F43A366C7
:102400004FF4A07318EE100A00932A462946F023D1
:10241000FFF7FAFE534BC4F894304FF4A0730093C7
:102420002A4629464046F023FFF7EEFE4FF0FF33E1
:10243000C4F81431A4F81831C4F8C0B02A464FF4D7
:10244000205B40464FF4706106F038FD5A46404626
:102450004FF4706106F03DFD40460221FFF730FF6A
:102460004046012106F040FD4FF4A072009229463B
:102470002A4638466423FFF7C7FE029BC4F844315E
:102480004FF0FF32C4F89821A4F89C2138462A4620
:102490004FF4F06106F012FD5A4638464FF4F061F1
:1024A00006F017FD38460221FFF70AFF38460121E2
:1024B00006F01AFD4FF4A072009229462A463046D3
:1024C000F023FFF7A1FE039BC4F8C8314FF0FF32A1
:1024D000C4F81C22A4F8202230462A464FF4B451F6
:1024E00006F0ECFC5A4630464FF4B45106F0F1FCCD
:1024F00030460221FFF7E4FE3046012106F0F4FCED
:10250000DF2250460E21FFF772FE05A95046ADF8B6
:10251000145006F0EEFD201D4946029005F016F815
:1025200018EE101A029805F011F80298414605F0CD
:102530000DF80298394605F009F80298314605F081
:1025400005F80298514605F001F8204607B0BDECA9
:10255000028BBDE8F08F00BFFCBA010814C101086E
:1025600088BA01084F4F4FFFD8BE010870470000DE
:1025700030B5154D2C78BFF35B8F14F001048DB08E
:102580001ED1284617F0E1FBD0B13F2307930F4B34
:1025900006930F4B0F49104808940122CDE90443DC
:1025A0000423CDE90132CDE909440A2303940094C0
:1025B000FFF74CFD094817F013FC284617F0D1FB34
:1025C00005480DB030BD00BF88240020C4C70108F5
:1025D000CCC70108A4C701088C2400206D25000881
:1025E0007047000030B5154D2C78BFF35B8F14F0A9
:1025F00001048DB01ED1284617F0A7FBD0B13F23B0
:1026000007930F4B06930F4B0F4910480894012274
:10261000CDE904430423CDE90132CDE9094428235F
:1026200003940094FFF712FD094817F0D9FB2846E0
:1026300017F097FB05480DB030BD00BFB424002053
:10264000C8C70108D0C70108B4C70108B8240020D2
:10265000E125000800207047002070470EB403B544
:1026600003AB002153F8042B019309F0ABFB02B03C
:102670005DF804EB03B070470CB407B504AB53F836
:10268000042B019309F09EFB03B05DF804EB02B04C
:1026900070470000436C10B5044673B3038F2BB929
:1026A000184B194AC021194817F07CFBC38E00EB68
:1026B00043035B8C0BB30AF0B4FE238F012B03D8CA
:1026C000134B144AC521EEE7E28E531C9BB2092B33
:1026D000194688BFA3F10A0104EB410140F63F10FF
:1026E000498C814209D10A2B04EB420228BF002306
:1026F00004EB4303508C588451842046BDE81040BD
:102700000AF092BD28BB010831BB0108DCBB0108FF
:1027100026BC010834BC01080AF04DBD38B518BB11
:10272000124B13481B681349B3B11A689C681A44CA
:1027300002605A681A440A601C440F4B00221A8037
:1027400000F02AF8054600F025F80C4B1C600C4BF5
:102750001D600C4B188007E00B4B03600B4B0B60AC
:102760000B4B1C68002CE8D138BD00BFE0240020D2
:10277000E4240020E8240020EC240020B0320120D2
:10278000B8320120B4320120D8C70108D4C70108EB
:10279000E0C701080020704700487047F02400207F
:1027A00010B5FFF71FFF034C2060FFF7E1FE6060EC
:1027B00010BD00BFF0240020704710B54FF4AC717D
:1027C000044617F0C0FA204610BD10B50446D0F8F4
:1027D000540100F012F82046BDE8104008F0EEBAAF
:1027E00010B50446FFF7C2FB014B2360204610BD25
:1027F00010BD01080022026070477047704704381E
:102800007047704710B51021044617F09CFA204617
:1028100010BDA0F10400F5E710B500228260044A63
:10282000C16002F1080420320460426010BD00BFA4
:1028300054BD01087047704710B50446FFF76AFCA5
:1028400004F580530022DA67D4F828229A6702221E
:10285000C3F8802010BD10B541F28401044617F082
:1028600072FA204610BD000090F84D322DE9F04775
:10287000044600F509753BB108F0F2FB294608F063
:102880001BFC002384F84D3204F58053B3F8781014
:10289000D3F88020C9B9082A13D10222C3F88020B6
:1028A000B3F87A20D3F8800002BB022817D10420A5
:1028B000C3F880000131A3F878100132A3F87A2020
:1028C00041E0062AECD10422E8E7CB29E8D1022A2C
:1028D00001D10822E2E7042AE2D10622DEE7082835
:1028E00017D10620C3F880000139E4E7F02A10D19F
:1028F000042807D10220C3F880000131A3F8781022
:10290000013ADBE7062804D10820C3F8800001392A
:10291000F4E70138072816D801A656F820F000BFC2
:1029200001290008FB28000841290008B5280008F3
:10293000BB280008E9280008292A00080F290008F8
:102940000131A3F878109E6FB3F8787094F84D3287
:1029500023B908F085FB294608F088FB0023A4F87A
:102960004E32D4F828323249B4F92822C4E99536D7
:102970001423A4F85232D4F85082C4E997110121EB
:1029800084F84D12B8F1000F50D1B4F85062A4F899
:102990004E128E424AD88E1BB6B2BA1A12B24146B5
:1029A00030460AF04DF8B4F85632B4F85A22D4F84A
:1029B0006072D21A8146B4F8523212B241463046A1
:1029C000B847B4F82A32B4F85622B4F82812D21A0A
:1029D000B4F854325B1A03EB0901024412B209B293
:1029E000284609F091FBB4F85032B4F85212B4F80A
:1029F0004E220B449A4219D384F84D82A4F84E8299
:102A000008F02EFB294608F057FBD4F8640268B1A1
:102A10000368DB68984748B1D4F864020368294624
:102A20009B68BDE8F047184701398AE7BDE8F087A1
:102A300041CA000810B50446FFF752FC014B236061
:102A4000204610BD84BD0108F02070474FF4A070EF
:102A500070472920FEF716BE2820FEF713BE08B5E2
:102A6000FEF7E4FDCA20FEF70DFEC320FEF7EEFDE3
:102A70000820FEF7EBFD5020FEF7E8FDCF20FEF723
:102A800001FE0020FEF7E2FDC120FEF7DFFD302051
:102A9000FEF7DCFDED20FEF7F5FD6420FEF7D6FD28
:102AA0000320FEF7D3FD1220FEF7D0FD8120FEF7B4
:102AB000CDFDE820FEF7E6FD8520FEF7C7FD0020EE
:102AC000FEF7C4FD7820FEF7C1FDCB20FEF7DAFD4E
:102AD0003920FEF7BBFD2C20FEF7B8FD0020FEF7E5
:102AE000B5FD3420FEF7B2FD0220FEF7AFFDF72062
:102AF000FEF7C8FD2020FEF7A9FDEA20FEF7C2FD83
:102B00000020FEF7A3FD0020FEF7A0FDB120FEF798
:102B1000B9FD0020FEF79AFD1B20FEF797FDB620B9
:102B2000FEF7B0FD0A20FEF791FDA220FEF78EFD14
:102B3000C020FEF7A7FD1020FEF788FDC120FEF79C
:102B4000A1FD1020FEF782FDC520FEF79BFD45206C
:102B5000FEF77CFD1520FEF779FDC720FEF792FDFC
:102B60009020FEF773FD3620FEF78CFDC820FEF79F
:102B70006DFDF220FEF786FD0020FEF767FDB02018
:102B8000FEF780FDC220FEF761FDB620FEF77AFD5C
:102B90000A20FEF75BFDA720FEF758FD2720FEF771
:102BA00055FD0420FEF752FD2A20FEF76BFD0020A4
:102BB000FEF74CFD0020FEF749FD0020FEF746FD24
:102BC000EF20FEF743FD2B20FEF75CFD0020FEF713
:102BD0003DFD0020FEF73AFD0120FEF737FD3F20C6
:102BE000FEF734FDF620FEF74DFD0120FEF72EFD29
:102BF0000020FEF72BFD0620FEF728FD2C20FEF717
:102C000041FDC820FEF78CFD2620FEF73BFD01208C
:102C1000FEF71CFDE020FEF735FD0F20FEF716FD48
:102C20002920FEF713FD2420FEF710FD0C20FEF7EF
:102C30000DFD0E20FEF70AFD0920FEF707FD4E20D0
:102C4000FEF704FD7820FEF701FD3C20FEF7FEFCB8
:102C50000920FEF7FBFC1320FEF7F8FC0520FEF729
:102C6000F5FC1720FEF7F2FC1120FEF7EFFC002028
:102C7000FEF7ECFCE120FEF705FD0020FEF7E6FC88
:102C80001620FEF7E3FC1B20FEF7E0FC0420FEF715
:102C9000DDFC1120FEF7DAFC0720FEF7D7FC31201F
:102CA000FEF7D4FC3320FEF7D1FC4220FEF7CEFC29
:102CB0000520FEF7CBFC0C20FEF7C8FC0A20FEF72F
:102CC000C5FC2820FEF7C2FC2F20FEF7BFFC0F201A
:102CD000FEF7BCFC1120FEF7D5FCC820FEF720FD56
:102CE0002920FEF7CFFCBDE808402C20FEF7CABC27
:102CF00008B5FEF79BFC0321D320FEF7DFFC80B272
:102D000008BD10B5C4B2022203212046FEF744FCE0
:102D10000A20FEF789FC204600220321FEF73CFC36
:102D2000BDE810400220FEF77FBC38B50446E4B28F
:102D3000FEF730FC00212046FEF746FC0121054647
:102D40002046FEF741FC40EA052080B238BD10B5B0
:102D5000C4B240212046FEF737FC030607D54C21BC
:102D60002046FEF731FC003818BF012010BD0122BB
:102D70004B212046FEF710FC204600224B21FEF797
:102D80000BFC0020F2E773B50423C4B20E461546CF
:102D9000D7210DEB03022046FEF730FC019B1BBA46
:102DA0001A0DC3F30B23328020462B8001224B21C6
:102DB000FEF7F2FB00224B212046FEF7EDFB02B0AE
:102DC00070BD000010B50A4B1A78904204460DD031
:102DD000597888420AD00AB141B901229C54FEF7C1
:102DE000D9FB2046BDE81040FFF78BBF10BD00BFE8
:102DF000F824002010B5C4B209212046FEF7E4FBF8
:102E000040F00100C2B209212046BDE81040FEF7A3
:102E1000C3BB10B5C4B209212046FEF7D5FB09217A
:102E200000F0FE022046BDE81040FEF7B5BB38B505
:102E3000C4B20D4620460A21FEF7C6FB2843C2B2A3
:102E40000A212046BDE83840FEF7A6BB07B5019031
:102E5000FEF7A1FB01981F21FFF7E9FF019803B0DE
:102E60005DF804EBFFF7C6BF38B5C4B20D46204687
:102E70000A21FEF7A9FB20EA0500C2B20A2120467A
:102E8000BDE83840FEF788BB10B50446FFF7C1FF28
:102E900020461F21BDE81040FFF7E6BF10B5C0B2C5
:102EA0000C460B21FEF790FB204010BD1F21FFF7C1
:102EB000F5BF0A46C0B20B21FEF76EBB1F21FFF71C
:102EC000F8BF38B5C4B20D4620461721FEF77CFB8B
:102ED00020EA0500C2B217212046BDE83840FEF7BF
:102EE0005BBB70B5C4B2064604212046FEF76CFBFE
:102EF000042100F0FB0205462046FEF74DFB30465C
:102F0000F021FFF7DEFF05F0F80220460421FEF76E
:102F100043FB492220212046FEF73EFB0220FEF71C
:102F200083FB204601222121FEF736FB20469A2210
:102F30004121FEF731FB204601224A21FEF72CFBFE
:102F4000204601224B21FEF727FB204600224B2181
:102F5000FEF722FB204601225621FEF71DFB2046EC
:102F600001225821FEF718FB204601224021FEF7DE
:102F700013FB2046FF220B21FEF70EFBBDE870403D
:102F80000220FEF751BB0000054BD3F8882042F425
:102F90007002C3F888204FF000629A60704700BF4B
:102FA00000ED00E008B50B4B1A6842F400721A609D
:102FB0001A6842F480621A601A6842F480721A60D9
:102FC000032000F02FF80020FEF7D4FDFEF7B4FB3D
:102FD000002008BD003C0240034A044B11681B78E6
:102FE0000B441360704700BFFC24002078000020D1
:102FF000014B1868704700BFFC24002038B5044618
:10300000FFF7F6FF631C1CBF054B1B78054618BF76
:10301000E418FFF7EDFF431BA342FAD338BD00BF0E
:10302000780000200749CA6822F4E0620302120413
:1030300003F4E063120C134343F0BF6343F4003323
:10304000CB60704700ED00E0164B30B5DC68C4F390
:103050000224C4F10705231D042D28BF0425062BD7
:103060004FF0FF338CBF033C002403FA05F521EA3F
:103070000501A34022EA0302A140002841EA02031D
:10308000ACBF00F16040084A4FEA0313B8BF00F03C
:103090000F00DBB2AABF00F56140135480F8003383
:1030A00030BD00BF00ED00E014ED00E0002808DBBB
:1030B0004209012300F01F0003FA00F0014B43F81E
:1030C0002200704700E100E010B5044650B143799A
:1030D00003F0FF0213B90271FEF74EFB0123637187
:1030E000002010BD0120FCE710B5044630B390F875
:1030F000393003F0FF021BB980F83820FEF754FB8B
:1031000022686168022384F83930136823F440335D
:103110000B431360536BA16823F007030B43536306
:10312000136CE16823F47F5323F03F030B431364D4
:1031300000200123E06384F8393010BD0120FCE752
:1031400070477047036870B55E681D68F2070446F3
:1031500014D5E90512D51A6822F480721A60C26B80
:1031600042F00102C26301229A60042380F83930E0
:10317000002380F83830436903B19847B20616D56A
:10318000AB0414D523681A6822F400521A60202276
:103190009A60E36B43F00203E363042384F839305D
:1031A000002384F8383063690BB120469847300714
:1031B00016D5290514D523681A6822F400621A600E
:1031C00008229A60E36B43F00403E363042384F86A
:1031D0003930002384F8383063690BB120469847B2
:1031E00072070BD56B0509D523681A6822F4806233
:1031F0001A6004229A602046FFF7A2FFB00714D598
:10320000A90512D523681A6822F400721A600222F6
:103210009A60E36BE363012384F83930002384F878
:10322000383023690BB120469847F20613D5EB04DA
:1032300011D523681A6822F480521A6010229A600D
:10324000E36BE363012384F83930002384F83830DA
:103250002046FFF776FF70BDF0B590F83830012BAF
:103260004FF002032BD0012280F8393080F838204B
:1032700000EB0113D3E907425D6A184F44EA0242AA
:10328000093C012C9CBF05F07F431A434FEA01160D
:10329000036888BF42EA056299B9596A39400A430E
:1032A0005A62012C82699A6103D8426A22F07F42F5
:1032B0009A62012380F83930002380F838301846AC
:1032C000F0BDD96939400A43DA618219012C92694B
:1032D0001A619CBF25F07F451D62EAE7F0FFFC0004
:1032E0002DE9F74FDFF8C0816D4ADFF8C091002368
:1032F0000D6801249C4004EA0506AC4340F0B78009
:103300004C6824F0100C4FEA430E03250CF1FF37F4
:1033100005FA0EF5012F6FEA050511D8876807EA4F
:10332000050ACF6807FA0EF747EA0A078760476879
:1033300027EA060AC4F300179F4047EA0A074760D6
:10334000C76807EA050A8F6807FA0EF747EA0A070F
:10335000BCF1020FC76016D14FEAD30A00EB8A0A0C
:1033600003F0070BDAF820704FEA8B0B4FF00F0CCD
:103370000CFA0BFC27EA0C0C0F6907FA0BF747EA6B
:103380000C07CAF8207007683D4004F0030707FAED
:103390000EF73D430560E50069D54FF0000BCDF811
:1033A00004B0D8F844703F4D47F48047C8F84470E3
:1033B000D8F8447007F480470197019F23F0030772
:1033C00007F1804707F59C3703F0030ED7F808A0F4
:1033D0004FEA8E0E4FF00F0C0CFA0EFCA8422AEAB0
:1033E0000C0C4BD005F58065A84249D005F58065E9
:1033F000A84247D005F58065A84245D005F580650F
:10340000A84243D0484543D005F50065A84241D0C5
:1034100005F58065A8423FD005F58065A8423DD0FE
:1034200005F58065A8420CBF09250A2505FA0EF5A9
:1034300045EA0C05BD601568F74314F4803F0CBFE6
:103440003D4035431560556814F4003F0CBF3D40C6
:1034500035435560956814F4801F0CBF3D403543DB
:103460009560D568A40254BF3D403543D560013313
:10347000102B7FF43DAF03B0BDE8F08F5D46D5E77C
:103480000125D3E70225D1E70325CFE70425CDE7C2
:103490000525CBE70625C9E70725C7E70825C5E7C2
:1034A000003C01400000024000380240001402408D
:1034B0000AB1816170470904FBE701684B6913F4A5
:1034C00080634FF0000210D06FF480634B612023C3
:1034D000026380F83D3080F83E20036C80F83C2089
:1034E00043F00403036401207047184670472DE938
:1034F000F84606460F4691461D464FEA114A336884
:10350000BAF1010F0CBF5C699C6927EA0404A4B2FC
:10351000B4FA84F46409A14501D0002017E06A1CC4
:10352000EED0FFF765FD089BC01AA84201D8002D18
:10353000E5D100232022336386F83D2086F83E3013
:10354000326C86F83C3042F0200232640120BDE843
:10355000F8862DE9F04104460F4616469846256840
:10356000686927EA000080B2B8B16B695A0516D5C0
:103570002B6843F400732B606FF480636B6120222F
:103580000023236384F83D2084F83E30226C42F00F
:103590000402226484F83C300120BDE8F081731CF1
:1035A000DED0FFF725FDA0EB0800B04201D8002EC9
:1035B000D5D100232022236384F83D2084F83E30B7
:1035C000226C42F02002E4E770B504460D46164630
:1035D00021684B6913F0400301D0002010E04A69D4
:1035E000D2060ED56FF010024A612022236384F8C0
:1035F0003D2084F83E30226C226484F83C30012067
:1036000070BDFFF7F5FC801BA84201D8002DDFD16B
:1036100000232022236384F83D2084F83E30226C6E
:1036200042F02002E8E770B504460D4616462368CE
:103630005B695B0701D5002070BD2046FFF73DFFA9
:10364000A8B96A1CF3D0FFF7D3FC801BA84201D8AD
:10365000002DECD100232022236384F83D2084F840
:103660003E30226C84F83C3042F02002226401207B
:10367000E2E770B504460D46164623685B691B06F3
:1036800001D5002070BD2046FFF717FFA8B96A1CBE
:10369000F3D0FFF7ADFC801BA84201D8002DECD180
:1036A00000232022236384F83D2084F83E30226CDE
:1036B00084F83C3042F0200222640120E2E700005E
:1036C0002DE9F0431546026885B0DDE90C7899468E
:1036D000136843F4807313600E463B46CDF80080B8
:1036E00000224FF001110446FFF701FF236838B1B3
:1036F0001B68DB0502D54FF40073236403200AE046
:1037000006F0FE061E61194943463A462046FFF779
:1037100020FF18B1012005B0BDE8F08323680390B5
:103720005A6903929B690393424639462046039B9C
:10373000FFF79FFF40B1236C042B01BF2268136881
:1037400043F400731360E5E7B9F1010F236802D178
:10375000EDB21D61DFE72A0A1A613946424620466A
:10376000FFF787FF0028E6D12368F1E70200010098
:103770002DE9FF479A46036815461A6842F48062AD
:103780001A601A68DDE90C7842F480721A600E46FD
:103790003B46CDF8008000224FF001110446FFF7B0
:1037A000A6FE236848B11B68DB0502D54FF4007301
:1037B0002364032004B0BDE8F0875FFA86F906F0C1
:1037C000FE061E612A4943463A462046FFF7C1FEDF
:1037D00008B10120EEE7236803905A6903929B69C0
:1037E0000393424639462046039BFFF742FF40B110
:1037F000236C042B01BF2268136843F40073136029
:10380000E7E7BAF1010F23681AD1EDB21D61424614
:1038100039462046FFF72DFF0028E9D122681368BA
:1038200043F4807313604FF001110246CDF800801D
:103830003B462046FFF75BFE226860B11368B3E7A2
:103840002A0A1A61394642462046FFF712FF00282D
:10385000CED12368D9E749F00103136104494346F7
:103860003A462046FFF775FE003818BF0120A1E751
:103870000200010070B5044608B9012070BD90F83F
:103880003D3003F0FF021BB980F83C20FDF7AEFF8E
:10389000242384F83D3023681A6822F001021A605C
:1038A0001A6842F400421A601A6822F400421A6050
:1038B00000F06EFE3F4B65689D4294BF3E4B3F4B10
:1038C00098428CBF00230123002BD6D12268394EA9
:1038D00053683B49B0FBF1F123F03F030B43B54282
:1038E000536088BF4FF49676136A88BF714323F004
:1038F0003F0384BF4FF47A76B1FBF6F101311943EF
:103900001162D169431E2B4821F44F41854221F0B9
:10391000FF0132D86D0040F6FC70B3FBF5F30133C4
:10392000034242D0C3F30B030B43D361D4E9073006
:103930001168034321F0C0010B4313609168D4E97F
:10394000030321F40341034321F0FF010B43936080
:10395000D4E90530D168034321F0FF010B43D36064
:10396000136843F00103136000202023206484F8CF
:103970003D30206384F83E0080E7A06850B905EB35
:103980004505B3FBF5F30133C3F30B037BB143F4FC
:103990000043C9E719204543B3FBF5F30133C3F3F3
:1039A0000B0323B143F44043BEE70423BCE70123E8
:1039B000BAE700BFA08601007F841E00FF083D001B
:1039C00040420F002DE9F743044699460C9E0F46EE
:1039D0009046FFF70DFB94F83D30202B054603D0B1
:1039E000022003B0BDE8F08300903C491923012276
:1039F0002046FFF77CFD0028F2D194F83C30012BE3
:103A0000EED02068012384F83C300368D9075EBFFC
:103A1000036843F001030360036823F40063036059
:103A2000212384F83D30402384F83E300023236472
:103A30000A9B6362BDF82C306385638D2385284B18
:103A4000E362CDE900654B46424639462046FFF722
:103A500037FE00282AD00120C3E7FFF70AFE40B155
:103A6000236C042B01BF2268136843F400731360B6
:103A7000F1E7636A27681A4612F8011B396162622E
:103A8000628D218D013A92B262857A69481E80B2B8
:103A9000520720850AD548B15A783A6102336362E9
:103AA000638D013B02399BB221856385238D2A46B4
:103AB00031462046002BD0D1FFF7B5FD0028CFD1ED
:103AC0002268136843F400731360202384F83D30A8
:103AD00084F83C0084F83E0083E700BF0200100039
:103AE0000000FFFF2DE9F043044687B09946109F80
:103AF0000D469046FFF77CFA94F83D30202B0646A1
:103B000004D00225284607B0BDE8F083009076492E
:103B1000192301222046FFF7EAFC0028F1D194F88E
:103B20003C30012BEDD02068012384F83C30036841
:103B3000DB075EBF036843F001030360036823F4FF
:103B400000630360222384F83D30402384F83E3034
:103B5000002323640E9B6362BDF83C306385638D54
:103B60002385624BE3622946CDE900764B46424607
:103B70002046FFF7FDFD054608B10125C2E7228D6D
:103B80002368B2B902905A6902929A690292029A23
:103B90001A6842F400721A60DFF85481238D002BFA
:103BA0002CD1202284F83D2084F83C3084F83E302B
:103BB000A8E7012A0AD11A6822F480621A600390E9
:103BC0005A6903929A690392039AE1E7022A0ED195
:103BD0001A6822F480621A601A6842F400621A605D
:103BE00004905A6904929B690493049BD4E705905E
:103BF0005A6905929B690593059BCDE7032B56D81F
:103C0000012B15D1324639462046FFF7DDFC00284E
:103C1000B3D123681A69636A1A70636A01336362F5
:103C2000238D013B2385638D013B9BB26385B5E703
:103C3000022B00963B464FF000024146204619D128
:103C4000FFF755FC002898D123681A6842F40072E7
:103C50001A601A69636A1A70626A531C6362238D60
:103C6000013B2385638D013B9BB2638523681B6900
:103C70005370D2E7FFF73BFC00287FF47EAF236848
:103C80001A6822F480621A601A69636A1A70636A99
:103C9000009601336362238D013B2385638D013BD5
:103CA0009BB2638502463B4641462046C8E7324602
:103CB00039462046FFF788FC00287FF45EAF236872
:103CC0001A69636A1A70626A531C6362238D013B2E
:103CD0002385638D013B9BB263852368596949073E
:103CE0007FF55CAFC3E700BF020010000000FFFFDC
:103CF0000400010010B590F83D30202BDCB216D145
:103D0000242380F83D3003681A6822F001021A600B
:103D10005A6A22F010025A625A6A114359621A68AA
:103D200042F001021A6080F83D40002010BD0220E0
:103D3000FCE730B590F83D30202BDCB216D102689C
:103D4000242380F83D30136823F001031360556A83
:103D50004FF6F0732B400B439BB25362136843F052
:103D60000103136080F83D40002030BD0220FCE7D5
:103D70000068D1F800C0D201843283182DE9F043E5
:103D8000C6685D684C68D1F8189005F470455D60B0
:103D9000C5680CF10107C5F30B45C6F30B463D445E
:103DA000264445EA06455D60C568CE68C5F30A0548
:103DB0002E449D6805F470459D60C7688D68C7F303
:103DC0000A0701353D4445EA06459D601D690E69B7
:103DD00025F007051D614FF0000E1E619D6991F8E9
:103DE000327091F83180C3F818E091F8305045EA0C
:103DF000096545EA082545EA07459D615D6925F0A5
:103E0000FF055D614D695D61DD6925F4E06525F0C3
:103E10000705DD61D1E907573D43DD619D6A4D6AC4
:103E2000C3F828E09D621EB3012E23D0B51E022DDB
:103E300022D9072E0CBF02250125DE6A06F0E026F6
:103E4000DE62A4EB0C048E6AC96A6C436E430334D1
:103E500044EA0644DC621C6B24F4FF6424F007048B
:103E60001C631963835843F001038350BDE8F0835A
:103E70000425E2E70325E0E70225DEE738B504463E
:103E8000002863D090F8A13003F0FF021BB980F83E
:103E9000A020FDF707FD022384F8A13023689A696A
:103EA00022F070429A61D4E901200243E0689969E6
:103EB0000243206902430A439A619A68244960696F
:103EC0000A409A609A6842EA0042A06902439A60F6
:103ED000DA68E0690A40DA60DA6842EA0042206A99
:103EE0000243DA601A69606A0A401A611A6942EA92
:103EF0000042A06A02431A615A69114059615A6925
:103F0000E16A42EA0142216B0A435A61D96A94F894
:103F1000360094F8355001F07F41D962D96A94F89F
:103F200034200A4342EA052242EA0042DA625A6B2E
:103F300042F006025A639A6942F001029A61002037
:103F40000123C4F8A40084F8A13038BD0120FCE7A7
:103F500000F800F070477047036870B59E6B5D6BAA
:103F60007207044614D5690712D55A6B22F0040271
:103F70005A630422DA63D0F8A43043F00103C0F896
:103F8000A430002380F8A12080F8A030FFF7E2FFE2
:103F9000B20716D5AB0714D523685A6B22F002027C
:103FA0005A630222DA63D4F8A4301343C4F8A4306D
:103FB000042384F8A130002384F8A0302046FFF7C2
:103FC000C9FFF00710D5E9070ED523685A6B22F018
:103FD00001025A630122DA63002384F8A12084F8E5
:103FE000A0302046FDF796F8320711D52B070FD5E4
:103FF00023685A6B22F008025A630822DA6301230D
:1040000084F8A130002384F8A0302046FFF7A3FFF6
:1040100070BD2DE9F04190F8A030012B06460F4607
:1040200094464FF002001FD04FF0010886F8A080A0
:1040300086F8A10034240D4604FB02640FCD383409
:104040000FC40FCD0FC40FCD0FC42B6823603046B3
:1040500062463946FFF78CFE33680020C3F824809F
:1040600086F8A18086F8A000BDE8F08190F8A03025
:10407000012B4FF0020312D080F8A13003685A6B75
:1040800022F001025A63074A11645A6B42F001029E
:104090005A63012380F8A130002380F8A03018462D
:1040A000704700BF006801402DE9F341044640B36A
:1040B0000368DD0710D4236898075ED423681A07C5
:1040C00000F1A08023685B0700F1C080A069002890
:1040D00040F0288100202BE08F4B9A6802F00C0200
:1040E000042A07D09A6802F00C02082A0BD15A68F9
:1040F000510208D5884B1B689A03DCD56368002BF6
:10410000D9D1012014E06268B2F5803F13D11A685A
:1041100042F480321A60FEF76BFF7F4E054633682B
:104120009B03C8D4FEF764FF401B6428F7D9032023
:1041300002B0BDE8F081784DB2F5A02F2B6807D111
:1041400043F480232B602B6843F480332B60E2E739
:1041500023F480332B602B6823F480232B60002A08
:10416000D9D1FEF745FF06462B689F03A3D5FEF77E
:104170003FFF801B6428F7D9D9E7674B9A6812F094
:104180000C0F07D09A6802F00C02082A11D15B6864
:104190005E020ED4604A13689D0702D5E368012BC6
:1041A000AFD11368216923F0F80343EAC103136018
:1041B00084E7E268594BB2B101221A60FEF718FF9A
:1041C000554D06462B68980707D52B68226923F0C2
:1041D000F80343EAC2032B6070E7FEF709FF801B78
:1041E0000228EFD9A3E71A60FEF702FF4A4E054600
:1041F000336899077FF562AFFEF7FAFE401B02288D
:10420000F6D994E76269454B82B10122C3F8802E4A
:10421000FEF7EEFE404E0546736F9F073FF552AF27
:10422000FEF7E6FE401B0228F6D980E7C3F8802E91
:10423000FEF7DEFE384E0546736F98077FF542AFF6
:10424000FEF7D6FE401B0228F6D970E7324B1A6CF7
:1042500012F0805228D101921A6C42F080521A64F6
:104260001B6C03F080530193019B01272C4D2B689D
:10427000D9051BD5A368284D012B27D12B6F43F0FF
:1042800001032B67FEF7B4FE234E054641F2883842
:10429000336F9B0739D5002F3FF418AF1E4A136CBC
:1042A00023F08053136411E70027DFE72B6843F402
:1042B00080732B60FEF79CFE06462B68DA05D9D486
:1042C000FEF796FE801B0228F7D930E7052B04D1B4
:1042D0002B6F43F004032B67D0E72A6F22F0010213
:1042E0002A672A6F22F004022A67002BCAD1FEF740
:1042F0007FFE41F2883806462B6F9807CBD5FEF734
:1043000077FE801B4045F7D911E7FEF771FE401B91
:104310004045BDD90BE700BF0038024000004742CE
:1043200000700040334DAB6803F00C03082B3DD008
:10433000314B002202281A662BD1FEF759FE0646A1
:104340002B6899011FD4D4E907321343626A43EA08
:104350008213E26A43EA0263A26A5208013A43EA1C
:1043600002436B60244B234D01221A66FEF740FE88
:1043700004462B689A013FF5ADAEFEF739FE001BEF
:104380000228F6D9D3E6FEF733FE801B0228D7D9E0
:10439000CDE6FEF72DFE04462B689B017FF59AAE15
:1043A000FEF726FE001B0228F6D9C0E601283FF4DE
:1043B000BFAE6B68E26903F4800191427FF4A1AE65
:1043C000216A03F03F028A427FF49BAE616A47F69E
:1043D000C0721A408A427FF494AEA16A03F440325C
:1043E0008A427FF48EAEE26A03F0706393423FF438
:1043F00071AE86E60038024000004742134908B516
:104400008B6803F00C03042B1CD0082B1CD14A68CA
:104410004B68496813F4800314BF0D480D48C1F37D
:10442000881118BF002302F03F02A1FB0001FBF737
:104430002FFF064B5B68C3F3014301335B00B0FB06
:10444000F3F008BD0248FCE70248FAE700380240F2
:1044500000127A000024F4002DE9F0410D460446D4
:1044600010B90120BDE8F081444B1A6802F00F0238
:104470008A4228D3226897072DD4D00741D43F4BD6
:104480001A6802F00F02AA4266D8226851076CD45B
:10449000130707D53A4A2169936823F4604343EA36
:1044A000C1039360FFF7AAFF354B364A9B68C3F3FD
:1044B0000313D35CD840344B1860344B1868FDF7B5
:1044C00059FB0020CEE7CAB21A701B6803F00F0335
:1044D0008B42C6D1CEE72A4B12F0040F1EBF99685B
:1044E00041F4E0519960160742BF996841F4604178
:1044F00099602349A0688B6823F0F00303438B6025
:10450000BBE762681E4B012A1CD11B6813F4003FF5
:10451000A7D01B4EB36823F003031343B360FEF729
:1045200067FD41F288380746B368626803F00C0300
:10453000B3EB820FA3D0FEF75BFDC01B4045F3D960
:1045400003208FE7911E01291B6802D813F0007F1A
:10455000DEE713F0020FDBE7EAB21A701B6803F024
:104560000F03AB427FF47DAF8FE70549E0688B68AE
:1045700023F4E05303438B608AE700BF003C024012
:1045800000380240B0BD0108740000207C0000200B
:10459000044B054A9B68C3F38223D35C034A10682B
:1045A000D840704700380240C0BD010874000020A8
:1045B0000F2303600B4B9A6802F0030242609A6873
:1045C00002F0F00282609A6802F4E052C2609B68D6
:1045D000DB0803F4E0530361034B1B6803F00F0394
:1045E0000B60704700380240003C0240036813F043
:1045F000430FF7B5044640F08C80236813F00C0F8E
:1046000045D08B4B8B4D00221A67FEF7F1FC064616
:104610002B689F0000F1CF8021684E0715D5D4E9A3
:104620000403D5F888201B0602F0E04243EA801319
:104630001343C5F88830D5F88C30226A23F4F85338
:10464000013A43EA0223C5F88C300D0714D5794AA4
:10465000A369D2F8881020691B0701F0706143EA52
:1046600080130B43C2F88830D2F88C30616A23F48F
:1046700040330B43C2F88C306D4B6E4E01221A67EB
:10468000FEF7B6FC05463368980040F19B8023682E
:104690009B0633D500230193664B674D1A6C42F09D
:1046A00080521A641B6C03F080530193019B2B68AA
:1046B00043F480732B60FEF79BFC06462B68D905FC
:1046C00040F187805B4D2B6F13F4407340F088807E
:1046D000A36A03F44072B2F5407F564A40F0A480CA
:1046E000916823F0704021F4F81120F440700143E8
:1046F0009160116FC3F30B030B431367206810F035
:1047000010001FBF4D4B94F82C20C3F8E02100206F
:104710004FE0474B474E00229A66FEF769FC05467C
:1047200033681F013FD42168CD0741BFD4E901237D
:104730001B0743EA8213C6F88430880715D53D4A23
:10474000E368D2F8840065681B0600F0E04043EAA5
:1047500085130343C2F88430D2F88C00E36920F05B
:104760001F00013B0343C2F88C3049060AD5E368B9
:1047700062681B0643EA8213A26843EA02732D4A69
:10478000C2F884302A4B2B4E01229A66FEF730FC89
:10479000054633681A013FF530AFFEF729FC401B90
:1047A0000228F6D904E0FEF723FC401B0228B7D903
:1047B000032003B0F0BDFEF71BFC801B02287FF630
:1047C00027AFF5E7FEF714FC401B02287FF65BAF2E
:1047D000EEE7FEF70DFC801B02287FF66FAFE7E7E0
:1047E000A26A02F4407293423FF472AF2B6F104AF8
:1047F0000121C2F8401E23F440730021C2F8401E7C
:104800002B672B6FDA077FF563AFFEF7F1FB41F201
:10481000883706462B6F9B073FF55AAFFEF7E8FB3C
:10482000801BB842F6D9C3E7916821F4F8115FE71D
:10483000000047420038024000700040001047422C
:1048400038B50D460446C8B190F82C3003F0FF028D
:104850001BB980F82D20FDF721F9022384F82C30B4
:10486000211D206800F07CFC62682068294600F069
:10487000ADFC012384F82C30002038BD0120FCE77A
:1048800038B590F82C30022B04460D46D8B20DD026
:10489000022384F82C30206800F0D4FC2B68022B13
:1048A0000CBF0523012384F82C30002038BD10B53F
:1048B00090F82C30022B0446D8B209D0022384F899
:1048C0002C30206800F0E5FC012384F82C30002017
:1048D00010BDF8B504460E4615461F46226893687B
:1048E00036EA030301D000202DE06B1CF7D0FEF761
:1048F0007FFBC01B8542F1D823685A6822F0E00292
:104900005A606268B2F5827F0AD1A268B2F5004FA0
:1049100002D0B2F5806F03D11A6822F040021A600B
:10492000A26AB2F5005F07D11A6822F400521A6039
:104930001A6842F400521A60012384F851300023AF
:1049400084F850300320F8BD38B513464268B2F5FC
:10495000827F04461FD18268B2F5004F02D0B2F5C3
:10496000806F07D125682868B2F5806F20F040007D
:10497000286007D00A4680212046FFF7AAFF20B909
:10498000002038BD0A460121F6E7636D43F020039D
:1049900063650320F5E70A460121EEE737B51346C4
:1049A000124A1568124AB5FBF2F54FF47A72554374
:1049B00042680195B2F5827F04460BD10A468021F8
:1049C000FFF787FF78B1636D43F020036365032031
:1049D00003B030BD019B33B1019B013B01932368C0
:1049E0009B681B06F6D40020F2E700BF740000208D
:1049F00000366E0110B50446002836D000238362CD
:104A000090F8513003F0FF021BB980F85020FDF7F9
:104A10000FF82168A269022384F851300B6823F053
:104A200040030B60D4E901300343E068034320698D
:104A3000034360690343E0690343206A0343A06AB8
:104A4000034302F4007003430B60120C636A02F02C
:104A500004021A434A60CB6923F40063CB6100204F
:104A60000123606584F8513010BD0120FCE72DE979
:104A7000F3411E4690F85030012B04460D46174670
:104A800000F09D80012380F85030FEF7B1FA94F8D1
:104A90005130012B8046D8B240F08F80002D5AD083
:104AA000002F58D0032384F85130A26825630023D7
:104AB0006365C4E91033E786A363E387A3872368AC
:104AC000A786B2F5004F08BF1A68E16804BF42F438
:104AD00080421A601A6852065EBF1A6842F04002AD
:104AE0001A60B1F5006F626841D10AB1012F07D198
:104AF00035F8022BDA602563E38E013B9BB2E38637
:104B0000E38E9BB2A3B9424631462046FFF746FFEB
:104B100000284FD1A36833B901932368DA68019262
:104B20009B680193019B606D003818BF012012E063
:104B300022689368980705D5236B33F8021BD16070
:104B40002363D9E7FEF754FAA0EB0800B0420BD379
:104B5000711CD5D00320012384F85130002384F840
:104B6000503002B0BDE8F081002EC9D1F2E70AB1A1
:104B7000012F08D12A781A73236B01332363E38E44
:104B8000013B9BB2E386E38E9BB2002BBBD0236834
:104B90009A68920702D5226B1278ECE7FEF728FAA2
:104BA000A0EB0800B04202D3731CECD0D2E7002E79
:104BB000E9D1CFE720236365ACE70220CBE70220F1
:104BC000CFE72DE9F7431E4690F850300A9F012B9E
:104BD00004460D46914600F0E680012380F85030EF
:104BE000FEF706FA94F851306268012B8046D9B27C
:104BF0000AD0B2F5827F40F0D480A368002B40F049
:104C0000D080042940F0CD80002D40D0B9F1000FB4
:104C10003DD0002E3BD094F85130C4F83890042B8E
:104C20001CBF052384F8513000236365C4E91033A9
:104C30002368E687E6861968A687490658BF19687B
:104C4000256358BF41F04001A68658BF1960E1684E
:104C5000B1F5006F52D10AB1012E07D135F8022B00
:104C6000DA60E38E2563013B9BB2E3860125E38E88
:104C70009BB273B9E38F9BB25BB94246394620467B
:104C8000FFF78CFE002800F081802023636501205F
:104C90002BE021688B689E070DD5E38E9BB253B144
:104CA0004DB1236B33F8022BCA602363E38E013BC3
:104CB0009BB2E38600258A6812F001020CD0E38FD4
:104CC0009BB24BB1A36BC96823F8021BA363E38FAC
:104CD000013B9BB2E3871546FEF78AF9A0EB08007B
:104CE000B842C4D3781CC2D00320012384F85130C9
:104CF000002384F8503003B0BDE8F0830AB1012EE0
:104D000008D12A781A73236B01332363E38E013BA6
:104D10009BB2E38601252DE02268936899070ED5A2
:104D2000E38E9BB25BB155B1236B1B781373236B7E
:104D300001332363E38E013B9BB2E38600252268A7
:104D4000916811F001010DD0E38F9BB253B1A36BB9
:104D5000D2681A70A36B0133A363E38F013B9BB24C
:104D6000E3870D46FEF744F9A0EB0800B8420AD3EA
:104D70007B1CB9D1E38E9BB2002BCDD1E38F9BB2CC
:104D8000002BC9D179E7002FF4D1ADE7A368002B40
:104D9000ABD123680190DA6801929B680193019B73
:104DA000A3E70220A1E70220A5E72DE9F7431D466E
:104DB0004368B3F5827F0446894617460CD1836861
:104DC00053B9042380F85130134600950A46FFF783
:104DD000F8FE03B0BDE8F08394F85030012B00F0EA
:104DE0008480012384F85030FEF702F994F85130A2
:104DF000012B8046D8B276D1B9F1000F5AD0002FDE
:104E000058D0A268C4F83890042384F851300026A2
:104E100023686665B2F5004FE787E68608BF1A6823
:104E2000266308BF22F48042C4E91066A686A787DD
:104E300008BF1A601A6856065EBF1A6842F0400240
:104E40001A60E368F3B1E38F9BB2FBB123689A6801
:104E5000D20739D5DA68A36B23F8022BA363E38F5B
:104E6000013B9BB2E387EEE723689A68D00718D529
:104E7000A26B1B7B1370A36B0133A363E38F013B16
:104E80009BB2E387E38F9BB2002BEDD142462946CC
:104E90002046FFF759FD18BB606D003818BF012090
:104EA00008E0FEF7A5F8A0EB0800A84209D3691CAA
:104EB000E8D00320012384F85130002384F85030D7
:104EC00087E7002DDED1F4E7FEF792F8A0EB0800AB
:104ED000A84202D36B1CB6D0EBE7002DB3D1E8E7B4
:104EE00020236365D8E70220E4E7022071E77047DA
:104EF0000368DA6842F00102DA609A6802F0070299
:104F0000062A1EBF1A6842F001021A60002070478C
:104F1000704770477047704703681A69910710B56A
:104F200004460ED5DA6892070BD56FF002021A61BB
:104F3000012202779B699B0777D0FFF7EAFF0023E6
:104F4000237723681A69500710D5DA6851070DD501
:104F50006FF004021A61022222779B6913F4407FEA
:104F6000204668D0FFF7D5FF0023237723681A690E
:104F700012070FD5DA6810070CD56FF008021A6116
:104F800004222277DB69990720465AD0FFF7C1FF38
:104F90000023237723681A69D20610D5DA68D00671
:104FA0000DD56FF010021A6108222277DB6913F425
:104FB000407F20464BD0FFF7ACFF002323772368C8
:104FC0001A69D10708D5DA68D20705D56FF0010252
:104FD0001A612046FCF7A6FB23681A69100608D55B
:104FE000DA68110605D56FF080021A61204600F0DC
:104FF000B6F823681A69520608D5DA68500605D54E
:105000006FF040021A612046FFF785FF23681A6996
:10501000910622D5DA6892061FD56FF0200220464D
:105020001A61BDE8104000F099B8FFF771FF204603
:10503000FFF770FF83E7FFF76BFF2046FFF76AFF7C
:1050400092E7FFF765FF2046FFF764FFA0E7FFF751
:105050005FFF2046FFF75EFFAFE710BD304A0368F1
:10506000904212D0B0F1804F0FD0A2F57C42904216
:105070000BD002F58062904207D002F58062904228
:1050800003D002F57842904219D14A6823F07003A8
:105090001343234A904229D0B0F1804F26D0A2F585
:1050A0007C42904222D002F5806290421ED002F5EE
:1050B000806290421AD002F57842904216D0194A86
:1050C000904213D002F5806290420FD002F58062C8
:1050D00090420BD0A2F59832904207D002F5806240
:1050E000904203D002F58062904203D1CA6823F453
:1050F000407313434A6923F08003134303608B68B2
:10510000C3620B688362064B984203D003F5806349
:10511000984201D10B69036301234361704700BFCB
:10512000000001400040014010B50446A0B190F8D5
:105130003D3003F0FF021BB980F83C20FFF7D7FE9B
:105140000223206884F83D30211DFFF787FF0123EB
:1051500084F83D30002010BD0120FCE77047704707
:105160002DE9F0414A6AD1E90743D1E90158D1E973
:1051700003ECD1E905760968012943EA04031249E1
:1051800004680FD01A432A4342EA080343EA0E0395
:1051900043EA0C033B43214033430B4303600020AD
:1051A000BDE8F08113434268114045EA080242EA33
:1051B0000E0242EA0C023A4324F4F84432432343F9
:1051C0000A4303604260EAE70080FFFFCB68F0B566
:1051D0000C688E680D695F1E4B6904F1FF3C4C68DA
:1051E0008969013B1B05013C013E013D0139012A52
:1051F0004FEA04144FEA06264FEA05454FEA0161DB
:1052000043EA07330CD043EA0C0323438268334359
:105210002B4302F070420B43134383600020F0BD28
:10522000876827F4700727F4704734433B4344EA08
:105230000C02C76883602A4307F070470A433A4369
:10524000C260EBE773B5002301931546D1E9003244
:105250001343CA6843EA42238A68013A43EA421385
:105260000193019B03610446FDF7C2FE0646A36954
:1052700013F0200301D1184603E06B1CF7D015B9D9
:10528000032002B070BDFDF7B3FE801BA842EED92B
:10529000F6E7436943EA410141610020704700009D
:1052A000EFF3058313B16FF005007047EFF3108241
:1052B000074B12B9EFF3118212B11A68022AF2D029
:1052C000186810B901221A6070474FF0FF3070471C
:1052D0006027002008B5EFF3058313B16FF00500D8
:1052E00008BDEFF310820A4B12B9EFF3118212B12D
:1052F0001A68022AF2D01A68012A05D102221A601D
:1053000001F0AAFB0020EBE74FF0FF30E8E700BF19
:1053100060270020F0B587B0144600220B460592A6
:10532000EFF3058222BBEFF3108212B9EFF3118283
:105330001AB1224A1268022A1AD0C8B1002C2FD002
:10534000A569002D08BF18256A1E372AAC462BD840
:105350006268D20728D466696EB1B208D4E9027EC9
:10536000216857B1BEF15F0F02D9246904B1EEB9CB
:10537000059807B0F0BD8022F0E7BEF1000FF7D12D
:105380002469002CF4D10C4605A9CDE900C192B2E4
:10539000214601F034FB01281CBF00230593E7E7F9
:1053A0004FF0180C8022EFE70020E2E7CDE901473B
:1053B000009501F0ECFA0590DAE700BF60270020C5
:1053C00073B50E461546EFF305831BB10024204646
:1053D00002B070BDEFF3108313B9EFF311831BB16B
:1053E000214B1B68022BF1D00028EFD0B042EDD347
:1053F000EDB1D5E90232C3B14F2AE7D9012829D14D
:10540000032200920022114600F02DFD04460028E0
:10541000DCD0CEB100231A46194600F0D9FD012890
:1054200012D0204601F014F9D0E7002ACED101288D
:1054300004D10322002100F064FDE7E7314600F0CB
:10544000A9FD04460028C1D05DB92946204601F0D7
:10545000D9F8BCE71A46314600F07AFD0446002828
:10546000B4D02D68F1E700BF6027002013B50C46CB
:1054700018B96FF0030002B010BDEFF3058363B1FC
:10548000002CF6D101AA2146019401F06BF8012805
:1054900013D1019BA3B90020EDE7EFF3108313B9FB
:1054A000EFF311831BB10D4B1B68022BE8D0214693
:1054B00000F095FF0128EED06CB96FF00200DAE73A
:1054C0004FF0E0234FF08052C3F8042DBFF34F8F0D
:1054D000BFF36F8FDFE76FF00100CCE7602700209C
:1054E00013B570B3EFF305834BB1002401A9019408
:1054F00000F082FE012814D06FF0020014E0EFF3F8
:10550000108313B9EFF311831BB10F4B1B68022BF0
:10551000EBD000231A46194600F05AFD012802D0AC
:10552000EAE7019B13B9002002B010BD4FF0E02361
:105530004FF08052C3F8042DBFF34F8FBFF36F8F2E
:10554000F1E76FF00300EFE76027002073B5144622
:10555000EFF305831BB10025284602B070BDEFF3C1
:10556000108313B9EFF311831BB11A4B1B68022B85
:10557000F1D00028EFD00029EDD0ECB1D4E902320F
:1055800093B14F2AE7D92269002AE4D0666901FB6A
:1055900000F5AE42DFD30025009500F064FC05461F
:1055A0000028D8D024680FE0002AD4D12369002B2A
:1055B000D1D16369002BCED1002200F0A2FC0546B8
:1055C0000028C8D0002CEDD12146284601F01AF859
:1055D000C2E700BF6027002013B51C46EFF3058328
:1055E00023B1D8B96FF0030002B010BDEFF3108300
:1055F00013B9EFF311831BB1174B1B68022BF0D0CB
:105600000028EFD00029EDD00023224600F0E0FC76
:10561000012810D0E4B96FF00200E5E70029E1D0DD
:10562000002CDFD1234601AA019400F084FD01285B
:10563000F1D1019B0BB90020D6E74FF0E0234FF0EA
:105640008052C3F8042DBFF34F8FBFF36F8FF2E783
:105650006FF00100C8E700BF6027002013B51C46AB
:10566000EFF3058323B1D0B96FF0030002B010BD92
:10567000EFF3108313B9EFF311831BB1164B1B68C3
:10568000022BF0D00028EFD00029EDD0224600F008
:1056900007FE01280FD0DCB96FF00200E6E7002911
:1056A000E2D0002CE0D101AA019400F05BFF0128B8
:1056B000F2D1019B0BB90020D8E74FF0E0234FF067
:1056C0008052C3F8042DBFF34F8FBFF36F8FF2E703
:1056D0006FF00100CAE700BF60270020034B0360A2
:1056E000034B0B6080231360704700BF002700202E
:1056F00000250020034B0360034B0B604FF48073C5
:1057000013607047642B00206427002010B50F4BF6
:105710001A461B688342FBD354681119884201BFA3
:105720004168104609195160446801198B4207D13C
:10573000074909688B421FBF59681B6809194160F6
:105740009042036018BF106010BD00BFD42B012031
:10575000C42B00202DE9F041044601F0C3F9404874
:10576000404D03680BBB40494E071FBFCB1D23F0C4
:10577000070301F58032D21A14BF19464FF4803264
:105780000A443A4E083A22F007020023736031605F
:10579000C2E90033531AC1E900230260344A13609E
:1057A000344A13604FF000432B602F68274251D1D9
:1057B000002C42D004F1080361071CBF23F007034B
:1057C0000833002B46D02B4C26689E4242D3274AF2
:1057D00015686968994204D2D5F800C0BCF1000F81
:1057E00015D10068A84235D0C91A2868D2F80080BF
:1057F0001060102912D9E81842070BD04FF050035F
:1058000083F31188BFF36F8FBFF34F8FFEE72A46F4
:105810006546DEE741606B60FFF778FF14496B680F
:105820000868F61A1F4386424FF00003266038BF0F
:105830000E6008F108046F602B6001F0F7F9630750
:105840000AD04FF0500383F31188BFF36F8FBFF37B
:105850004F8FFEE70024F0E72046BDE8F08100BF4F
:10586000C42B0020C82B0120C82B0020D42B0120E2
:10587000D02B0120CC2B012010B5044670B3184A60
:1058800050F8043C1268134208D14FF0500383F3E0
:105890001188BFF36F8FBFF34F8FFEE750F8081CDE
:1058A00041B14FF0500383F31188BFF36F8FBFF303
:1058B0004F8FFEE723EA020340F8043C01F012F99F
:1058C000084A54F8043C1168A4F108000B44136022
:1058D000FFF71CFFBDE8104001F0A8B910BD00BFE4
:1058E000C82B0120CC2B012000F108034FF0FF3220
:1058F000C0E9022343600361002303607047002373
:105900000361704743684B609A688A609A68516087
:1059100099600368086101330360704730B50C6813
:10592000631C0AD103695A684A6091608B605960B0
:10593000036808610133036030BD00F108021346BB
:1059400052681568A542FAD9EDE7D0E9011203695A
:105950008A6051605968814208BF5A600022026122
:105960001A68013A1A601868704700000848006811
:10597000006880F308884FF0000080F3148862B656
:1059800061B6BFF34F8FBFF36F8F00DF00BF000022
:1059900008ED00E0DFF80C00016841F470010160DF
:1059A0007047000088ED00E082B0002301930D4BAA
:1059B0001B68013308D04FF0500383F31188BFF305
:1059C0006F8FBFF34F8FFEE74FF0500383F31188C3
:1059D000BFF36F8FBFF34F8F019B002BFCD002B042
:1059E000704700BF800000204FF0807340F8043CF7
:1059F000074B40F80C3C21F001016FF0020340F826
:105A0000081C40F8202C40F8243C4438704700BF64
:105A1000A95900080000000000000000000000007C
:105A2000074B19680868B0E8F04F80F30988BFF3A6
:105A30006F8F4FF0000080F311887047AFF3008044
:105A4000242C01204FF0500383F31188BFF36F8F94
:105A5000BFF34F8F0A4A13680133012B13600ED135
:105A60004FF0E023D3F8043DDBB243B14FF05003D5
:105A700083F31188BFF36F8FBFF34F8FFEE770473B
:105A800080000020084A136843B94FF0500383F3A5
:105A90001188BFF36F8FBFF34F8FFEE7013B136099
:105AA0000BB983F3118870478000002000000000CC
:105AB000EFF30980BFF36F8F154B1A681EF0100FBC
:105AC00008BF20ED108A20E9F04F10602DE9090091
:105AD0004FF0500080F31188BFF34F8FBFF36F8FEB
